:020000040800F2
:10000000E8210020F9EA00082DEC000895E400083A
:1000100031EC000835EC000839EC00080000000065
:100020000000000000000000000000003DEC00089F
:1000300041EC00080000000045EC000843400008C7
:1000400049EC00084DEC000851EC000855EC0008A4
:1000500059EC00085DEC000861EC000865EC000854
:1000600069EC00086DEC000871EC000875EC000804
:1000700079EC00087DEC000881EC000885EC0008B4
:10008000ADCD000881CD000889EC00088DEC00089A
:1000900091EC000895EC000899EC00089DEC000834
:1000A000A1EC0008A5EC00087B410008A9EC0008C1
:1000B000ADEC0008B1EC0008B5EC0008B9EC0008A4
:1000C000BDEC00084DC7000877C70008C1EC000868
:1000D000C5EC0008C9EC0008D9CD0008CDEC00083B
:1000E000D1EC0008D5EC0008D9EC0008DDEC0008E4
:1000F000E1EC0008E5EC0008000000000000000052
:100100000000000000000000E9EC0008EDEC000831
:100110000000000000000000F1EC0008F5EC000811
:10012000F9EC0008FDEC000801ED000805ED000801
:1001300009ED00080DED000811ED000815ED0008AF
:1001400019ED0008000000000000000000000000A1
:10015000000000000000000000000000000000009F
:1001600000000000000000001DED000821ED000867
:1001700025ED00080000000029ED00080000000047
:10018000000000002DED00082DE9F0439FB000BFF6
:1001900065A6269CDFF8E88A8DF83B400291002492
:1001A0000B944FF0FF37044691461D460AE019F8BC
:1001B000011B0298A0470028029000F0A1800B9834
:1001C000401C0B9099F8000050B12528EFD1002178
:1001D0000022059106920791089209910A9203E084
:1001E0000B98A5E041F0010119F8010F2028F9D082
:1001F00023280CD02B2804D02D2805D0302809D056
:1002000080E041F00201EFE741F00401ECE741F04A
:100210000801E9E741F01001E6E70D920AE00D98C8
:10022000404505DA00EB800002EB4002303A0D92C7
:1002300009F1010999F80020A2F130000A28EED353
:1002400099F800002E2818BF0C9726D119F8010F35
:100250002A2808D12868286009F1010950F8042BE0
:1002600028600C9219E02D280CBF09F1010900202B
:1002700000220C920BE040B90C9A424505DA02EBE1
:10028000820203EB4203303B0C9309F1010999F818
:100290000030A3F130020A2AEDD3ADF83810304611
:1002A00099F8001000F0C0FE08B119F8010B8DF8A4
:1002B0003A009DF83A00682805D199F800006828AE
:1002C0000CD1622106E06C2804BF99F800006C286C
:1002D00004D171218DF83A1009F1010910A8049098
:1002E0002A4619F8013B6946204600F061F838B902
:1002F00010AA6946204600F091F900287FF562AF08
:10030000384615E02A2888D12A682A6052F8040B5A
:100310002A6000280D9003D540420D9041F0040161
:1003200009F101098CE70000686A6C747A4C0000DE
:100330001FB0BDE8F083622820D0682811D06A2859
:1003400003D06C2827D0712825D10868C01D20F063
:1003500007000860D0E900230830086019461046FD
:100360007047002A0A680A60106803D0121D0A60EC
:1003700000B217E0121D0A6080B217E0002A0A6876
:100380000A60106803D0121D0A6040B20AE0121D14
:100390000A60C0B20AE0002A0A680A60106803D046
:1003A000121D0A60C1177047121D0A6000217047B4
:1003B00070B51C460D46B4F125002E69114600F0BB
:1003C0001B811C386AD0001F022867D9133843D01C
:1003D000093863D0801E16D0401E1ED0401E022851
:1003E0005CD9001F19D0401F00F08380401E33D01D
:1003F000401E00F0CD80C01E00F0DC80801E2BD09F
:10040000C01E29D0FEE06869421C6A610A680A6061
:1004100052F8043B0A603354FEE095F83A0001229A
:10042000FFF789FFC5E900010023994204DA6869F2
:10043000411C69612D220DE0288F810704D5686970
:10044000411C69612B2205E0C00722D56869411C67
:100450006961202232541CE095F83A000022FFF72F
:100460006AFFC5E9000195F83800010711D5D5E903
:1004700000230020834208BF82420AD044F02000BB
:10048000782806D1686930213154401C421C6A61C9
:100490003454214668693044E86087E00868C01D2C
:1004A00020F007000860D0E9002308300860C5E9A3
:1004B0000023D5E90001C80F04D06869411C6961B7
:1004C0002D220DE0288F810704D56869411C6961E0
:1004D0002B2205E0C00704D56869411C6961202210
:1004E000325468693044E8602146284600F0C8F973
:1004F00092E005F13A02507820B14FF0FF340FF648
:10050000502062E01078622808D0682824D06A2839
:1005100012D06C282ED071280ED02BE00A680A6009
:1005200052F8040B0A6020B94FF0FF340FF6382060
:100530004BE0E96A01706FE00A680A6052F8040B48
:100540000A6020B94FF0FF340FF61C203DE0EA6A44
:10055000D317C0E900235FE00A680A6052F8040B71
:100560000A6020B94FF0FF340FF6FC102DE0E96A65
:10057000018051E00A680A6052F8040B0A6020B951
:100580004FF0FF340FF6E0101FE0E96A016043E02E
:100590000A680A6052F8040B0A60002120F0000289
:1005A00021F0FF33C5E90023EE607821284600F0F2
:1005B000BBF831E00868086050F8044B0860EC6054
:1005C0003CB94FF0FF340FF6B81000F055FD201A7B
:1005D00070BD2E6B002E04D5204600F06DFD044644
:1005E00008E032460021204600F086FD002814BFB6
:1005F000041B3446AC610FE06869411C6961252227
:10060000325409E06969481C68612522725421004E
:1006100002D0431C6B613454002070BD2DE9FC41B5
:100620000F46064690467A6B7869396ABC6A121A98
:10063000B869521A796A121AF869521A121A97F896
:100640003800141B41070FD42020002C8DF8000027
:100650000ADD254601236A463946304600F060FC33
:1006600000285DD16D1EF5D17B6942463946304682
:1006700000F056FC002853D130208DF800003D6A70
:10068000002D09DD01236A463946304600F048FC5A
:10069000002845D16D1EF5D1BB69FA683946304650
:1006A00000F03EFC00283BD130208DF800007D6A30
:1006B000002D08DD01236A463946304600F030FC43
:1006C00070BB6D1EF6D1F868B969FB6942183946EE
:1006D000304600F025FC18BB30208DF80000BD6AC4
:1006E000002D08DD01236A463946304600F018FC2B
:1006F000B0B96D1EF6D197F8380041070DD520200E
:10070000002C8DF8000008DD01236A46394630468A
:1007100000F006FC20B9641EF6D10020BDE8F68189
:100720004FF0FF30BDE8F6812DE9FC4707468C46C7
:100730003E69BCF16F0F08BF082405D04CF02000C3
:10074000782814BF0A2410243C25D7E90023BCF1E3
:10075000640F18BFBCF1690F9046994606D100217D
:100760008B4203DAD8F1000869EB49094FF0000A1F
:10077000D14508BFD0451FD1386BE8B9082C4BD103
:1007800097F83800010747D530203B2586F83B0015
:1007900042E000280ED597F8380000F01400102829
:1007A00008D17B6B7969386A5B1A1B1A9A1A002A7E
:1007B000C8BF3A62BDE8F3878DF800C0404649469D
:1007C0002246E31700F0C4FC3032D0B26D1E3A2846
:1007D000019504DB9DF80000A0F151018A187255C3
:1007E000404649462246E31700F0B2FC894680465F
:1007F000D14508BFD04503D0F86871198842DDD3D0
:10080000082C09D197F83800010705D5705D30280C
:1008100002D06D1E30207055C5F13C02BA617119CD
:10082000F960386B8242B4DA821A3A624FF6EF709E
:10083000398F01403987BDE8F3872DE9D04306465B
:100840000F4614464FF00008DFF8389412E0E00736
:1008500007D542464B463046394600F091FD0646E4
:100860000F464046494642464B4600F089FD64101B
:1008700080468946002CEAD130463946BDE8D0830F
:100880002DE9F34F054641F020048DB0D5E90089EC
:10089000612C02AE09D0286B002848BF062003D483
:1008A00008BF672C01D101202863D5E90023580037
:1008B0004015401C0ED119030CD00320A8619DF8EF
:1008C000381061391A2902D20FF2D06111E00FF20B
:1008D000D0610EE059004915491C0FD118030DD104
:1008E0000320A8619DF8381061391A2914D30FF23A
:1008F000B861E868032200F015FED3E1194621F043
:100900000043B3F5801F10460DD20027BB4208BF3D
:10091000BA42019703D111E00FF28861E9E701AA19
:1009200000F054FE0AE0DFF8607307EB1352DFF8C3
:100930005C3301921940DFF858331943C5E90001CF
:10094000612C0ED1E86830210170821CEA609DF8AC
:10095000381061290CBF7821582141706869801CCA
:100960006861D5E900AB2BF0004300202AF00002BB
:10097000834204BF8242002300F05B81612C40F07F
:10098000AA80286B002847BF21210091401C0090BD
:10099000009F7F1C404649460022002300F04EFE87
:1009A000D94601998DF8082038BF89F00049091F00
:1009B000002FD04601910DF1090040F34981B34960
:1009C000DFF8D0B20C91064640464946002200238B
:1009D00000F04CFE80F03B814800400D00F11C020D
:1009E00011D0002A0FDD40F2FF70824205DB09F0D2
:1009F000004040EA0B01002013E00C98014041EA5E
:100A0000025140460DE029F00043002028F000028A
:100A1000834208BF82420FBF40461C22404600F07E
:100A20003DFE8046894600F0D7FEFF1F002F04469A
:100A300009DD00F0EFFE02460B464046494600F055
:100A4000FBFE80468946F01D072104E004F00F02FA
:100A500000F8012D2411002C01DD491EF6D5491E98
:100A60005CBF002200F8012DF9D5ECE0002019460A
:100A700002AA0A4400E05B1E12F80149491E8442A2
:100A8000F9D00F2804D10DF10900425C521C4254E8
:100A9000002904D50198001D02AE5B1C0190591E6F
:100AA00012D49DF838007218A0F13A07147804F1B6
:100AB00030085FFA88F43A2CA8BFB844491E02F8FF
:100AC0000189F3D58DF83800286B002840F1B080FB
:100AD000591E2963ACE0404649460022002300F03D
:100AE000ADFD019938BF89F0004947F29750414365
:100AF000694A91FBF2F20192D2F1070204DD40460D
:100B00004946FFF79AFE0AE0524200206349FFF788
:100B100094FE02460B464046494600F0FFFE8046E2
:100B2000662C286BDFF878B106BF019F0A370627CD
:100B30003F18142FC8BF142730208DF808008946AD
:100B40000DF1090000E03046002F34DD0646404636
:100B5000494601F007F801460A4606F10803042059
:100B60000A26B2FBF6F606EB860EA2EB4E023032F8
:100B700003F8012C0A22B6FBF2F202EB820EA6EB7E
:100B80004E063036401E03F8026DE9D1083F002FB3
:100B900003F10806D7DD084600F0F8FF02460B46D1
:100BA0004046494600F048FE00225B4600F0E8FB64
:100BB00080468946CBE70DF10901401A0DF109067F
:100BC00004E00199491E401E0191761C31783029BC
:100BD000F7D0662C02D10199491C03E0652C0CBFAB
:100BE000012100212B6BCB189842B8BF431E002B6C
:100BF0001ED4834204DAF05C3528A8BF392000DA1D
:100C000030201946721E02EB010800E05B1E18F846
:100C10000199491E8145F9D0392802D1705C401CE8
:100C20007054002904D50198401C16465B1C0190A5
:100C3000019800B200901BB29DF838103246284649
:100C400000F034F82EE0C61D002F3FF7BDAE304651
:100C50000DF10901401A009903468842C8BF0B46AE
:100C6000002B0DF109063FF52FAF8342BFF6FEAE14
:100C70000DF10900C15C07297FF7F8AE0F20F6E6F9
:100C8000CBCCCC0C0000244002FCFFFFFFFF0F8008
:100C90000000E03F0000F07FA08601000000F03F70
:100CA00084D797410FB0BDE8F08F00002DE9FC43D9
:100CB000054683B01F46D5F83080002F164602DC6B
:100CC0005FF00107B9A6894649F02000BDF9304020
:100CD000662808BF641C17D0672840F0888014F18C
:100CE000040FC0F28A80444580F2878095F838006E
:100CF000641C010702D44745B8BFB84620B2B8EB20
:100D0000000848BF4FF000080FFA84F9E868A969A5
:100D1000B9F1000F27DC4A1C30234354B8F1000F0F
:100D200003DC95F83800010703D5E9682E208854C4
:100D3000521C18EB090FB8BFC8F1000424B260427E
:100D40006862A044B845AA61B8BF4746EB68A86985
:100D50003FB2EF613A463146184400F0E3FBA8EB9E
:100D60000700A862C5E022B29742084419DA3A4661
:100D7000314600F0D7FBA8693818A9EB0707B8F18E
:100D8000000FA8616F6203DC95F838100A0705D5DB
:100D9000EA682E211154E869401CE861C5F82880F2
:100DA000A7E0314600F0BEFBA8693F1BB8F1000F79
:100DB000484403DC95F838100A0703D5EA682E2169
:100DC0001154401CA86138B28045EB68A869B8BFCF
:100DD00047463AB206EB0901184400F0A3FBA969A3
:100DE0003FB27918A8EB0707A9616F6281E0B9F1FA
:100DF000610F16D14FF0700918E0474504DA95F8F5
:100E000038100A0758BFB846B8F1010848BF4FF07C
:100E10000008B9F1670F14BF4FF045094FF065099D
:100E200004E0B9F1410F08BF4FF05009A969EB6820
:100E3000481CA861B8F1000F16F8012B5A5403DCC6
:100E400095F838100A0719D5EA68431CAB612E21C2
:100E50001154B8F1000F11DD7F1E38B231468045C4
:100E6000EE68B8BF47463AB2F01800F05BFBA869DD
:100E70003FB23818A861A8EB07006862E868A96962
:100E80000844002C80F8009003D42B224270811C6F
:100E900003E02D2141706442811C00206A460AE073
:100EA00023460A2493FBF4F404EB8406A3EB4603E5
:100EB00002F8013B401C24B2002CF1DC012806DCC6
:100EC00049F02002652A04BF302201F8012B48B9FD
:100ED000302001F8010B07E0401E1DF800303033D0
:100EE00001F8013B0028F7DCEA68A8691044091AF8
:100EF000E96195F8380000F0140010280DD16A69F6
:100F0000A969686A8A18E9698218A86A8A18821821
:100F1000686B8242BCBF821A2A6205B0BDE8F083CA
:100F2000F8B505460E4617461C46002074B117F862
:100F3000011BB068A847B06030B1F06A401CF06295
:100F40000020641EF3D1F2BD4FF0FF30F2BD00006F
:100F50007072696E74665F733A20256E20646973DF
:100F6000616C6C6F776564007072696E74663A20AC
:100F700062616420256E20617267756D656E740014
:100F80007072696E74665F733A20626164202573C3
:100F900020617267756D656E740000006E616E0091
:100FA0004E414E00696E6600494E46003000F0B476
:100FB0000246106895681318506803EB5004C00788
:100FC0001DD54D441BE013F8017B05F8017B491E3C
:100FD000F9D1A0B1B60813F8011B06F00306032EE1
:100FE00008BF13F8016B01EB06214942801C29441C
:100FF00005D011F8016B05F8016B401EF9D1A34231
:101000000ED013F8016B16F0030104BF13F8011B97
:10101000C91C30090F28DAD113F8010B0F30D6E7BD
:10102000F0BC02F10C0070470278C9B28A421AB1D2
:101030001CBF10F8012FF9E718BF0020704730B42B
:10104000002513E050F8042BD30744BFA9F1010396
:101050009A18091F042942F8045BFAD213468C0738
:1010600044BF15809B1CC90748BF1D7050F8041B66
:101070000029E7D130BC704780B500B906A005490A
:101080000B681BB122220021984701E000F08BFD84
:10109000222002BDC8190020636F6E7374726169EB
:1010A0006E742068616E646C65723A2062616420BF
:1010B0006D6573736167650000F10103810704D0FA
:1010C00010F8011B820781B1FAD10268A2F1013147
:1010D000914311F0803104BF50F8042FF6E709BAAC
:1010E000B1FA81F100EBD100401CC01A70470268D0
:1010F000531C036011707047C9B2830706D0521E9B
:1011000022D310F8013B9942F7D11FE0083A13D3DC
:1011100002F1040241EA012141EA014150F8043B95
:10112000121F21BF4B40A3F1013C2CEA030C1CF021
:10113000803FF3D0C9B2001F083210F8013B521EA5
:1011400028BF91EA030FF8D818BF0120401E70474E
:10115000BBBBE1B1B2F5803F80F07E80022A1ED990
:101160008C46B1FBF2F102FB11C31B0443EA1043AE
:10117000B3FBF2FC02FB1C3380B240EA0343B3FB37
:10118000F2F002FB103240EA0C4000237047022AC2
:1011900005D98446B0FBF2F002FB10C270474AB199
:1011A00005D100F0010249085FEA300070470022D3
:1011B0000023704700F0FABC0B0002000021002061
:1011C0007047904271EB030CF6D3B3F5803F2FD2FA
:1011D000F0B5B3FA83F7B1FA81F4A7F10F0E3D1B16
:1011E0005340CEF1200602FA0EF2F3415340B5F11E
:1011F0000F0746D80F3C2C444140C4F12006A040C4
:10120000F1414140B1FBF3F603FB1611A2FB064589
:10121000001BA94102D2761E8018594180EA0102C2
:1012200021FA0EF362FA0EF200215A403046F0BD68
:1012300030B4B1FBF3FC03FB1C11A2FB0C45001BFB
:10124000A94103D2ACF1010C8018594130BC0246CF
:101250000B46604600217047B2F1807F65D3F0B540
:10126000B2FA82F7B1FA81F4C7F10F063D1B22FAF8
:1012700006F307F1110EF24120355A40B5F10F0780
:10128000B8D94140C4F12006A040F1414140B1FB32
:10129000F3FC03FB1C11A2FB0C45001BA94103D26C
:1012A000BCF1010C801859410F2F12D30F3FC90315
:1012B00041EA5041B1FBF3F603FB1611A2FB0645D0
:1012C000D4EBC030A94102D2761E8018594146EABB
:1012D000CC3C07B34140C7F12006B840F141414042
:1012E000B1FBF3F603FB1611A2FB0645001BA94157
:1012F00002D2761E8018594180EA010221FA0EF3CB
:10130000C7F1200462FA0EF20CFA07F05A402CFAE8
:1013100004F13043F0BD80EA010221FA0EF300210E
:1013200062FA0EF260465A40F0BD8C46B1FBF2F113
:1013300002FB11C31B0243EA1063B3FBF2FC02FB86
:101340001C331B024CEA002043EA1063B3FBF2FC9F
:1013500002FB1C331B024CEA002043EA1063B3FB80
:10136000F2FC02FB1C331B024CEA002043EA106330
:10137000B3FBF2FC02FB1C324CEA00200023704756
:10138000B0B581EA030C0CF0004C40F2FF7515EA91
:1013900011541DBF15EA1357AC42AF4239E0E419AE
:1013A00023EA455343F48013C90241F0004141EA66
:1013B000505EC7021100A7FB020200284FF0000098
:1013C000EEFB01204FF00001E3FB072118BF42F0C4
:1013D0000102401800214941E3FB0E01A4F580649D
:1013E0000F0302D252004041494154F101046CDD27
:1013F000470872F1004250F1000051EB0451A1F591
:1014000080115CBF41EA0C01B0BD4CEA05510020DF
:10141000B0BD05EA1357AC4214BFAF4241E050EAF9
:10142000410E1CBF52EA430E02E061460020B0BDEF
:1014300024423C441BD15FEA070EF6D0090302BFE9
:1014400001460020AEF1140EB1FA81F7AEEB0704AD
:1014500001FA07FE0C37C7F1200100FA07F7C84070
:101460004EEA000E23EA455343F48013A2E733F01B
:101470000043B3FA83F704BFB2FA82FE77440B3F0E
:10148000E41BB7F1200E2FBF02FA0EF3BB40C7F1E9
:10149000200E22FA0EFE38BF43EA0E03BA40641C47
:1014A00082E750EA410E14BF52EA430E6FF000018A
:1014B0004FF4001717EB430F8ABF194617EB410F84
:1014C000B5E74CEA05510020B0BDD4F10104B4F1F8
:1014D00020070FDAC4F12007520828BF42F00102AA
:1014E00010FA07F501FA07F7E1BF2A43E040384355
:1014F000E1400FE0352C98DCC7F1200452EA4002AD
:1015000020FA07F218BF42F0010231FA07F0A140B9
:101510000A43002172F1004250F1000051EB0C012E
:10152000B0BD000062B38B0708D0521E11F8013B1A
:1015300000F8013B00F024808B07F6D1830740F0D0
:10154000208000BF103A07D330B4B1E83810103A09
:10155000A0E83810F9D230BC530724BFB1E8081016
:10156000A0E8081044BF51F8043B40F8043BD20700
:1015700024BF31F8022B20F8022B44BF0B780370F4
:101580007047121F17D35B0009D151F8043B20F8B4
:10159000023B1B0C121F20F8023BF6D20BE051F865
:1015A000043B00F8013B1B0A20F8023B1B0C121FF6
:1015B00000F8013BF3D238BF121D521E24BF11F8B0
:1015C000013B00F8013BF8D87047000010B5144605
:1015D00000F002F8226010BDC1F30A5343B14A0083
:1015E00012F5001F28D2A3F2FE32A1EB0251704780
:1015F00050EA410C20D001F0004C31EA0C01B1FA64
:1016000081F204BFB0FA80F3D2180B3AB2F1200392
:101610002CBF00FA03F1914041EA0C013EBFC2F138
:10162000200C20FA0CF319439040524240F2FD3353
:10163000D21A01EB03517047002270474FF4001C8F
:101640001CEB410F94BF1CEB430F09E041EA030C74
:1016500050EA4C0C52EA0C0C03D2994208BF90425B
:10166000704714BF8B428242704700004FF4001C49
:101670001CEB410F94BF1CEB430F09E041EA030C44
:1016800050EA4C0C52EA0C0C03D28B4208BF824247
:10169000704714BF9942904270470000124254D4E0
:1016A00040F2FF7C1CEA11530FD0634531D09B18E8
:1016B00063453CBF01EB0251704701F0004141EA34
:1016C0000C510020AFF30080704750EA410320D056
:1016D00001F0004C91EA0C011CD0B1FA81F30B3BF4
:1016E0009A420DD9D21A994051EA0C01C3F1200C4B
:1016F00020FA0CFC61449840531C40F2FF7CD7E771
:10170000914041EA0C01C2F1200C20FA0CF319437C
:1017100090407047B0FA80F31533202BE0D3202A95
:10172000EED3203A203B9A4209D9D21A00FA03F1AB
:1017300041EA0C010020531C40F2FF7CB8E700FA9C
:1017400002F141EA0C0100207047524240F2FF7C56
:101750001CEA11530DD06345DBD0B2EB030C3CBF48
:10176000A1EB025170470CF1010221EA035141F44F
:10177000801150EA410CCCD001F0004C352A27DC16
:1017800030B481EA0C01B2F1200309DAC2F120037E
:10179000044601FA03F5D0402843D1409C400CE0B8
:1017A000C3F12002450020FA03F418BF44F00104FD
:1017B00021FA03F091400C43002174F1004550F1EF
:1017C000000051EB0C01244230BC7FF47BAF70472A
:1017D0006146002076E70000C1F30A5340F2FE3272
:1017E0009B1A14DDD3F120034FEAE17208DDC90230
:1017F00041EA505141F00040D840801850407047B5
:1018000003F2E13010B1D24382F000407047002073
:1018100070470000C11768B14840401AB0FA80F222
:101820009040D21CC907C2F5846241EA025202EB21
:10183000D02140057047000070B44FF0004591EA98
:10184000030F40F1B5816B40841A71EB030603D29C
:10185000001BB141121973414FF4001C1CEB410FE6
:1018600034BF7CEB430442E00C0DA4EB1356352E41
:101870004FDC45EAC323DB0A45EAC121C912B6F1B0
:1018800020050DDD63FA05F6EB4086EA03051242FA
:1018900018BF45F00105C01851F100010CD213E04A
:1018A00062FA06F5F2405540F3415A40B340F34026
:1018B0005A408018594107D349085FEA30005FEA6F
:1018C000350528BF45F0010501F58011420875F185
:1018D000004250F1000041EB04514E0016F5001F8C
:1018E00070BC38BF70470020090D090570471CEB1C
:1018F000410F10D252EA43060BD0BCEB410F05D882
:101900000C0DAB43661E342EB6DD02E0AB438018EF
:10191000594170BC704770BC70470000F0B540F290
:10192000FF7581EA030C0CF0004C15EA11541DBF41
:1019300015EA1357AC42AF42E5E0BC41C1F31301D5
:10194000C3F31303801A994143F4801304D2641E35
:101950004000494180185941C90241EA5051B1FB48
:10196000F3F603FB1611A2FB0675D7EBC020A941C5
:1019700002D2761E80185941C90241EA5051B1FB8A
:10198000F3FE03FB1E11A2FB0E75D7EBC020A9418D
:1019900003D2AEF1010E80185941890241EA9051FB
:1019A000760546EA8E2EB1FBF3F603FB1611A2FB79
:1019B0000675D7EB8020A94102D2761E80185941C6
:1019C000C90241EA50514EEA060EB1FBF3F603FBA1
:1019D0001611A2FB0675D7EBC020A94102D2761ED4
:1019E00080185941C90241EA5051B1FBF3F703FB9A
:1019F0001711A2FB0735D3EBC020A94167F10007FF
:101A00000CBF004247F0010766F3D5274FEA1E31AD
:101A1000B80814F5806412DDBD0775F1004250EB83
:101A20000E5051EB045111F5801F5CBF41EA0C01CF
:101A3000F0BD4CF07F6141F0E0410020F0BDBD07FA
:101A40006D0840EA0E5041F48011D4F10104B4F164
:101A500020060ADAC4F120060200E04001FA06F38B
:101A6000E1401843B24015430EE0342C13DCC6F1BC
:101A7000200445EA40056D0820FA06F2154321FAD4
:101A800006F0A1400D43002175F1004250F1000025
:101A900051EB0C01F0BD00205FEA0C01F0BDCFB9A5
:101AA00092185B41B3FA83F704BFB2FA82F6BF190A
:101AB0000B3FB7F120062FBF02FA06F3BB40C7F178
:101AC000200622FA06F638BF3343BA401CB1E419A7
:101AD000641E33E77F4231F00041B1FA81F404BF64
:101AE000B0FA80F6A4190B3CB4F120062FBF00FA1F
:101AF00006F1A140C4F1200620FA06F638BF3143B2
:101B0000A0403C1B1AE7AC421ABF05EA1357AF428C
:101B100012E050EA41061CBF52EA4306BFE750EA12
:101B20004107304661461CBF41EA0551F0BD52EA0B
:101B3000430C08BFC143F0BD00204FF4001616EB64
:101B4000410F98BF16EB430F08BF16EB410F24BFA0
:101B5000C14305E016EB430F0CBF61464CEA05514B
:101B6000F0BD0000400D491840EA81200CD2490D1B
:101B7000A1F58061491C40F0004005DBD1F11F0157
:101B800054BFC840C017704700207047014648B195
:101B9000B0FA80F18840C91CC1F58461090501EBE8
:101BA000D02140057047012000F0B8B87047000010
:101BB000841A71EB030604D26E40001BB141121966
:101BC00073414FF4001C1CEB410F34BF7CEB430608
:101BD00083E00C0DA4EB1356362E00F37C80012E0F
:101BE00045EAC32341DC43EA525312BFD2029202B8
:101BF0005B08240545EAC12141EA5051D2EBC020DF
:101C0000994125D407D1B0FA80F610FA06F162D0D6
:101C10000020203608E0B1FA81F6B140C6F120027A
:101C200020FA02F21143B0404FEAF474B4EB465488
:101C300034F001064FEA74040AD8D6F50016760D82
:101C400004F00044F04061FA06F25040F140484090
:101C5000C00A40EA415021F0004128BF5FEA500528
:101C600050F1000044EBD12135E0DB0A45EAC12107
:101C7000C90AB6F120050EDD42EA0242120CC5F196
:101C8000200603FA06F6EB4042EA06056D4298414B
:101C900061F100010DE062FA06F5F240554063FA89
:101CA00006FC82EA0C02F3405A406D42904161EB1F
:101CB000030111F4801F05D1641E620502D06D007E
:101CC0004041494121F48011430875F1004350F12E
:101CD000000041EB045170BC70471CEB410F15D262
:101CE00023F0004352EA43060BD04FEA4C0CBCEB06
:101CF000410F04D80C0D661E342EB7DDEBE7801AB9
:101D0000994150EA410608BF0021E4E708BF1CEBF7
:101D1000430F28BF6FF00001DDE7000080B5AFF38F
:101D20000080024A11001820ABBEFBE7260002002B
:101D3000F8B5040000F070F9002806D1032000F087
:101D400095FE042000F09CFE4BE0002006280FD2F8
:101D50000C2101FB00F1214491EC030ADFF8F81B90
:101D6000302202FB00F2114481EC030A401CEDE733
:101D700000F00EFC002805D1032000F077FE0420BF
:101D800000F07EFE00F004FF0025062D25D230264F
:101D9000DFF8C47B06FB05F0384490ED030A03200E
:101DA00000FB05F000F005FF06FB05F0384490ED60
:101DB000060A032000FB05F0401C00F0FAFE06FBBB
:101DC00005F607EB060090ED090A032000FB05F07D
:101DD000801C00F0EEFE6D1CD7E70120DFF87C1BB5
:101DE0000870F1BD38B50400DFF8745B28002100ED
:101DF000B022FFF7A7FB95F8AC00002813D0002015
:101E0000062810D20C2101FB00F129445431DFF8DF
:101E1000482B302303FB00F31A4492EC030A81ECB5
:101E2000030A401CECE7DFF83C1B0878002809D1C6
:101E3000DFF8340BD0E90023DFF8300BC0E90023D2
:101E40000120087031BDDFF8240B01210160002161
:101E500041600020DFF80C1B08707047DFF8082B8A
:101E60001060516070470000F8B52DED028B042022
:101E700000F019FE012800F0BD809FED668ADFF8B2
:101E8000DC4A2078012806D0C0F0AE80032800F09C
:101E9000918029D3A8E0DFF8D85ADFF8D86AD6E9CC
:101EA0000001D5E90023994201D190421BD0D6E927
:101EB0000001D5E90023801A994100290DD301D8EA
:101EC00002280AD3D5E9000100220023994201D15A
:101ED000904202D0102000F0C9FDD6E90001C5E90A
:101EE00000010220207085E0DFF8740AD0F89C1011
:101EF000D0F8A020914202DB012020707AE090ED22
:101F0000270AB8EEC00ADFEDC50A80EE200AB0EE5F
:101F1000408AB0EE480A00F083F9002806D120205C
:101F200000F0A4FD042000F0ABFD63E0B0EE480A31
:101F300000F0D4F9002806D1202000F097FD0420FD
:101F400000F09EFD56E000F023FB002806D1202083
:101F500000F08CFD042000F093FD4BE00025062DE1
:101F600025D23026DFF8F07906FB05F0384490EDF5
:101F7000030A032000FB05F000F01BFE06FB05F042
:101F8000384490ED060A032000FB05F0401C00F0E9
:101F900010FE06FB05F607EB060090ED090A03208C
:101FA00000FB05F0801C00F004FE6D1CD7E7032049
:101FB00020701FE0DFF8A819D1F89C20D1F8A80004
:101FC0008218C1F89C20D1F89C00D1F8A410884256
:101FD00007D1DFF89409D0E90023DFF89009C0E9C0
:101FE00000230120207005E0012000F03FFD0420C7
:101FF00000F046FDBDEC028BF1BDDFF86409D0F8BE
:102000009C10D0F8A000814201DB012000E00020FC
:10201000C0B27047000000002DE9F0414FF4807419
:102020000025062D29D23026DFF82C7906FB05F095
:10203000384410F11001200001F0ABF8002801D164
:102040000020E8E006FB05F0384410F11C01A01C5C
:1020500001F09FF8002801D10020DCE006FB05F626
:1020600007EB060010F12801201D01F092F800286E
:1020700001D10020CFE06D1CD3E70025062D4CD206
:102080003026DFF8D47806FB05F0384410F1120151
:1020900014EB4500103001F07CF8002801D100203D
:1020A000B9E006FB05F0384410F11E0114F11C00E4
:1020B00001F06FF8002801D10020ACE006FB05F02C
:1020C000384410F12A0114F11E0001F062F80028D2
:1020D00001D100209FE040F2691806FB05F038446A
:1020E000B0F9120001F0AEFB404512DA06FB05F034
:1020F0003844B0F91E0001F0A5FB404509DA06FBA3
:1021000005F607EB0600B0F92A0001F09BFB4045FD
:1021100001DB00207FE06D1CB0E70025062D79D2A1
:102120003026DFF8347806FB05F0384410F114014E
:1021300014F1500001F02DF8002801D100206AE0D0
:1021400006FB05F0384410F1160114F1520001F0BD
:1021500020F8002801D100205DE006FB05F038449E
:1021600010F1200114F1540001F013F8002801D1FE
:10217000002050E006FB05F0384410F1220114F174
:10218000560001F006F8002801D1002043E006FBCC
:1021900005F0384410F12C0114F1580000F0F9FF5B
:1021A000002801D1002036E006FB05F0384410F18C
:1021B0002E0114F15A0000F0ECFF002801D100209C
:1021C00029E006FB05F03844B0F9140006FB05F1E0
:1021D0003944B1F91610884218DA06FB05F0384484
:1021E000B0F9200006FB05F13944B1F9221088420C
:1021F0000CDA06FB05F03844B0F92C0006FB05F6B6
:1022000007EB0601B1F92E10884201DB002002E045
:102210006D1C83E70120BDE8F081000000007A44D6
:102220000021062957D2DFF8382702EB010090F889
:10223000480000284DD1F0EE400A02EB010090F971
:102240004E0010F1010F03D1B7EE001A71EE600AD3
:102250000C2000FB01F3134493ED151A00FB01F36E
:102260001344D3ED161A00FB01F3134493ED172A20
:1022700000FB01F31344D3ED002A00FB01F31344E8
:1022800093ED013A00FB01F01044D0ED023A30200A
:10229000DFF8C42632EEC14AF0EE414A44EE204A4D
:1022A00000FB01F31344C3ED004A33EE614AF0EE44
:1022B000614A44EE204A00FB01F31344C3ED014A96
:1022C00073EEC23A03EEA02A00FB01F0104480ED49
:1022D000022A491CA5E70120704700002DE9F843B8
:1022E0002DED0A8B8CB0B0EE408A00240020062829
:1022F00011D2DFF86C1601EB000292F84820012A97
:1023000004D0014491F84810022902D101210C00A7
:1023100001E0401CEBE72000C0B2002801D1012001
:1023200022E1DFF8481691ED000AB8EEC00ADFEDB1
:10233000910AC0EE208A0868002803D19FED8E0A1A
:10234000F0EE408A0868B0F5FA6F03DB9FED8B0A68
:10235000F0EE408A0868DFF82026904203DA9FED0D
:10236000880AF0EE408A91ED010AB8EEC09ADFEDDE
:10237000CA9AB0EE000A30EE680A20EE290AF1EEA1
:10238000000A80EE200A01F061FA20EE09AA06A8F0
:10239000182101F035FB6846182101F031FBDFED13
:1023A00079AA0025062D43D2DFF8B40500EB05011C
:1023B00091F84810012905D000EB050191F848106B
:1023C000022933D10C2101FB05F2024492ED15BA2A
:1023D00001FB05F10844D0ED17BA06AE3AEE4B0A00
:1023E0007AEE4B0A20EE200A0BEEAB0A01F00CFB52
:1023F00006EB850080ED000A06EB850090ED000AF3
:10240000F4EE40AAF1EE10FA05D506EB850090ED4A
:10241000000AF0EE40AA7BEE4A0AB0EE6B0A01F029
:1024200003FB684600EB850080ED000A6D1CB9E7F0
:10243000F5EE40AAF1EE10FA01D1002094E0B5EEDD
:1024400040AAF1EE10FA02DB9FED4FBA01E09FEDDA
:102450004FBAB8EECB0A20EE090AC0EE2ABA002520
:10246000062D80F08080DFF8F86406EB050090F818
:102470004800012805D006EB050090F84800022826
:102480006FD1B0EE48CA06EB050090F94E0010F18E
:10249000010F03D1B7EE000A30EE4CCABEEE000ABF
:1024A0003CEE000A684600EB8500D0ED00CA40EE25
:1024B0002BCA3027DFF8A0840DF11809B0EE6C0AA2
:1024C00001F0D4FB09EB8500D0ED000AB0EE4A1A0A
:1024D00000EE801A07FB05F0404480ED001AB0EED4
:1024E0006C0A01F0C5FB09EB8500D0ED000A20EE77
:1024F000800A07FB05F0404480ED020A06EB050068
:1025000090F8480001280AD107FB05F708EB0700FF
:102510000C2101FB05F13144896D416021E006EB9E
:10252000050090F8480002281BD107FB05F0404445
:102530000C2101FB05F13144896D41602CEE290A23
:1025400001F096FBF3EE090A07FB05F0404490ED1D
:10255000011A00EE201A07FB05F708EB070080EDD3
:10256000011A6D1C7CE701200CB0BDEC0A8BBDE8A4
:10257000F283000000007A446F12833A3BDFFF3F92
:102580003BDFFFBF0000000001000000FFFFFFFF76
:1025900070B52DED108B86B00024062C80F0D28112
:1025A0003025ED4E05FB04F03044B0F9120000EE8A
:1025B000100AB8EEC08A05FB04F03044B0F91E00E2
:1025C00000EE100AB8EEC00A8DED050A05FB04F016
:1025D0003044B0F92A0000EE100AF8EEC0FA05FB0C
:1025E00004F03044008A00EE100AF8EE408A05FB41
:1025F00004F03044808B00EE100AB8EE409A05FBE0
:1026000004F03044008D00EE100AF8EE409A05FB0D
:1026100004F03058029005FB04F030444068049008
:1026200005FB04F03044806801909FED1B0A28EE02
:10263000000ADFEDC70A80EE20AAB0EE4A0A01F0D8
:1026400015FBDDED020A20EE80DAB0EE4A0A01F059
:102650000FFBDDED010A00EE80DA04980090B0EE89
:102660004A0A01F005FBDDED020AF1EE600A60EEB8
:1026700080AAB0EE4A0A01F0F9FADDED010A40EE57
:1026800080AAF0EE4D0AB0EE6A0A01F0CDF9B0EE84
:1026900040BA9FEDAFCA01E0DB0F49402BEE0C0AB8
:1026A000DFEDAC0A80EE200A05FB04F0304480ED3B
:1026B000030AB0EE4B0A01F0D9FA6DEE00BAB0EEA3
:1026C0004B0A01F0D5FA4AEE80BA7BEEE8BAF0EE9A
:1026D0006B0A9DED000A01F0A7F9F0EE40CA2BEE5F
:1026E000AB0ADDED000A9DED001A00EE810A10EE46
:1026F000100A01F0BFFA41EC100B01F0DFFA51ECC7
:10270000100B01F05DFB039039EE290ADDED030AA1
:10271000B4EE600AF1EE10FA01D5002013E1B0EE3C
:1027200069DAF0EE49DA9DED03EAF0EE00EA2DEE0B
:10273000AD0A0EEE0E0A0DEE4D0A6DEEAE0A60EE1B
:102740008E0A80EE200A01F06FFBB0EE40FA2DEE0B
:102750000D0A0DEEAD0A0EEE4E0A6DEE2E0A60EE7B
:10276000AD0A80EE200A01F05FFB6FEE0C0A9FEDD0
:10277000791AC0EE810A9DED051A71EE600A2CEE01
:102780008C1ADFED741A81EE211A70EEC10A05FB76
:1027900004F03044C0ED060A60EE0C0A9FED6D1A9D
:1027A000C0EE810A70EEEF0A05FB04F03044C0ED84
:1027B000090A05FB04F03044B0F9140000EE900A59
:1027C000F8EEE00A05FB04F0304490ED031AB4EE95
:1027D000601AF1EE10FA0DD505FB04F03044B0F9A3
:1027E000140000EE900AF8EEE00A05FB04F0304415
:1027F000C0ED030A05FB04F03044B0F9160000EE0A
:10280000900AF8EEE00A05FB04F0304490ED031A5C
:10281000F4EE410AF1EE10FA0DD505FB04F0304458
:10282000B0F9160000EE900AF8EEE00A05FB04F09D
:102830003044C0ED030A05FB04F03044B0F9200039
:1028400000EE900AF8EEE00A05FB04F0304490ED4B
:10285000061AB4EE601AF1EE10FA0DD505FB04F07D
:102860003044B0F9200000EE900AF8EEE00A05FBD3
:1028700004F03044C0ED060A05FB04F03044B0F922
:10288000220000EE900AF8EEE00A05FB04F0304466
:1028900090ED061AF4EE410AF1EE10FA0DD505FBA3
:1028A00004F03044B0F9220000EE900AF8EEE00A9D
:1028B00005FB04F03044C0ED060A05FB04F030448B
:1028C000B0F92C0000EE900AF8EEE00A05FB04F0E7
:1028D000304490ED091AB4EE601AF1EE10FA0DD5FD
:1028E00005FB04F03044B0F92C0000EE900AF8EE3D
:1028F000E00A05FB04F03044C0ED090A05FB04F0D2
:102900003044B0F92E0000EE900AF8EEE00A05FB24
:1029100004F0304490ED091AF4EE410AF1EE10FA99
:102920000ED505FB04F03044B0F92E0000EE900AFD
:10293000F8EEE00A05FB04F506EB0500C0ED090A18
:10294000641C2AE6012006B0BDEC108B70BD0000AF
:1029500000003443DB0F494098150020DA190020AD
:1029600090180020DB190020601900205819002061
:10297000681900204015002031F8FFFF80B50020C5
:102980007A49087000207A49087001F07FFA012026
:102990007849087001BD10B5102000F084F80128B6
:1029A00006D10020744908700020744908805CE05A
:1029B000704C2078012807D051D3032810D008D3B9
:1029C00005283DD028D34AE001F0C3FA0220207048
:1029D0004BE001F0C7FA012801D10320207044E048
:1029E000002001F0C5FA66490A6812FA80F0086012
:1029F00064480168491C01600168642904D300210E
:102A000001600420207006E001F007FB5E4AC2E985
:102A100000010520207028E000F04EF80020584901
:102A2000086055480078002802D1082000F01EF800
:102A300001F0F3FA544AC2E900010520207014E0C5
:102A400001F0EBFA504AD2E90023801A994100299B
:102A500004D301D8062801D30120207005E001200D
:102A600000F004F8102000F00BF810BD3F490A7880
:102A700002430A7070473D490A7882430A707047E2
:102A80003B490A7802430A70704739490A78824301
:102A90000A70704735490978014201D0012000E0F1
:102AA0000020C0B2704732490978014201D00120AC
:102AB00000E00020C0B27047DFED240A9FED241A29
:102AC0002F4800686421B0FBF1F001EE900AB8EEE7
:102AD000610A20EE012A22EE200AFCEEC02A2749D4
:102AE00012EE900A08800A882848B0F9000082187F
:102AF0000A80088800EE100AB8EE400A9FED153AE9
:102B000030EE030A9FED143A80EE030A9FED133A6C
:102B100020EE030AB5EE400AF1EE10FA03D59FED60
:102B2000103AB0EE430A9FED0F3AB4EE430AF1EECD
:102B300010FA03DB9FED0C3AB0EE430ABDEEC03A4B
:102B400013EE100A0C49087070470000D9E47B4569
:102B50003333533A00A00CC6000061450000C84260
:102B6000000000000100C6420000C642E319002038
:102B7000E4190020E2190020E5190020CE190020F8
:102B8000B8190020BC19002080190020D8000020AE
:102B900080B500F06AF9002806D10320FFF766FF30
:102BA0000220FFF76DFF03E001F060FA01F0C3FAC5
:102BB00001BD10B52DED028B0400B0EE408A122C41
:102BC00006D30120FFF752FF0220FFF759FF07E06D
:102BD000DFF8C403142101FB04F1084480ED008AEE
:102BE000BDEC028B10BD80B501F0B5FA1E2001F0DE
:102BF00018FA01BD2DE9F8430220FFF754FF012820
:102C000002D101F0A8FA63E0DFF89043DFF89053B7
:102C1000D5E90001D4E90023994201D1904257D06F
:102C2000D5E90001D4E90023801A9941002905D390
:102C300001D8022802D31020FFF718FF002001F06E
:102C40008FFA0026122E3CD2DFF84C03142101FB30
:102C500006F100EB0107387B012805D197ED040A46
:102C6000B8EEC00A87ED000ADFF838835FF00C0980
:102C700009FB06F0404497ED000A00F03FF987EDAC
:102C8000010A387B022805D197ED040AB8EEC00A84
:102C900087ED010A09FB06F0404497ED010A00F0B8
:102CA0009DF9B860387B032801D13869B860B968EC
:102CB00009FB06F908EB0900407801F055FA761C8B
:102CC000C0E7002001F04CFAD5E90001C4E9000199
:102CD000BDE8F1832DE9FE4305000E0014001F003E
:102CE000002C05D1B049380001F0DAFA0020BAE032
:102CF000300001F088FB8046B8F1130F06D342463E
:102D0000AA49380001F0AEFB0020ACE0A248142133
:102D100001FB08F100EB0109A549280001F0C2FB05
:102D2000002819D1012C17D1D9F80800029099ED8B
:102D3000010ABDEEC00A8DED010A99ED000ABDEE53
:102D4000C00A8DED000AD9F8103099F80C20994985
:102D5000380001F087FB85E08DA1280001F0A2FB7F
:102D6000002844D1032C42D1934916F1400001F0D0
:102D700099FB002809D1012089F80C0016F1800088
:102D800001F041FBC9F8100029E08C4916F1400020
:102D900001F088FB002809D1022089F80C0016F107
:102DA000800001F030FBC9F8100018E0844916F1EA
:102DB000400001F077FB002809D1032089F80C00BE
:102DC00016F1800001F01FFBC9F8100007E016F1B2
:102DD00040027C49380001F045FB002043E099F8AF
:102DE0000C3042467849380001F03CFB3AE0774924
:102DF000280001F057FB002817D1012C15D1022023
:102E000089F80C0067480C2101FB08F108449FED8C
:102E1000610A00F073F8BDEEC00A89ED040A42466B
:102E20006B49380001F01EFB1CE06A49280001F0E4
:102E300039FB00280FD1012C0DD1002089F80C009E
:102E40000020C9F8100099F80C3042465E4938005D
:102E500001F008FB06E02A005F49380001F002FBA0
:102E6000002000E00120BDE8FE83F8B50024122C0C
:102E700041D24C480C2101FB04F100EB0105E600B6
:102E800016F500762900300000F07AF9002801D10B
:102E9000002031E02878FF2801D100202CE02F7895
:102EA000FFB23F093800C0B2002811D18720A880A6
:102EB0004FF4FA70E88040F6C41028814FF4877010
:102EC0006881691C701C00F05BF9002804D101E0E6
:102ED000002011E000200FE06878122801DB0020BC
:102EE0000AE0A91CB01C00F054F9002801D1002010
:102EF00002E0641CBBE70120F2BD000010B52DED1F
:102F0000028BB0EE408A04009FED220A2078C007B1
:102F10000FD5A08800EE900AF8EE600AB4F902001E
:102F200001EE100AB8EEC11A31EE081A70EEC18A2D
:102F30000EE0A08800EE900AF8EE600AB4F90200F4
:102F400001EE100AB8EEC11A31EE081A70EE818A4D
:102F5000F5EE408AF1EE10FA09D4608900EE100A0D
:102F6000B8EE400AB4EE680AF1EE10FA0BD5202054
:102F7000FFF77CFD0220FFF783FDA08800EE100A1A
:102F8000B8EE400A01E0B0EE680ABDEC028B10BD5D
:102F90007365740000000000FC1200207819002006
:102FA00040150020B8170020D0E8000848E70008C6
:102FB000FCEB000898E4000804EC00080CEC0008A6
:102FC00014EC000828E8000854E800081CEC00088D
:102FD00000EA000824EC0008D0E6000810B52DED4A
:102FE000048BB0EE408A04002189E088091A00EEC3
:102FF000101AB8EEC00A608900EE900AF8EE600A76
:1030000080EE209AE08800EE100AF8EE408A48EE42
:10301000098AE08800EE100AB8EE400AF4EE408A11
:10302000F1EE10FA09D4208900EE100AB8EE400A39
:10303000B4EE680AF1EE10FA16D52020FFF716FD5F
:103040000220FFF71DFD2189E088091A00EE101A01
:10305000B8EEC00AB4EE680AF1EE10FA01D501200C
:1030600000E00020E08803E0BCEEE80A10EE100A61
:10307000BDEC048B10BD000080B5DFF8980601F0B0
:1030800037FA01BD2DE9F84305000E0014002700B2
:103090004FF0FF08B14642463900484601F0C6FBF2
:1030A0000120FFF700FD012801D100202BE060196D
:1030B00040F20131884207D30120FFF7D7FC0120FD
:1030C000FFF7DEFC00201EE0002C1BD0802C01D27C
:1030D000270000E080273800C0B2009033000222B1
:1030E0002900A02001F064FA002807D14520FFF74D
:1030F000BDFC0120FFF7C4FC002004E0E41B6519BF
:103100002644E1E70120BDE8F283F8B505000E0092
:1031100014000120FFF7C7FC012801D100202EE098
:10312000601940F20131884207D30120FFF79EFC6D
:103130000120FFF7A5FC002021E0002C1ED0202C50
:1031400001D2270000E020273800C0B200903300F1
:1031500002222900A02001F094FA002807D145207E
:10316000FFF784FC0120FFF78BFC002007E00A201A
:1031700000F057FFE41B65192644DEE70120F2BD8D
:1031800038B504000D00012229002000FFF77AFF66
:1031900032BD38B504000D00022229002000FFF7DF
:1031A00071FF32BD38B504000D0004222900200053
:1031B000FFF768FF32BD13B50400012201A920000A
:1031C000FFF7A3FF16BD13B50400022201A92000DA
:1031D000FFF79BFF16BD13B50400042201A92000D0
:1031E000FFF793FF16BD2DE9F04F8FB005000E00DD
:1031F00014001F00DFF82015280001F053F9002803
:1032000003D10120FFF741FC7FE2DFF81015280011
:1032100001F048F900287AD1012C78D1300001F072
:10322000F2F88046B8F1030F06D3DFF8F414380043
:1032300001F036F8002069E2DFF8E8944FF480727C
:1032400049464FF4807000FB08F0FFF71BFF002891
:1032500006D1DFF8D414380001F022F8002055E23E
:10326000DFF8C814380001F0FDF807445FF0000AE9
:10327000BAF5807F80F0498209EB0A00C07B0E908E
:1032800009EB0A00807B0D9009EB0A00407B0C9053
:1032900009EB0A00007B0B9009EB0A00C07A0A9048
:1032A00009EB0A00807A099009EB0A00407A08903D
:1032B00009EB0A00007A079009EB0A00C079069032
:1032C00009EB0A008079059009EB0A004079049027
:1032D00009EB0A000079039009EB0A00C07802901C
:1032E00009EB0A008078019009EB0A004078009011
:1032F00019F80A304FF4807202FB08A2DFF830148C
:10330000380001F0AFF807441AF1100AB0E7DFF80F
:103310002414280001F0C6F800286FD1012C6DD1CB
:10332000300001F070F88046B8F1030F06D3DFF8E3
:10333000F013380000F0B4FF0020E7E1DFF8E49379
:103340004FF4807249464FF4807000FB08F0FFF79D
:1033500099FE002806D1DFF8D013380000F0A0FF56
:103360000020D3E15FF0000ABAF5807F80F0CD81C4
:1033700009EB0A00C07B0D9009EB0A00807B0C90E2
:1033800009EB0A00407B0B9009EB0A00007B0A90D6
:1033900009EB0A00C07A099009EB0A00807A0890CC
:1033A00009EB0A00407A079009EB0A00007A0690C0
:1033B00009EB0A00C079059009EB0A0080790490B6
:1033C00009EB0A004079039009EB0A0000790290AA
:1033D00009EB0A00C078019009EB0A0080780090A0
:1033E00009EB0A00437819F80A20DFF84C1338007B
:1033F00001F038F807441AF1100AB5E7DFF83C137A
:10340000280001F04FF8002835D1022C33D11022CA
:103410000021300001F07CFA804640F20130804506
:1034200007D34246DFF81813380001F01BF80020DC
:103430006CE10020ADF8000069464046FFF7A9FEA8
:10344000002805D1B849380000F02AFF00205DE1CE
:1034500096F84000732807D1BDF9002012B2B9498F
:10346000380000F0FFFF50E1BDF80020B5493800FA
:1034700000F0F8FF49E1B449280001F013F80028F2
:1034800030D1022C2ED110220021300001F040FA60
:10349000804640F20130804506D34246A8493800B4
:1034A00000F0E0FF002031E10020029002A9404638
:1034B000FFF778FE002805D1A449380000F0F0FE9F
:1034C000002023E196F84000732805D1029A9D4917
:1034D000380000F0C7FF18E1029A9D49380000F05B
:1034E000C1FF12E19B49280000F0DCFF002852D107
:1034F000022C50D110220021300001F009FA804640
:1035000040F20130804506D342468D49380000F034
:10351000A9FF0020FAE016F14000FDF7CDFD039071
:103520000398C00707D516F140028B49380000F018
:1035300099FF0020EAE003984008049001A80021C8
:10354000016016F140095FF0000A0498824580F09E
:10355000DC8099F800008DF8040099F801008DF8DE
:10356000050019F102091022002101A801F0D0F98B
:1035700083465946C9B24046FFF71DFE002805D1D3
:103580007649380000F08CFE0020BFE01AF1010AF5
:1035900018F10108D9E77249280000F083FF0028DC
:1035A00025D1022C23D110220021300001F0B0F9E6
:1035B000804640F20130804506D3424660493800DB
:1035C00000F050FF0020A1E016F1400000F01BFFCA
:1035D0008146494689B24046FFF7F5FD002840F094
:1035E00094805E49380000F05BFE00208EE05D496B
:1035F000280000F057FF002823D1022C21D11022EF
:103600000021300001F084F9804640F2013080450D
:1036100006D342464A49380000F024FF002075E0F6
:1036200016F1400000F0EFFE814649464046FFF7A4
:10363000D2FD002869D14949380000F031FE002050
:1036400064E04949280000F02DFF00280BD1002C30
:1036500009D100F0D7F8002857D14049380000F0D0
:103660001FFE002052E04149280000F01BFF002807
:1036700015D1012C13D1300000F0C5FE8046B8F101
:10368000030F01D3002041E0404600F098F80028E5
:103690003BD13749380000F003FE002036E03549C1
:1036A000280000F0FFFE002828D1012C26D1300090
:1036B00000F0A9FE8046B8F1030F01D3002025E0F9
:1036C0000020039003A9404600F058F8002805D1D7
:1036D0001549380000F0E4FD002017E003994FF48D
:1036E000807000FB08F0FC30FFF775FD00280CD15E
:1036F0001A49380000F0D4FD002007E02A001E49D6
:10370000380000F0AFFE002000E001200FB0BDE85F
:10371000F08F00000903310084EB00088CEB0008F7
:1037200020E90008B8160020D0E700088CE6000861
:10373000DCE5000814EB000840E6000894EB000804
:1037400080E8000880EA00089CEB0008A8E8000870
:1037500094EA0008A4EB000844E90008FCE700082C
:10376000ACEB0008B4EB0008BCEB0008C4EB0008AD
:1037700050EA0008B8EA000810E70008F8B50400AD
:103780000D00002028604FF4807606FB04F6002729
:10379000FC2F12D200208DF800006946F019FFF7C7
:1037A000EFFC002801D1002008E028689DF80010F7
:1037B00050FA81F028607F1CEAE70120F2BD1CB5B9
:1037C00004000020019001A92000FFF7D7FF002886
:1037D00001D1002015E00020009069464FF4807070
:1037E00000FB04F0FC30FFF7DDFC002801D10020D5
:1037F00007E001980099884201D1012000E00020F3
:10380000C0B216BD70B588B06846202100F0F8F847
:103810002025FF266C4632002900200001F006F822
:103820000024B4F5407F0AD2202269462000FFF729
:103830006CFC002801D1002002E02034F1E70120D7
:1038400008B070BD002848BF40427047DFED5F0AF6
:1038500060EE200A10EE900A20F0004001EE100AFF
:10386000DFED5B1AB4EE611AF1EE10FA27D510EE17
:10387000901A4FF07C5001F00041084301EE100A0D
:1038800070EE810AFDEEE00A10EE900A00286AD080
:10389000FAEEC90A9FED4F1A00EEC10ADFED4E1A8B
:1038A00000EEE10A9FED4D2A00EEC20ADFED4C2A40
:1038B00000EEE20A9FED4B1A00EEC10A53E010EE53
:1038C000100A40000016401C0AD110EE101A4900E0
:1038D0000816401C01D1090276D19FED430A7047BA
:1038E00010EE100A40006FD010EE901A4FF07C508E
:1038F00001F00041084301EE100A70EE810A10EE5B
:10390000901A48000FD0000EC0F196001828A8BFEA
:1039100001F0004105DA0128A4BF21FA00F202FA01
:1039200000F100EE901A10EE900A400017D09FEDC3
:103930002F1A20EE811ADFED271A01EE610A9FEDA2
:10394000262A01EE420ADFED252A01EE620A9FEDEA
:10395000243A01EE430ADFED231A01EE610AFDEE7F
:10396000E00A10EE900A10EE101A21F0004100EE6D
:10397000901A9FED1F1AF4EE410A00F00300F1EED9
:1039800010FA00F0010005D5F0B1FFEE000A80EE5C
:10399000800A704720EE001ADFED161A9FED162AF6
:1039A00001EE212AF7EE000A42EE010A20EE011A8A
:1039B000DFED122A01EE220A20B180EE800AB1EE7C
:1039C000400A704780EE200A704700BF83F9223F0B
:1039D0000000004F0000C94600A0FD400020A23AB0
:1039E000000034330030C22EFFFFFF7F000080381C
:1039F000000080396D161F3C1EB5DBBE8329C4BD97
:103A0000002200F087BF0000B5EEC00AF1EE10FA08
:103A100002D4B1EEC00A70476FF0004C00EE10CA3D
:103A2000AFF300807047000052EC101AB0EEC00AED
:103A3000C80F49005200F0EEE00A28BF0C3011F127
:103A4000807F38BF12F1807F0CD28A4238BF80F06D
:103A50000400124214D034BF80EE800A80EE200AA7
:103A600000F072BF11F1807F08BF80F0040098BFA2
:103A700012F1807F08D88A4214BF00224FF07E5294
:103A800000EE102A00F060BF6FF0004100EE101A47
:103A900070470000DFED650A60EE200A10EE901A14
:103AA00021F0004101EE101ADFED611AB4EE611A47
:103AB000F1EE10FA27D510EE902A4FF07C5102F06B
:103AC0000042114301EE101A70EE810AFDEEE00A89
:103AD00010EE901A00296ED0FAEEC90A9FED551A21
:103AE00000EEC10ADFED541A00EEE10A9FED532A01
:103AF00000EEC20ADFED522A00EEE20A9FED511AF3
:103B000000EEC10A57E010EE101A49000916491CD0
:103B100010EE101A09D149000816401C02D1090202
:103B200040F083809FED480A7047490004D1002887
:103B30007BD0B7EE000A704710EE902A4FF07C5110
:103B400002F00042114301EE101A70EE810A10EEED
:103B5000902A51000FD0090EC1F196011829A8BF73
:103B600002F0004205DA0129A4BF22FA01F303FAA8
:103B700001F200EE902A10EE901A490017D09FED46
:103B8000331A20EE811ADFED2B1A01EE610A9FED48
:103B90002A2A01EE420ADFED292A01EE620A9FED90
:103BA000283A01EE430ADFED271A01EE610AFDEE25
:103BB000E00A10EE901A10EE102A22F0004200EEF9
:103BC000902A9FED231A01F00301F4EE410A081830
:103BD000F1EE10FA00F0010103D511B3B7EE000ABF
:103BE0001FE060EE000A71B19FED1A0A9FED1A1AEC
:103BF00000EE801ADFED191A41EE201AB7EE000A26
:103C000001EEA00A0DE09FED162ADFED161A40EE38
:103C1000821ADFED152A20EE201A41EEA02A01EECD
:103C2000220A800748BFB1EE400A704783F9223F5D
:103C30000000004F0000C94600A0FD400020A23A4D
:103C4000000034330030C22EFFFFFF7F00008038B9
:103C5000000080399349B2BA36A02A3DDFFFFFBE8B
:103C60006E8C4CB94283083CA1AA2ABE012011E700
:103C700000200FE7C0F3C75181B1FF2906D0C11062
:103C8000400721F0E04101F16051704741020CBF53
:103C900040F4E0016FF000410020704700F0004167
:103CA00000020AD0B0FA80FC00FA0CF001F1605179
:103CB000A1EB0C5101EBD0214005704751EC100BEA
:103CC00000B500F003F841EC100B00BD40F2FF7CA2
:103CD0000B0D4DD0634566D230B421EA035141F457
:103CE000801103F2FD3C5FEA5C0C01D300184941EE
:103CF000890041EA907180004FF440140023E202F1
:103D0000D50AB1F5100107D46D081DD2091B64193D
:103D100000184941491BF7D56D080AD20919641BDF
:103D200000184941491BEFD56D08F7D301E052084F
:103D300017D0C01861419B1AAC4100184941801A44
:103D4000A941F4D452080AD0C01AA1419B186C4171
:103D500000184941801AA941E9D45208F4D15B1CEA
:103D60006C4161084FEA330001EB0C5130BC7047E5
:103D700050EA0103FBD030B4B1FA81F311B9B0FAC3
:103D800080F41B190B3BB3F120042FBF00FA04F1A0
:103D90009940C3F1200420FA04F438BF214398402D
:103DA000D3F101039DE7634514BF50EA410CDEE700
:103DB00011F5801FDBD8D943AFF3008070470000B6
:103DC00001F000428B1AA3F16051B1F5801F0ADBAC
:103DD000B1F17F6F1FD242EAC102C10071F100410F
:103DE00042EB507070470B15C3F10903212B10D221
:103DF000890241EA905180020128494141F0004185
:103E000021FA03F0C3F12003994071F100415041C0
:103E10007047100070476FF0000013EB103F5CBF5D
:103E2000000E42EAC050704710EE101A04204FF006
:103E30007E5201EE902A490088BF0820490800EE12
:103E4000101A914214D871EEC00A0F4A31EE801A4E
:103E5000914261EE200AF1EEE00A05D980F00400FB
:103E600080EE800A00F070BD80EE200A00F06CBD8C
:103E7000490011F1807F9CBF6FF0004100EE101AE5
:103E8000AFF3008070470000F404353F10B53D48A3
:103E9000016851F0C00101603B48016851F0C00168
:103EA00001603A48016831F0C0010160384801689A
:103EB0004908490001604FF4B46101603549364A50
:103EC00011603649364A11600121364A1160016895
:103ED00051F0010101603448016851F40071016042
:103EE000016831F4007101604FF480702F4908605F
:103EF0002F4C304820604FF460602F49086000204C
:103F00002E4908600D202E490860206850F00100FD
:103F100020602068C007FCD50A2000F082F82068E5
:103F200050F00800206020680007FCD4206850F0A2
:103F30000400206020684007FCD400240A2C07D22B
:103F400000F007F800F00EF80028FBD0641CF5E73D
:103F500010BD01201B4908601548016851F480011B
:103F60000160704718480068400810F00100704771
:103F70000100022901D3002002E0084830F81100B6
:103F80007047000000080048080800480C08004876
:103F9000080002404C24014010000240CC190020CF
:103FA000140002400C0002400C10024004240140A6
:103FB0000824014000011E000C2401402C24014073
:103FC000342401400400024000000240010049B2D4
:103FD000002909D4012210F01F018A401D49030065
:103FE0005BB25B0941F82320704780B500200021B7
:103FF000194AC2E900010020184908601848194907
:104000000860194807210160016851F00101016051
:104010005FF0FF30FFF7DAFF01BD0F48D0E9000184
:104020007047D8B40C4CD4E90023D4E90067B61A21
:104030009F4100218F42F8D301D88642F5D3D1BCED
:1040400070470548D0E90023521C73F1FF33C0E9E3
:104050000023704700E100E08819002018E000E02C
:104060004019010014E000E010E000E02DE9F04EFE
:104070008649874C01F1E0020B46062094E8E000F7
:1040800083E8E00042F8043B04F10C0696E8805017
:1040900003F10C0503F1180985E8805042F8045B30
:1040A00003F1180704F1180595E8400C89E8400C65
:1040B00024342433401E42F8047BDFD10C1D12212E
:1040C000032201232068656803FA05F58562066806
:1040D00065686F0003FA07F73E4306608668656807
:1040E0006F0002FA07F73E438660C568666877008E
:1040F00002FA07F70C34BD43491EC560E2D165489A
:10410000016841F4802101600C21026822F48022C0
:104110000260032260480160C260472383624FF45B
:104120007A61C1624FF080625C480260002180F8D1
:104130001A13BDE8F08E5549002081F82901564830
:104140000268D10706D44FF6FF724263016841F05E
:104150000101016070474D49012081F82901704734
:104160004A4981F828017047C91E48BF002100EB69
:104170004003474A980011507047F0B5464C434DF4
:1041800081B0206900212161810708D414E096687C
:1041900052680123B3409362491CC5F82C11D5F82D
:1041A0002C11112908D805EB8102D2F8E020136800
:1041B000666B9E42EBD06363C00764D595F8291106
:1041C000012960D095F8280120B9D8223049284625
:1041D000FDF7B8F9002205F1E0010023C2F111005A
:1041E000C70709D54B680F681E68D7F800E0764509
:1041F0003CBF0B604F600123400819D001EB8303E3
:104200005E681F68D6F800C0D7F800E0F4453CBFF0
:104210001E605F605E689F68D6F800E0D7F800C057
:10422000F4453CBF5F609E60401E03F10803E7D188
:10423000521C112AD1D30B46062001221E68B768F2
:10424000766802FA07F7B7615E68B768766802FABF
:1042500007F7B7619E68B76876680C3302FA07F70C
:10426000401EB761EAD10968C5F82C010A6862638B
:10427000206840F001002060D5E93623501C63F12E
:10428000FF31C5E9360101B0F0BD0000681400201F
:10429000000000200C1002400048014000E100E056
:1042A0005FEA000C80EA01039B0715D1830706D063
:1042B00011F8013B00F8013BB3B18307F8D10A685C
:1042C000B2F1013323EA020313F0803F02BF40F84A
:1042D000042B51F8042FF3E711F8013B00F8013BE0
:1042E00013B111F8013BF9E7604670472DE9FC4F27
:1042F00083B00BB100241C600446254600E06D1C11
:104300002878A0F10903052BF9D32028F7D02D2810
:1043100016BF2B2815F8018B4FF02B08002A0191AE
:1043200003D4012A01D0252A03DB002947D00C60E1
:1043300045E0002A0ADD102A04BF2878302802BF91
:10434000687840F0200078280ED10AE028783028DC
:1043500018BF0A2208D1687840F02000782802D1DE
:104360001022AD1C00E00822029500E06D1C2878A8
:104370003028FBD04FF0000926A02E46CA468DF803
:104380000000934607E09DF80070C71BCA46FFB2C5
:104390000BFB09796D1C2978A1F141001A2838BF5F
:1043A000203100BF1BA05A46FCF7A6FE0028EAD128
:1043B0000299A942484604D1019800B10460002046
:1043C0001EE000BF1DA2AE1B12F80B10761A002EC5
:1043D0000FD405DCC71B03D3B7FBFBF1514508D055
:1043E000AFF30080049808B1012101604FF0FF3065
:1043F00003E0B8F12D0F08BF4042019901B10D60F3
:1044000005B0BDE8F08F00E0000000230A22002183
:104410006CE7000030313233343536373839616279
:10442000636465666768696A6B6C6D6E6F707172E4
:10443000737475767778797A000000000000211592
:10444000110E0D0C0B0B0A0A0909090909080808C5
:1044500008080808070707070707070707070707E8
:10446000070000000CB430B583B00A4606A90291DB
:10447000044600250194009502AB01A90848784440
:104480001E30FBF781FE019A157000284EBF0446CE
:104490000198041B204603B030BC5DF80CFB00BF44
:1044A0004FCCFFFF81EA00039B0717D1820707D09B
:1044B00010F8012B11F8013BBAB19A42F6D014E082
:1044C00002680B689A42A2F1013301BF934313F0D3
:1044D000803F50F8042F51F8043FF3D010F8012B1F
:1044E00011F8013B0AB19A42F8D0D01A7047000087
:1044F0002DE9F0470400BF4D286850F48030286053
:10450000BD4E306850F480703060BC4F386850F455
:1045100040303860DFF8E882D8F8000030F44030EE
:10452000C8F800005FF00009B9F10A0F10D24FF48B
:10453000807AB448C0F800A00120FFF772FDB248AD
:10454000C0F800A00120FFF76CFD19F10109EBE7AD
:10455000286830F440302860286850F40030286023
:10456000AA48016851F004010160296851F4002152
:104570002960316851F400713160396851F440218B
:104580003960D8F8001031F44021C8F800100168F3
:1045900051F0400101609E48016851F40011016032
:1045A000016831F4001101609A480460BDE8F087A9
:1045B0002DE9F14F0D0016001F000A9C5FF0010865
:1045C000DFF85492D9F8000050F00100C9F800005B
:1045D000DFF848A29DF80000CAF80000DAF80000F1
:1045E0003100C9B2090451F400510843CAF800006F
:1045F0003100C9B2280000F09FF8002802D1002045
:10460000804625E0DAF8000030F47F00CAF80000A8
:10461000DAF800002100C9B2090451F4105108432E
:10462000CAF800005FF0000B2000C0B283450FD233
:1046300004217B4800F0A5F8002802D10020804624
:1046400006E07848006838707F1C1BF1010BEBE72F
:10465000DAF8000050F48040CAF800004FF48041BE
:10466000504600F0AAF8002801D100208046D9F871
:10467000000040084000C9F800004046C0B2BDE854
:10468000F28F2DE9F14F0D0016001F000A9C5FF01C
:104690000108DFF88491D9F8000050F00100C9F852
:1046A0000000DFF878A19DF80000CAF80000DAF8F1
:1046B00000002100C9B251FA86F1090451F40051F9
:1046C0000843CAF800003100C9B2280000F034F8ED
:1046D000002802D10020804615E05FF0000B20008A
:1046E000C0B283450FD238784F4908607F1C012142
:1046F0004B4800F046F8002802D10020804602E036
:104700001BF1010BEBE7DAF8000050F48040CAF827
:1047100000004FF48041504600F04FF8002801D1CE
:1047200000208046D9F8000040084000C9F8000089
:104730004046C0B2BDE8F28F71B581B00C0001A84F
:104740002100C9B20844451E00262000C0B286429E
:104750000DD20121324800F014F8002801D10020C8
:104760000EE02878304908606D1E761CEDE70121C7
:104770002B4800F006F8002801D1002000E00120BD
:1047800076BDF8B506000F00FFF747FC04000D00EA
:10479000FFF743FC001BA941002907D801D30328D8
:1047A00004D21F48006810F4E26F01D0002003E03B
:1047B00030683842ECD00120F2BDF8B506000F0099
:1047C000FFF72BFC04000D00FFF727FC001BA9419D
:1047D000002907D801D3032804D21148006810F437
:1047E000E26F01D0002003E030683842ECD10120B4
:1047F000F2BD00000004004804040048080400481A
:104800000C04004828040048180400482404004808
:104810001010024010540040005400400454004066
:1048200018540040245400402854004062F30F22E2
:1048300062F31F42401810F0030308D0C91A1FD3B7
:10484000DB0748BF00F8012D28BF20F8022D130018
:1048500030B414461546103928BF20E93C00FAD878
:10486000490728BF20E90C0048BF40F8042D890003
:1048700028BF20F8022D48BF00F8012D30BC70473A
:10488000C91818BF00F8012DCB0728BF00F8012D6B
:1048900070472DE9FC4180460D001C4608BF6D465F
:1048A000474600E07F1C3878A0F109010529F9D3BB
:1048B0002028F7D02D2816BF2B2817F8016B2B26A0
:1048C00029463846FFF712FD29688F4204D1C5F802
:1048D00000800020BDE8F6812B2E04D1B0F1004FFE
:1048E00006D2BDE8F6812D2EFBD1B0F1004F0CD9D8
:1048F000AFF300800CB1012020602D2E14BF6FF0AB
:1049000000404FF00040BDE8F6814042BDE8F6812E
:104910000023BEE700B500BF130096469446103949
:1049200028BFA0E80C50FAD85FEA417C28BF0CC031
:1049300048BF40F8042BC90728BF20F8022B48BF06
:1049400000F8012B00BD00001AA210EE101A43F26D
:10495000A40CC3F6896CF2EC060A614509DB00EE93
:10496000803A70EE800A83EE200A40F0020010EEDA
:10497000101A4900D1F1E6410BD860EE000A20EE92
:10498000203A03EE010A01EEA02A42EE202A80EE30
:10499000220A400810F0020F18BFB1EE400A02EBE5
:1049A0008002D2ED000A30EE200A28BFB1EE400AA4
:1049B00070470000D7B3DD3F6AD5033F2B94A93D74
:1049C000B82A593F0000803F000080BF000000006F
:1049D000920A063FDB0FC93F920A863FDB0FC93FB1
:1049E000920A0640DB0F4940368D27400000000048
:1049F00000000000010000000100000000000CC3E6
:104A00000000C8C10000A642000022C30000C8C1C7
:104A10000000000000000CC30000C8C10000A6C2D6
:104A200000000C430000C8C10000A6420000224361
:104A30000000C8C10000000000000C430000C8C115
:104A40000000A6C2000000000000010101010101F8
:104A50000000000000000000000000000000000056
:104A60000000000000000000000000000000000046
:104A70000000000000000000000000000000000036
:104A80000000000000000000000000000000000026
:104A9000000000000000000000000000E80300002B
:104AA000D007000005000000010000000000000029
:104AB00000000000000000000000000000000000F6
:104AC00000000000000000000000000000000000E6
:104AD00000000000000000000000000000000000D6
:104AE00000000000000000000000000000000000C6
:105450000000000005000000050000000000E6C29A
:105460000000A0C200008C42000007C30000A0C2E0
:10547000000000000000E6C20000A0C200008CC2D4
:105480000000E6420000A0C200008C42000007437A
:105490000000A0C2000000000000E6420000A0C220
:1054A00000008CC2000000000000010101010101A8
:1054B00000000000000000000000000000000000EC
:1054C00000000000000000000000000000000000DC
:1054D00000000000000000000000000000000000CC
:1054E00000000000000000000000000000000000BC
:1054F000000000000000000000000000E8030000C1
:10550000D007000014000000010000000000E6C207
:1055100000005CC200008C42000007C30000A0C273
:10552000000000000000E6C200005CC200008CC267
:105530000000E6420000A0C200008C4200000743C9
:1055400000005CC2000000000000E6420000A0C2B3
:1055500000008CC2000000000000010101010101F7
:10556000000000000000000000000000000000003B
:10557000000000000000000000000000000000002B
:10558000000000000000000000000000000000001B
:10559000000000000000000000000000000000000B
:1055A000000000000000000000000000E803000010
:1055B000D007000014000000010000000000E6C257
:1055C0000000A0C200008C42000007C30000A0C27F
:1055D000000000000000E6C20000A0C200008CC273
:1055E0000000E6420000A0C200008C420000074319
:1055F0000000A0C2000000000000E6420000A0C2BF
:1056000000008CC200000000000001010101010146
:10561000000000000000000000000000000000008A
:10562000000000000000000000000000000000007A
:10563000000000000000000000000000000000006A
:10564000000000000000000000000000000000005A
:10565000000000000000000000000000E80300005F
:10566000D007000014000000010000000000E6C2A6
:105670000000A0C200008C42000007C300005CC212
:10568000000000000000E6C20000A0C200008CC2C2
:105690000000E64200005CC200008C4200000743AC
:1056A0000000A0C2000000000000E64200005CC252
:1056B00000008CC200000000000001010101010196
:1056C00000000000000000000000000000000000DA
:1056D00000000000000000000000000000000000CA
:1056E00000000000000000000000000000000000BA
:1056F00000000000000000000000000000000000AA
:10570000000000000000000000000000E8030000AE
:10571000D007000014000000010000000000E6C2F5
:105720000000A0C200008C42000007C30000A0C21D
:10573000000000000000E6C20000A0C200008CC211
:105740000000E6420000A0C200008C4200000743B7
:105750000000A0C2000000000000E6420000A0C25D
:1057600000008CC2000000000000010101010101E5
:105770000000000000000000000000000000000029
:105780000000000000000000000000000000000019
:105790000000000000000000000000000000000009
:1057A00000000000000000000000000000000000F9
:1057B000000000000000000000000000E8030000FE
:1057C000D0070000140000000100000000000000ED
:1057D00000000000000000000000000000000000C9
:1057E00000000000000000000000000000000000B9
:1057F00000000000000000000000000000000000A9
:105800000000000000000000000000000000000098
:105EA00000000000000000000000000001000000F1
:105EB0000200000004000000060000000000E6C22E
:105EC0000000A0C200008C42000007C300005CC2BA
:105ED000000000000000E6C20000A0C200008CC26A
:105EE0000000E64200005CC200008C420000074354
:105EF0000000A0C2000000000000E64200005CC2FA
:105F000000008CC20000000000000101010101013D
:105F10000000000000000000000000000000000081
:105F20000000000000000000000000000000000071
:105F30000000000000000000000000000000000061
:105F40000000000000000000000000000000000051
:105F5000000000000000000000000000E803000056
:105F6000D007000019000000010000000000000040
:105F70000000000000000000000000000000000021
:105F80000000000000000000000000000000000011
:105F90000000000000000000000000000000000001
:105FA00000000000000000000000000000000000F1
:105FB0000000000001020102010201FF01FF01FFD8
:105FC0000000E6C20000A0C200008C42000007C32F
:105FD0000000A0C2000000000000E6C20000A0C255
:105FE00000008CC20000E6420000A0C200008C420B
:105FF000000007430000A0C2000000000000E642CD
:106000000000A0C200008CC2F4010000E803000000
:10601000D00700000A00000000000000000000009F
:106020000000000000000000000000000000000070
:106030000000000000000000000000000000000060
:106040000000000000000000000000000000000050
:106050000000000000000000000000000000000040
:1060600000000000020102010201FF01FF01FF0127
:106070000000E6C20000A0C200008C42000007C37E
:106080000000A0C2000000000000E6C20000A0C2A4
:1060900000008CC20000E6420000A0C200008C425A
:1060A000000007430000A0C2000000000000E6421C
:1060B0000000A0C200008CC200000000E803000045
:1060C000F40100000A0000000000000000000000D1
:1060D00000000000000000000000000000000000C0
:1060E00000000000000000000000000000000000B0
:1060F00000000000000000000000000000000000A0
:10610000000000000000000000000000000000008F
:106110000000000001020102010201FF01FF01FF76
:106120000000E6C20000A0C200008C42000007C3CD
:106130000000A0C2000000000000E6C20000A0C2F3
:1061400000008CC20000E6420000A0C200008C42A9
:10615000000007430000A0C2000000000000E6426B
:106160000000A0C200008CC200000000E803000094
:10617000F40100000A000000000000000000000020
:10618000000000000000000000000000000000000F
:1061900000000000000000000000000000000000FF
:1061A00000000000000000000000000000000000EF
:1061B00000000000000000000000000000000000DF
:1061C00000000000020102010201FF01FF01FF01C6
:1061D0000000E6C20000A0C200008C42000007C31D
:1061E0000000A0C2000000000000E6C20000A0C243
:1061F00000008CC20000E6420000A0C200008C42F9
:10620000000007430000A0C2000000000000E642BA
:106210000000A0C200008CC200000000F4010000D9
:10622000D00700000A000000000000000000E6C2E5
:106230000000A0C200008C42000007C30000A0C202
:10624000000000000000E6C20000A0C200008CC2F6
:106250000000E6420000A0C200008C42000007439C
:106260000000A0C2000000000000E6420000A0C242
:1062700000008CC2000000000000010101010101CA
:10628000000000000000000000000000000000000E
:1062900000000000000000000000000000000000FE
:1062A00000000000000000000000000000000000EE
:1062B00000000000000000000000000000000000DE
:1062C000000000000000000000000000E8030000E3
:1062D000D0070000190000000100000000000000CD
:1062E00000000000000000000000000000000000AE
:1062F000000000000000000000000000000000009E
:10630000000000000000000000000000000000008D
:10631000000000000000000000000000000000007D
:106900000000000000000000000000000100000086
:106910000200000004000000060000000000E6C2C3
:106920000000A0C200008C42000007C300005CC24F
:10693000000000000000E6C20000A0C200008CC2FF
:106940000000E64200005CC200008C4200000743E9
:106950000000A0C2000000000000E64200005CC28F
:1069600000008CC2000000000000010101010101D3
:106970000000000000000000000000000000000017
:106980000000000000000000000000000000000007
:1069900000000000000000000000000000000000F7
:1069A00000000000000000000000000000000000E7
:1069B000000000000000000000000000E8030000EC
:1069C000D0070000190000000100000000000000D6
:1069D00000000000000000000000000000000000B7
:1069E00000000000000000000000000000000000A7
:1069F0000000000000000000000000000000000097
:106A00000000000000000000000000000000000086
:106A100000000000010201020102FF01FF01FF016D
:106A20000000E6C20000A0C200008C42000007C3C4
:106A30000000A0C2000000000000E6C20000A0C2EA
:106A400000008CC20000E6420000A0C200008C42A0
:106A5000000007430000A0C2000000000000E64262
:106A60000000A0C200008CC2F4010000E803000096
:106A7000D00700000A000000000000000000000035
:106A80000000000000000000000000000000000006
:106A900000000000000000000000000000000000F6
:106AA00000000000000000000000000000000000E6
:106AB00000000000000000000000000000000000D6
:106AC0000000000002010201020101FF01FF01FFBD
:106AD0000000E6C20000A0C200008C42000007C314
:106AE0000000A0C2000000000000E6C20000A0C23A
:106AF00000008CC20000E6420000A0C200008C42F0
:106B0000000007430000A0C2000000000000E642B1
:106B10000000A0C200008CC200000000E8030000DA
:106B2000F40100000A000000000000000000000066
:106B30000000000000000000000000000000000055
:106B40000000000000000000000000000000000045
:106B50000000000000000000000000000000000035
:106B60000000000000000000000000000000000025
:106B700000000000010201020102FF01FF01FF010C
:106B80000000E6C20000A0C200008C42000007C363
:106B90000000A0C2000000000000E6C20000A0C289
:106BA00000008CC20000E6420000A0C200008C423F
:106BB000000007430000A0C2000000000000E64201
:106BC0000000A0C200008CC200000000E80300002A
:106BD000F40100000A0000000000000000000000B6
:106BE00000000000000000000000000000000000A5
:106BF0000000000000000000000000000000000095
:106C00000000000000000000000000000000000084
:106C10000000000000000000000000000000000074
:106C20000000000002010201020101FF01FF01FF5B
:106C30000000E6C20000A0C200008C42000007C3B2
:106C40000000A0C2000000000000E6C20000A0C2D8
:106C500000008CC20000E6420000A0C200008C428E
:106C6000000007430000A0C2000000000000E64250
:106C70000000A0C200008CC200000000F40100006F
:106C8000D00700000A000000000000000000E6C27B
:106C90000000A0C200008C42000007C30000A0C298
:106CA000000000000000E6C20000A0C200008CC28C
:106CB0000000E6420000A0C200008C420000074332
:106CC0000000A0C2000000000000E6420000A0C2D8
:106CD00000008CC200000000000001010101010160
:106CE00000000000000000000000000000000000A4
:106CF0000000000000000000000000000000000094
:106D00000000000000000000000000000000000083
:106D10000000000000000000000000000000000073
:106D2000000000000000000000000000E803000078
:106D3000D007000019000000010000000000000062
:106D40000000000000000000000000000000000043
:106D50000000000000000000000000000000000033
:106D60000000000000000000000000000000000023
:106D70000000000000000000000000000000000013
:10736000000000000000000000000000010000001C
:107370000000000002000000020000000000E6C261
:10738000000016C300008C42000007C3000016C3B3
:10739000000000000000E6C2000016C300008CC21E
:1073A0000000E642000016C300008C4200000743C4
:1073B000000016C3000000000000E642000016C3F3
:1073C00000008CC200000000000001010101010169
:1073D00000000000000000000000000000000000AD
:1073E000000000000000000000000000000000009D
:1073F000000000000000000000000000000000008D
:10740000000000000000000000000000000000007C
:10741000000000000000000000000000E803000081
:10742000D007000005000000010000000000E6C2D7
:107430000000A0C200008C42000007C30000A0C2F0
:10744000000000000000E6C20000A0C200008CC2E4
:107450000000E6420000A0C200008C42000007438A
:107460000000A0C2000000000000E6420000A0C230
:1074700000008CC2000000000000010101010101B8
:1074800000000000000000000000000000000000FC
:1074900000000000000000000000000000000000EC
:1074A00000000000000000000000000000000000DC
:1074B00000000000000000000000000000000000CC
:1074C000000000000000000000000000E8030000D1
:1074D000D0070000050000000100000000000000CF
:1074E000000000000000000000000000000000009C
:1074F000000000000000000000000000000000008C
:10750000000000000000000000000000000000007B
:10751000000000000000000000000000000000006B
:107DC00000000000000000000000000001000000B2
:107DD000010000000300000004000000000000009B
:107DE0000000000000000000000000000000000093
:107DF0000000000000000000000000000000000083
:107E00000000000000000000000000000000000072
:107E10000000000000000000000000000000000062
:107E20000000000001010101010101010101010146
:107E30000000E6C20000A0C200008C42000007C3A0
:107E40000000A0C2000000000000E6C20000A0C2C6
:107E500000008CC20000E6420000A0C200008C427C
:107E6000000007430000A0C2000000000000E6423E
:107E70000000A0C200008CC2F4010000E803000072
:107E8000D007000005000000000000000000000016
:107E900000000000000000000000000000000000E2
:107EA00000000000000000000000000000000000D2
:107EB00000000000000000000000000000000000C2
:107EC00000000000000000000000000000000000B2
:107ED00000000000010101010101FFFFFFFFFFFFA2
:107EE0000000E6C20000A0C200008C42000007C3F0
:107EF0000000A0C2000000000000E6C20000A0C216
:107F000000008CC20000E6420000A0C200008C42CB
:107F1000000007430000A0C2000000000000E6428D
:107F20000000A0C200008CC200000000E8030000B6
