:020000040800F2
:10000000B0220020C1D10008DDD1000881CE000857
:10001000E1D10008E5D10008E9D1000800000000A6
:10002000000000000000000000000000EDD100080A
:10003000F1D1000800000000F5D10008935B000832
:10004000F9D10008FDD1000801D2000805D200084E
:1000500009D200080DD2000811D2000815D20008FC
:1000600019D200081DD2000821D2000825D20008AC
:1000700029D200081F9500082DD2000831D20008AF
:10008000A5CA000875CA0008BF8E000835D200084E
:1000900039D200083DD2000841D2000845D20008FC
:1000A00049D200084DD200089990000851D20008AA
:1000B00055D2000859D200085DD2000861D200086C
:1000C00065D200082FC4000851C4000869D2000896
:1000D0006DD20008E3970008D5CA000847950008CC
:1000E00071D2000875D2000879D200087DD20008CC
:1000F00081D2000885D20008000000000000000046
:10010000000000000000000089D200088DD2000825
:10011000000000000000000091D2000895D2000805
:1001200099D200089DD20008A1D20008A5D20008EB
:10013000A9D20008ADD20008B1D20008B5D200089B
:10014000B9D200080000000000000000000000001C
:10015000000000000000000000000000000000009F
:100160000000000000000000BDD20008C1D200085D
:10017000C5D2000800000000C9D20008000000003D
:1001800000000000CDD200080100000000000000C7
:1001900002000000020000000000E6C200001BC3D5
:1001A00000008C42000007C300001BC300000000D9
:1001B0000000E6C200001BC300008CC20000E64243
:1001C00000001BC300008C420000074300001BC35B
:1001D000000000000000E64200001BC300008CC2CB
:1001E0000000000000000101010101010000000009
:1001F00000000000000000000000000000000000FF
:1002000000000000000000000000000000000000EE
:1002100000000000000000000000000000000000DE
:1002200000000000000000000000000000000000CE
:100230000000000000000000E8030000D0070000FC
:10024000140000000000E6C20000AAC200008C42B8
:10025000000007C30000AAC2000000000000E6C2C0
:100260000000AAC200008CC20000E6420000AAC240
:1002700000008C42000007430000AAC200000000FA
:100280000000E6420000AAC200008CC2000000008C
:100290000000010101010101000000000000000058
:1002A000000000000000000000000000000000004E
:1002B000000000000000000000000000000000003E
:1002C000000000000000000000000000000000002E
:1002D000000000000000000000000000000000001E
:1002E00000000000E8030000D00700001400000038
:1002F00000000000000000000000000000000000FE
:1003000000000000000000000000000000000000ED
:1003100000000000000000000000000000000000DD
:1003200000000000000000000000000000000000CD
:10085000010000000100000003000000040000008F
:100860000000000000000000000000000000000088
:100870000000000000000000000000000000000078
:100880000000000000000000000000000000000068
:100890000000000000000000000000000000000058
:1008A0000000000000000000010101010101010140
:1008B000010101010000E6C20000AAC200008C4252
:1008C000000007C30000AAC2000000000000E6C24A
:1008D0000000AAC200008CC20000E6420000AAC2CA
:1008E00000008C42000007430000AAC20000000084
:1008F0000000E6420000AAC200008CC2F401000021
:10090000E8030000D00700000F0000000000000016
:1009100000000000000000000000000000000000D7
:1009200000000000000000000000000000000000C7
:1009300000000000000000000000000000000000B7
:1009400000000000000000000000000000000000A7
:1009500000000000010101010101FFFFFFFFFFFF97
:100960000000E6C20000AAC200008C42000007C3DB
:100970000000AAC2000000000000E6C20000AAC2F7
:1009800000008CC20000E6420000AAC200008C42B7
:10099000000007430000AAC2000000000000E64279
:1009A0000000AAC200008CC200000000E8030000A2
:1009B000D00700000F000000000000000000000051
:1009C0000000000000000000000000000000000027
:1009D0000000000000000000000000000000000017
:1009E0000000000000000000000000000000000007
:1009F00000000000000000000000000000000000F7
:100A00000101010101010101010101010000E6C232
:100A10000000AAC200008C42000007C30000AAC266
:100A2000000000000000E6C20000AAC200008CC264
:100A30000000E6420000AAC200008C42000007430A
:100A40000000AAC2000000000000E6420000AAC2A6
:100A500000008CC200000000E8030000D007000086
:100A60000F00000000000000000000000000000077
:100A70000000000000000000000000000000000076
:100A80000000000000000000000000000000000066
:100A90000000000000000000000000000000000056
:100AA0000000000000000000000000000101010142
:100AB0000101FFFFFFFFFFFF0000E6C20000AAC226
:100AC00000008C42000007C30000AAC20000000022
:100AD0000000E6C20000AAC200008CC20000E6428C
:100AE0000000AAC200008C42000007430000AAC216
:100AF000000000000000E6420000AAC200008CC214
:100B000000000000F4010000D00700000F0000000A
:100B100000000000000000000000000000000000D5
:100B200000000000000000000000000000000000C5
:100B300000000000000000000000000000000000B5
:100B400000000000000000000000000000000000A5
:100F100000000000000000000100000001000000CF
:100F200003000000040000000000000000000000BA
:100F300000001643000007C30000AAC20000000022
:100F40000000E6C20000AAC200008CC20000E64217
:100F50000000AAC200008C42000007430000AAC2A1
:100F6000000000000000E6420000AAC200008CC29F
:100F7000000000000000010101010101000000006B
:100F80000000000000000000000000000000000061
:100F90000000000000000000000000000000000051
:100FA0000000000000000000000000000000000041
:100FB0000000000000000000000000000000000031
:100FC0000000000000000000E8030000D00700005F
:100FD00064000000000000000000000000007A43F0
:100FE000000007C30000AAC2000000000000E6C223
:100FF0000000AAC200008CC20000E6420000AAC2A3
:1010000000008C42000007430000AAC2000000005C
:101010000000E6420000AAC200008CC200000000EE
:1010200000000101010101010000000000000000BA
:1010300000000000000000000000000000000000B0
:1010400000000000000000000000000000000000A0
:101050000000000000000000000000000000000090
:101060000000000000000000000000000000000080
:1010700000000000E8030000D0070000320000007C
:10108000000000000000000000001643000007C33D
:101090000000AAC2000000000000E6C20000AAC2D0
:1010A00000008CC20000E6420000AAC200008C4290
:1010B000000007430000AAC2000000000000E64252
:1010C0000000AAC200008CC2000000000000010164
:1010D000010101010000000000000000000000000C
:1010E0000000000000000000000000000000000000
:1010F00000000000000000000000000000000000F0
:1011000000000000000000000000000000000000DF
:1011100000000000000000000000000000000000CF
:10112000E8030000D0070000320000000000E6C223
:101130000000AAC200008C42000007C30000AAC23F
:10114000000000000000E6C20000AAC200008CC23D
:101150000000E6420000AAC200008C4200000743E3
:101160000000AAC2000000000000E6420000AAC27F
:1011700000008CC20000000000000101010101011B
:10118000000000000000000000000000000000005F
:10119000000000000000000000000000000000004F
:1011A000000000000000000000000000000000003F
:1011B000000000000000000000000000000000002F
:1011C000000000000000000000000000E803000034
:1011D000D0070000640000000000000000000000D4
:1011E00000000000000000000000000000000000FF
:1011F00000000000000000000000000000000000EF
:1012000000000000000000000000000000000000DE
:1012100000000000000000000000000000000000CE
:1015E00001000000010000000300000004000000F2
:1015F0000000E6C20000AAC200008C42000007C33F
:101600000000AAC2000000000000E6C20000AAC25A
:1016100000008CC200000000000000000000164323
:10162000000007430000AAC2000000000000E642DC
:101630000000AAC200008CC20000000000000101EE
:101640000101010100000000000000000000000096
:10165000000000000000000000000000000000008A
:10166000000000000000000000000000000000007A
:10167000000000000000000000000000000000006A
:10168000000000000000000000000000000000005A
:10169000E8030000D0070000640000000000E6C27C
:1016A0000000AAC200008C42000007C30000AAC2CA
:1016B000000000000000E6C20000AAC200008CC2C8
:1016C000000000000000000000007A430000074313
:1016D0000000AAC2000000000000E6420000AAC20A
:1016E00000008CC2000000000000010101010101A6
:1016F00000000000000000000000000000000000EA
:1017000000000000000000000000000000000000D9
:1017100000000000000000000000000000000000C9
:1017200000000000000000000000000000000000B9
:10173000000000000000000000000000E8030000BE
:10174000D0070000320000000000E6C20000AAC27C
:1017500000008C42000007C30000AAC20000000085
:101760000000E6C20000AAC200008CC20000000017
:101770000000000000001643000007430000AAC25A
:10178000000000000000E6420000AAC200008CC277
:101790000000000000000101010101010000000043
:1017A0000000000000000000000000000000000039
:1017B0000000000000000000000000000000000029
:1017C0000000000000000000000000000000000019
:1017D0000000000000000000000000000000000009
:1017E0000000000000000000E8030000D007000037
:1017F000320000000000E6C20000AAC200008C42D5
:10180000000007C30000AAC2000000000000E6C2FA
:101810000000AAC200008CC20000E6420000AAC27A
:1018200000008C42000007430000AAC20000000034
:101830000000E6420000AAC200008CC200000000C6
:101840000000010101010101000000000000000092
:101850000000000000000000000000000000000088
:101860000000000000000000000000000000000078
:101870000000000000000000000000000000000068
:101880000000000000000000000000000000000058
:1018900000000000E8030000D00700006400000022
:1018A0000000000000000000000000000000000038
:1018B0000000000000000000000000000000000028
:1018C0000000000000000000000000000000000018
:1018D0000000000000000000000000000000000008
:101CA0000000000000000000010000000000000033
:101CB00008000000080000000000E6C200005CC24E
:101CC00000008C42000007C30000AAC20000000010
:101CD0000000E6C200005CC200008CC20000E642C8
:101CE0000000AAC200008C420000074300005CC252
:101CF000000000000000E6420000AAC200008CC202
:101D000000000000000001010101010100000000CD
:101D100000000000000000000000000000000000C3
:101D200000000000000000000000000000000000B3
:101D300000000000000000000000000000000000A3
:101D40000000000000000000000000000000000093
:101D50000000000000000000E8030000D0070000C1
:101D6000640000000000E6C20000AAC200008C422D
:101D7000000007C30000AAC2000000000000E6C285
:101D80000000AAC200008CC20000E6420000AAC205
:101D900000008C42000007430000AAC200000000BF
:101DA0000000E6420000AAC200008CC20000000051
:101DB000000001010101010100000000000000001D
:101DC0000000000000000000000000000000000013
:101DD0000000000000000000000000000000000003
:101DE00000000000000000000000000000000000F3
:101DF00000000000000000000000000000000000E3
:101E000000000000E8030000D007000064000000AC
:101E10000000E6C20000AAC200008C42000007C316
:101E200000005CC2000000000000E6C20000AAC280
:101E300000008CC20000E64200005CC200008C4240
:101E4000000007430000AAC2000000000000E642B4
:101E500000005CC200008CC2000000000000010114
:101E6000010101010000000000000000000000006E
:101E70000000000000000000000000000000000062
:101E80000000000000000000000000000000000052
:101E90000000000000000000000000000000000042
:101EA0000000000000000000000000000000000032
:101EB000E8030000D0070000640000000000E6C254
:101EC0000000AAC200008C42000007C30000AAC2A2
:101ED000000000000000E6C20000AAC200008CC2A0
:101EE0000000E6420000AAC200008C420000074346
:101EF0000000AAC2000000000000E6420000AAC2E2
:101F000000008CC20000000000000101010101017D
:101F100000000000000000000000000000000000C1
:101F200000000000000000000000000000000000B1
:101F300000000000000000000000000000000000A1
:101F40000000000000000000000000000000000091
:101F5000000000000000000000000000E803000096
:101F6000D00700006400000000002AC300004842BF
:101F700000002A43000002C30000AAC200000000C3
:101F800000002AC30000484200002AC30000DC42CF
:101F90000000AAC2000082420000704300004842D4
:101FA000000000000000DC420000AAC2000082C263
:101FB000000000000000010101010101000000001B
:101FC0000000000000000000000000000000000011
:101FD0000000000000000000000000000000000001
:101FE00000000000000000000000000000000000F1
:101FF00000000000000000000000000000000000E1
:102000000000000000000000E8030000D00700000E
:10201000320000000000DCC20000AAC200008242C0
:10202000000002C30000AAC2000000000000DCC2E1
:102030000000AAC2000082C20000DC420000AAC266
:1020400000008242000002430000AAC2000000001B
:102050000000DC420000AAC2000082C200000000B2
:10206000000001010101010100000000000000006A
:102070000000000000000000000000000000000060
:102080000000000000000000000000000000000050
:102090000000000000000000000000000000000040
:1020A0000000000000000000000000000000000030
:1020B00000000000E8030000D0070000320000002C
:1020C0000000DCC20000AAC200008242000070C30F
:1020D00000004842000000000000DCC20000AAC26C
:1020E000000082C200002A430000484200002A4348
:1020F000000002430000AAC20000000000002A43C2
:102100000000484200002AC3000000000000010156
:1021100001010101000000000000000000000000BB
:1021200000000000000000000000000000000000AF
:10213000000000000000000000000000000000009F
:10214000000000000000000000000000000000008F
:10215000000000000000000000000000000000007F
:10216000E8030000D0070000320000000000DCC2DD
:102170000000AAC200008242000002C30000AAC2FE
:10218000000000000000DCC20000AAC2000082C201
:102190000000DC420000AAC20000824200000243AC
:1021A0000000AAC2000000000000DC420000AAC239
:1021B000000082C2000000000000010101010101D5
:1021C000000000000000000000000000000000000F
:1021D00000000000000000000000000000000000FF
:1021E00000000000000000000000000000000000EF
:1021F00000000000000000000000000000000000DF
:10220000000000000000000000000000E8030000E3
:10221000D0070000320000000000000000000000B5
:1022200000000000000000000000000000000000AE
:10223000000000000000000000000000000000009E
:10224000000000000000000000000000000000008E
:10225000000000000000000000000000000000007E
:10226000000000000000000000000000000000006E
:10227000000000000000000000000000000000005E
:10228000000000000000000000000000000000004E
:10229000000000000000000000000000000000003E
:1022A000000000000000000000000000000000002E
:1022B000000000000000000000000000000000001E
:1022C000000000000000000000000000000000000E
:1022D00000000000000000000000000000000000FE
:1022E00000000000000000000000000000000000EE
:1022F00000000000000000000000000000000000DE
:1023000000000000000000000000000000000000CD
:1023100000000000000000000000000000000000BD
:1023200000000000000000000000000000000000AD
:10233000000000000000000000000000000000009D
:10234000000000000000000000000000000000008D
:10235000000000000000000000000000000000007D
:10236000000000000000000000000000000000006D
:102370000100000000000000020000000300000057
:102380000000E6C2000082C200008C42000007C3C9
:102390000000AAC2000000000000E6C20000D2C295
:1023A00000008CC20000E642000082C200008C42A5
:1023B000000007430000AAC2000000000000E6423F
:1023C0000000D2C200008CC2000000000000010129
:1023D00001010101000000000000000000000000F9
:1023E00000000000000000000000000000000000ED
:1023F00000000000000000000000000000000000DD
:1024000000000000000000000000000000000000CC
:1024100000000000000000000000000000000000BC
:10242000E8030000D00700001E0000000000E6C224
:102430000000D2C200008C42000007C30000AAC204
:10244000000000000000E6C2000082C200008CC252
:102450000000E6420000D2C200008C4200000743A8
:102460000000AAC2000000000000E642000082C294
:1024700000008CC200000000000001010101010108
:10248000000000000000000000000000000000004C
:10249000000000000000000000000000000000003C
:1024A000000000000000000000000000000000002C
:1024B000000000000000000000000000000000001C
:1024C000000000000000000000000000E803000021
:1024D000D00700001E0000000000E6C20000AAC2F3
:1024E00000008C42000007C30000AAC200000000E8
:1024F0000000E6C20000AAC200008CC20000E64252
:102500000000AAC200008C42000007430000AAC2DB
:10251000000000000000E6420000AAC200008CC2D9
:1025200000000000000001010101010100000000A5
:10253000000000000000000000000000000000009B
:10254000000000000000000000000000000000008B
:10255000000000000000000000000000000000007B
:10256000000000000000000000000000000000006B
:102570000000000000000000E8030000D007000099
:102580003200000000000000000000000000000019
:10259000000000000000000000000000000000003B
:1025A000000000000000000000000000000000002B
:1025B000000000000000000000000000000000001B
:1025C000000000000000000000000000000000000B
:102A30000000000000000000010000000000000095
:102A400002000000030000000000E6C2000082C295
:102A500000008C42000007C3000082C2000000009A
:102A60000000E6C2000082C200008CC20000E64204
:102A70000000D2C200008C42000007430000D2C216
:102A8000000000000000E6420000D2C200008CC23C
:102A90000000000000000101010101010000000030
:102AA0000000000000000000000000000000000026
:102AB0000000000000000000000000000000000016
:102AC0000000000000000000000000000000000006
:102AD00000000000000000000000000000000000F6
:102AE0000000000000000000E8030000D007000024
:102AF0001E0000000000E6C20000D2C200008C42AE
:102B0000000007C30000D2C2000000000000E6C2BF
:102B10000000D2C200008CC20000E642000082C267
:102B200000008C4200000743000082C20000000049
:102B30000000E642000082C200008CC200000000DB
:102B4000000001010101010100000000000000007F
:102B50000000000000000000000000000000000075
:102B60000000000000000000000000000000000065
:102B70000000000000000000000000000000000055
:102B80000000000000000000000000000000000045
:102B900000000000E8030000D00700001E00000055
:102BA0000000E6C20000AAC200008C42000007C379
:102BB0000000AAC2000000000000E6C20000AAC295
:102BC00000008CC20000E6420000AAC200008C4255
:102BD000000007430000AAC2000000000000E64217
:102BE0000000AAC200008CC2000000000000010129
:102BF00001010101000000000000000000000000D1
:102C000000000000000000000000000000000000C4
:102C100000000000000000000000000000000000B4
:102C200000000000000000000000000000000000A4
:102C30000000000000000000000000000000000094
:102C4000E8030000D0070000320000000000000090
:102C50000000000000000000000000000000000074
:102C60000000000000000000000000000000000064
:102C70000000000000000000000000000000000054
:102C80000000000000000000000000000000000044
:1031000010B5AA4C0220A070B0A020620221E1708C
:1031100060620021617000F5B47001F083FB012052
:10312000207010BD10B5082002F09DFC012800F0B1
:10313000A9809E4C2078401E042800F29B80DFE886
:1031400000F003202D347200A078E178884202D08C
:103150000520207010BD02F008FDD4E90623801A76
:10316000994144F6216200239942C0F08B8002D835
:103170009042C0F087801A4611460220BDE81040F8
:1031800082E004F10801226AA36AAC204343D0180C
:10319000103001F0A2FB0320207010BD01F062FD91
:1031A00001286FD10420207010BDA16A491CA162C2
:1031B000022020702079002805D1206A40688142D1
:1031C00001D3012020712079012813D1206A82685F
:1031D00091420FD3A178E378994203D0A2620220F2
:1031E000207107E00178012902D14068A06201E066
:1031F000022020712079022844D1A06A216AC9687E
:1032000088423FD300231A461146084600F03CF896
:1032100005202070A078022802D10020607010BD27
:103220000120607010BDE078A070616A2162002109
:10323000A162217102212170002805D10120207096
:1032400002F093FCC4E90601607801281AD1A07845
:10325000002805D0C01E022802D9801F012804D8EA
:103260000120BDE8104001F001BD0020BDE8104084
:1032700001F0FCBC012002F0D6FB0820BDE81040A4
:1032800002F0DCBB10BD000038B504460A2C07DD97
:10329000012002F0C8FB0820BDE8324002F0CEBB9E
:1032A000424D040003D10020E870686231BD6C78A3
:1032B000002C0CD101286ED10120E8700FF2D470DF
:1032C00068620020E86028615720A86063E0801EE3
:1032D000082860D8DFE800F0051019232E38424C8A
:1032E00056000220E87000BF38A068620020E86045
:1032F00028615720A8604EE00320E8700FF65C605C
:103300006862EA602B61A96045E00420E870284803
:1033100068620020E86028615720A8603BE0052033
:10332000E870244868620A20E86064202861572019
:10333000A86030E00620E8701F4868620020E8605E
:1033400028615720A86026E00720E8701B486862C3
:103350000020E86028615720A8601CE00820E87081
:10336000174868620020E86028615720A86012E0D2
:103370000920E870134868620020E860286157203F
:10338000A86008E00A20E8700F4868620020E86042
:1033900028615720A860A878E978884205D105F10E
:1033A0000800BDE8324001F0D5BA31BDE019002077
:1033B0008801000850080008180F0008E0150008F0
:1033C000A81C000870230008382A0008000000002C
:1033D00000000000030000000300000000000CC318
:1033E000000070C10000A642000022C3000070C1AE
:1033F0000000000000000CC3000070C10000A6C265
:1034000000000C43000070C10000A64200002243EF
:10341000000070C10000000000000C43000070C1FB
:103420000000A6C20000000000000101010101012E
:10343000000000000000000000000000000000008C
:10344000000000000000000000000000000000007C
:10345000000000000000000000000000000000006C
:10346000000000000000000000000000000000005C
:10347000000000000000000000000000E803000061
:10348000D00700001400000000000CC3000070C151
:103490000000A642000022C3000070C1000000002E
:1034A00000000CC3000070C10000A6C200000C4365
:1034B000000070C10000A64200002243000070C15D
:1034C0000000000000000C43000070C10000A6C214
:1034D00000000000000001010101010100000000E6
:1034E00000000000000000000000000000000000DC
:1034F00000000000000000000000000000000000CC
:1035000000000000000000000000000000000000BB
:1035100000000000000000000000000000000000AB
:103520000000000000000000E8030000D0070000D9
:103530002800000000000CC3000020420000A6424A
:10354000000022C3000020420000000000000CC365
:10355000000020420000A6C200000C4300002042F0
:103560000000A642000022430000204200000000AC
:1035700000000C43000020420000A6C20000000032
:103580000000010101010101000000000000000035
:10359000000000000000000000000000000000002B
:1035A000000000000000000000000000000000001B
:1035B000000000000000000000000000000000000B
:1035C00000000000000000000000000000000000FB
:1035D00000000000E8030000D00700002800000001
:1035E00000000000000000000000000000000000DB
:1035F00000000000000000000000000000000000CB
:1036000000000000000000000000000000000000BA
:1036100000000000000000000000000000000000AA
:103A9000000000000000000000000000070000001F
:103AA0000700000000000CC3000070C10000A64227
:103AB000000022C3000070C10000000000000CC321
:103AC000000070C10000A6C200000C43000070C1DD
:103AD0000000A64200002243000070C10000000068
:103AE00000000C43000070C10000A6C200000000EE
:103AF00000000101010101010000000000000000C0
:103B000000000000000000000000000000000000B5
:103B100000000000000000000000000000000000A5
:103B20000000000000000000000000000000000095
:103B30000000000000000000000000000000000085
:103B400000000000E8030000D00700003C00000077
:103B500000000CC3000070C10000A642000022C398
:103B6000000070C10000000000000CC3000070C124
:103B70000000A6C200000C43000070C10000A64275
:103B800000002243000070C10000000000000C4350
:103B9000000070C10000A6C200000000000001018A
:103BA0000101010100000000000000000000000011
:103BB0000000000000000000000000000000000005
:103BC00000000000000000000000000000000000F5
:103BD00000000000000000000000000000000000E5
:103BE00000000000000000000000000000000000D5
:103BF000E8030000D00700003C0000000000E6C21F
:103C00000000AAC200008C42000007C30000AAC244
:103C1000000000000000E6C20000AAC200008CC242
:103C20000000E6420000AAC200008C4200000743E8
:103C30000000AAC2000000000000E6420000AAC284
:103C400000008CC200000000000001010101010120
:103C50000000000000000000000000000000000064
:103C60000000000000000000000000000000000054
:103C70000000000000000000000000000000000044
:103C80000000000000000000000000000000000034
:103C9000000000000000000000000000E803000039
:103CA000D0070000640000000000E6C200005CC213
:103CB00000008C42000007C30000AAC20000000000
:103CC0000000E6C200005CC200008CC20000E642B8
:103CD0000000AAC200008C420000074300005CC242
:103CE000000000000000E6420000AAC200008CC2F2
:103CF00000000000000001010101010100000000BE
:103D000000000000000000000000000000000000B3
:103D100000000000000000000000000000000000A3
:103D20000000000000000000000000000000000093
:103D30000000000000000000000000000000000083
:103D40000000000000000000E8030000D0070000B1
:103D5000640000000000E6C20000AAC200008C421D
:103D6000000007C30000AAC2000000000000E6C275
:103D70000000AAC200008CC20000E6420000AAC2F5
:103D800000008C42000007430000AAC200000000AF
:103D90000000E6420000AAC200008CC20000000041
:103DA000000001010101010100000000000000000D
:103DB0000000000000000000000000000000000003
:103DC00000000000000000000000000000000000F3
:103DD00000000000000000000000000000000000E3
:103DE00000000000000000000000000000000000D3
:103DF00000000000E8030000D0070000640000009D
:103E00000000E6C20000AAC200008C42000007C306
:103E100000005CC2000000000000E6C20000AAC270
:103E200000008CC20000E64200005CC200008C4230
:103E3000000007430000AAC2000000000000E642A4
:103E400000005CC200008CC2000000000000010104
:103E5000010101010000000000000000000000005E
:103E60000000000000000000000000000000000052
:103E70000000000000000000000000000000000042
:103E80000000000000000000000000000000000032
:103E90000000000000000000000000000000000022
:103EA000E8030000D0070000640000000000E6C244
:103EB0000000AAC200008C42000007C30000AAC292
:103EC000000000000000E6C20000AAC200008CC290
:103ED0000000E6420000AAC200008C420000074336
:103EE0000000AAC2000000000000E6420000AAC2D2
:103EF00000008CC20000000000000101010101016E
:103F000000000000000000000000000000000000B1
:103F100000000000000000000000000000000000A1
:103F20000000000000000000000000000000000091
:103F30000000000000000000000000000000000081
:103F4000000000000000000000000000E803000086
:103F5000D007000064000000000000000000000026
:103F60000000000000000000000000000000000051
:103F70000000000000000000000000000000000041
:103F80000000000000000000000000000000000031
:103F90000000000000000000000000000000000021
:103FA0000000000000000000000000000000000011
:103FB0000000000000000000000000000000000001
:103FC00000000000000000000000000000000000F1
:103FD00000000000000000000000000000000000E1
:103FE00000000000000000000000000000000000D1
:103FF00000000000000000000000000000000000C1
:1040000000000000000000000000000000000000B0
:1040100000000000000000000000000000000000A0
:104020000000000000000000000000000000000090
:104030000000000000000000000000000000000080
:104040000000000000000000000000000000000070
:104050000000000000000000000000000000000060
:104060000000000000000000000000000000000050
:104070000000000000000000000000000000000040
:104080000000000000000000000000000000000030
:104090000000000000000000000000000000000020
:1040A0000000000000000000000000000000000010
:1040B0000000000000000000000000000000000000
:1040C00000000000000000000000000000000000F0
:1040D00000000000000000000000000000000000E0
:1040E00000000000000000000000000000000000D0
:1040F00000000000000000000000000000000000C0
:1041000000000000000000000000000000000000AF
:10411000000000000000000000000000000000009F
:10412000000000000000000000000000000000008F
:10413000000000000000000000000000000000007F
:10414000000000000000000000000000000000006F
:10415000000000000000000000000000010000005E
:104160000200000004000000060000000000E6C29B
:104170000000AAC200008C42000007C300005CC21D
:10418000000000000000E6C20000AAC200008CC2CD
:104190000000E64200005CC200008C4200000743C1
:1041A0000000AAC2000000000000E64200005CC25D
:1041B00000008CC2000000000000010101010101AB
:1041C00000000000000000000000000000000000EF
:1041D00000000000000000000000000000000000DF
:1041E00000000000000000000000000000000000CF
:1041F00000000000000000000000000000000000BF
:10420000000000000000000000000000E8030000C3
:10421000E8030000000000000000000000000000B3
:10422000000000000000000000000000000000008E
:10423000000000000000000000000000000000007E
:10424000000000000000000000000000000000006E
:10425000000000000000000000000000000000005E
:1042600001020102010201FF01FF01FF0000E6C29D
:104270000000AAC200008C42000007C30000AAC2CE
:10428000000000000000E6C20000AAC200008CC2CC
:104290000000E6420000AAC200008C420000074372
:1042A0000000AAC2000000000000E6420000AAC20E
:1042B00000008CC2F4010000E8030000D0070000F9
:1042C00000000000000000000000000000000000EE
:1042D00000000000000000000000000000000000DE
:1042E00000000000000000000000000000000000CE
:1042F00000000000000000000000000000000000BE
:1043000000000000000000000000000002010201A7
:104310000201FF01FF01FF010000E6C20000AAC286
:1043200000008C42000007C30000AAC20000000089
:104330000000E6C20000AAC200008CC20000E642F3
:104340000000AAC200008C42000007430000AAC27D
:10435000000000000000E6420000AAC200008CC27B
:1043600000000000E8030000F4010000000000006D
:10437000000000000000000000000000000000003D
:10438000000000000000000000000000000000002D
:10439000000000000000000000000000000000001D
:1043A000000000000000000000000000000000000D
:1043B000000000000000000001020102010201FFF4
:1043C00001FF01FF0000E6C20000AAC200008C420B
:1043D000000007C30000AAC2000000000000E6C2FF
:1043E0000000AAC200008CC20000E6420000AAC27F
:1043F00000008C42000007430000AAC20000000039
:104400000000E6420000AAC200008CC200000000CA
:10441000E8030000F40100000000000000000000BC
:10442000000000000000000000000000000000008C
:10443000000000000000000000000000000000007C
:10444000000000000000000000000000000000006C
:10445000000000000000000000000000000000005C
:1044600000000000020102010201FF01FF01FF0143
:104470000000E6C20000AAC200008C42000007C390
:104480000000AAC2000000000000E6C20000AAC2AC
:1044900000008CC20000E6420000AAC200008C426C
:1044A000000007430000AAC2000000000000E6422E
:1044B0000000AAC200008CC200000000F40100004D
:1044C000D0070000000000000000E6C20000AAC201
:1044D00000008C42000007C30000AAC200000000D8
:1044E0000000E6C20000AAC200008CC20000E64242
:1044F0000000AAC200008C42000007430000AAC2CC
:10450000000000000000E6420000AAC200008CC2C9
:104510000000000000000101010101010000000095
:10452000000000000000000000000000000000008B
:10453000000000000000000000000000000000007B
:10454000000000000000000000000000000000006B
:10455000000000000000000000000000000000005B
:104560000000000000000000E8030000D007000089
:10457000000000000000000000000000000000003B
:10458000000000000000000000000000000000002B
:10459000000000000000000000000000000000001B
:1045A000000000000000000000000000000000000B
:104820000000000070B586B0044600F075FA00285C
:1048300006D1032001F0F7F8042001F0FFF84AE068
:1048400000200FE0DFF8881B00EB400201EB0211B3
:10485000AC3100EB400204EB820292EC030A81ECE3
:10486000030A401C0628EDD36846182101F0A2F97E
:10487000684600F0B7FD002805D1032001F0D3F809
:10488000042001F0DBF801F017FA00241AE0DFF849
:10489000400B04EB440100EB011000F1B80504EB00
:1048A000440695ED000A304601F033FA95ED030A0F
:1048B000701C01F02EFA95ED060AB61C304601F088
:1048C00028FA641C062CE2D3042001F0CCF800285E
:1048D00001D101F033FA06B070BD70B502460C4646
:1048E000DFF8EC5A28461146AC2201F013FFDFF83E
:1048F000EC1A00200873024613E0A81890F848004C
:1049000000280DD102EB420005EB8000543002EB91
:10491000420305EB0313AC3393EC030A80EC030A68
:10492000521C062AE9D3DFF8B80A94E84C0080E864
:104930004C0094E80D0081E80D0095F8A8000028CF
:1049400004D12068BDE8704001F00CBABDE87040A9
:1049500001F008BA10B4DFF8881A90E81C0081E86A
:104960001C0010BC70470000F8B52DED028B9CB008
:10497000042001F078F8012800F0708100201990DF
:104980001A901AA919A801F0E6FFDFF8444A04F1C9
:104990009C073968DFF8445A7868814202DB0120BD
:1049A000287301E000202873287B002840F0128142
:1049B00000EE101AB8EEC00ADFEDD50A80EE208AAC
:1049C000B0EE480A00F05AFA002800F02381B0EE59
:1049D000480A00F095FA002800F01C81386814306D
:1049E0003860B96888420ED1DFF8F40990E80E000B
:1049F00085E80E00387B002803D1084601F0B2F9A3
:104A000001E001F0AFF9A87B002800F0E38002F09C
:104A1000B2F8064601F0A9F804F59E729FEDBD0AB2
:104A20001A9B5B6818931A9B1B681793199BB3F921
:104A30000A301693D2ED1A0A60EE800AFDEEE00A03
:104A400010EE903A1BB21593D2ED190A60EE800A6F
:104A5000FDEEE00A10EE903A1BB21493D2ED180A64
:104A600060EE800AFDEEE00A10EE903A1BB213935E
:104A7000199BB3F908301293D2ED0E0A60EE800A4A
:104A8000FDEEE00A10EE903A1BB21193D2ED0D0A42
:104A900060EE800AFDEEE00A10EE903A1BB2109331
:104AA000D2ED0C0A60EE800AFDEEE00A10EE903ABC
:104AB0001BB20F93199BB3F906300E93D2ED020A85
:104AC00060EE800AFDEEE00A10EE903A1BB20D9304
:104AD000D2ED010A60EE800AFDEEE00A10EE903A97
:104AE0001BB20C93D2ED000A60EE800AFDEEE00AE4
:104AF00010EE902A12B20B92199AB2F904200A927F
:104B0000D7ED1E0A60EE800AFDEEE00A10EE902A54
:104B100012B20992D7ED1D0A60EE800AFDEEE00A9E
:104B200010EE902A12B20892D7ED1C0A60EE800AAD
:104B3000FDEEE00A10EE902A12B20792199AB2F92D
:104B400002200692D7ED120A60EE800AFDEEE00A1E
:104B500010EE902A12B20592D7ED110A60EE800A8B
:104B6000FDEEE00A10EE902A12B20492D7ED100A80
:104B700060EE800AFDEEE00A10EE902A12B2039277
:104B8000199AB2F900200292D7ED060A60EE800A67
:104B9000FDEEE00A10EE902A12B20192D7ED050A5E
:104BA00060EE800AFDEEE00A10EE902A12B200924A
:104BB000D7ED040A20EE800ABDEEC00A10EE103ACE
:104BC0001BB202460FF6D031304602F073FE0020D1
:104BD00001F0D3FF6846182100F0ECFF687B002845
:104BE00013D068461A9991ED000AB8EEC00ADFEDBD
:104BF000C30AC0EE200A91ED010AB8EEC00A9FED8B
:104C0000BF1A80EE010A00F099FA684600F0EAFB4C
:104C1000002806D1202000F006FF042000F00EFF3F
:104C20001CE0002518E005EB450004EB001000F146
:104C3000B80605EB450796ED000A384601F069F81D
:104C400096ED030A781C01F064F896ED060ABF1C85
:104C5000384601F05EF86D1C062DE4D31CB0BDECA7
:104C6000028BF1BDDFF87407007B7047DFF86C172B
:104C700048737047F8B504460D4616461F460FF6B2
:104C80007C3102F037FE00280DD1012E0BD1DFF868
:104C90004C072978312903D1012181730120F2BD0C
:104CA00000218173FAE70FF65C31204602F022FE04
:104CB00000280CD1012E0AD1DFF8200729783129EC
:104CC00002D10121C173E9E70021C173E6E70FF6C4
:104CD0004031204602F00EFE002804D10120DFF80A
:104CE000FC164873DAE70FF63431204602F002FE74
:104CF000002804D10020DFF8E4164873CEE73822FC
:104D00000FF62431384601F0F5FC0020F2BD00001A
:104D100000007A440000C84270B5002421E0DFF8AA
:104D2000B00604EB440110EB011505F1BC014FF492
:104D3000807002F0A4FE002800F09C8005F1C801FC
:104D40004FF4817002F09BFE002800F0938005F183
:104D5000D4014FF4827002F092FE002800F08A80A5
:104D6000641C062CDBD3002434E0DFF8640604EB7B
:104D7000440110EB011505F1BE063146600000F557
:104D8000887002F07CFE002874D005F1CA014FF44F
:104D90008E7002F074FE00286CD005F1D6014FF43D
:104DA0008F7002F06CFE002864D040F26915B6F9ED
:104DB000000003F0CFFAA8425CDAB6F90C0003F069
:104DC000C9FAA84256DAB6F9180003F0C3FAA842A5
:104DD00050DA641C062CC8D30024062C4CD2DFF811
:104DE000F00504EB440110EB011505F1C006314656
:104DF0004FF4A87002F043FE00283BD005F1C20139
:104E00004FF4A97002F03BFE002833D005F1CC012D
:104E10004FF4AA7002F033FE00282BD005F1CE012A
:104E20004FF4AB7002F02BFE002823D005F1D8011F
:104E30004FF4AC7002F023FE00281BD005F1DA011C
:104E40004FF4AD7002F01BFE002813D0B6F900003D
:104E5000B6F9021088420DDAB6F90C00B6F90E1058
:104E6000884207DAB6F91800B6F91A10884201DA52
:104E7000641CB2E7002070BD012070BD002139E044
:104E8000DFF84C25531893F84800002831D1F0EE94
:104E9000400A93F94E0010F1010F03D1B7EE001A4A
:104EA00071EE600A01EB410002EB800090ED151AF3
:104EB000D0ED161A90ED172A01EB410302EB031215
:104EC000AC32D0ED002A72EEC12A02EEA01A82EDB9
:104ED000001A90ED011A31EE611A41EE201AC2ED6E
:104EE000011A90ED021A31EE421A01EE202A82EDEB
:104EF000022A491C0629C3D30120704700401C46E2
:104F0000F8B52DED088B8CB0B0EE408A002001463C
:104F1000062980F0F180DFF87428525C012A00F045
:104F2000E980022A00F0E680491CF1E7B0F5FA6F4B
:104F300002DB9FED7C0A0AE0DFF85428904202DA97
:104F40009FED790A03E0DFED790A80EE200AD1EDCA
:104F5000020AB8EEE09ADFEDBB8AF0EE000A30EE0E
:104F6000C00A20EE280AF5EE000A20EE200A03F01F
:104F7000F5F910EE100A03F0CBFA04460D4619EECF
:104F8000100A03F0C5FA21F0004122462B4603F037
:104F9000E3FA03F0B3FB09EE900A06A8182100F02B
:104FA00009FE6846182100F005FE9FED61AA002465
:104FB00030E0DFF81C0400F14801095D012901D04F
:104FC000022926D104EB440100EB8100D0ED15AAA3
:104FD00090ED17BA39EEEA0A20EE000A0BEE0B0A42
:104FE00003F0C0FB06A800EB840080ED000AB4EEDD
:104FF00040AAF1EE10FA01D5B0EE40AA7AEEE90A25
:10500000B0EE4B0A03F0BEFB684600EB840080ED77
:10501000000A641C062CCCD3B5EE40AAF1EE10FABF
:1050200001D100207AE0F5EE409AF1EE10FA02DBB1
:105030009FED400A01E09FED400AB8EEC00A20EE65
:10504000090A80EE0A9A0027062F66D2E04DEC1975
:1050500094F84800012801D0022849D1B0EE48AAAE
:1050600094F94E0010F1010F03D1B7EE000A30EEB3
:105070004AAABEEE000A3AEE000A684600EB870034
:10508000D0ED00AA40EE09AA07EB470005EB00109F
:1050900000F1AC0606A800EB870090ED00BAB0EE78
:1050A0006A0A03F091FCF0EE690A4BEE000AC6EDC5
:1050B000000AB0EE6A0A03F089FC2BEE000A86EDC6
:1050C000020A07EB470005EB800594F84800012829
:1050D0000CD02AEE280A03F079FCF3EE0E0A95EDC7
:1050E000161A00EE201A86ED011A01E0A86D706014
:1050F0007F1CA9E70121084600280ED0B74991ED91
:10510000010AB8EEC00AFDEEC00A10EE900A0028AF
:105110007FF40CAF9FEDA40A19E701200CB0BDECA1
:10512000088BF2BD3BDFFF3F3BDFFFBF00007A444F
:105130000000000001000000FFFFFFFF70B52DED33
:105140000C8B88B0B0EE409AF0EE608A04469FED7A
:10515000970AF4EE408AF1EE10FA02D5F0EE408A9A
:1051600008E0DFED930AF4EE608AF1EE10FA01DB5D
:10517000DFED908AB4EE409AF1EE10FA02D5B0EE6F
:10518000409A08E09FED8A0AB4EE409AF1EE10FAD8
:1051900001DB9FED889AF5EE408AF1EE10FA02D518
:1051A000DFED859A01E0DFED859AB5EE409AF1EEEC
:1051B00010FA02D59FED82AA01E09FED82AADFEDF1
:1051C00021BA29EE2B0ADFED800A80EE20CAB0EE6C
:1051D0004C0A03F0F9FBB0EE408A9FED7CBAB0EECA
:1051E0004C0A03F0F3FB00EE0B8AB0EE4C0A03F01E
:1051F000EDFB68EE00AAB0EE4C0A03F0E5FB40EED2
:105200004BAA28EEAB0ADFED700A80EE20CAB0EEA2
:105210004C0A03F0D9FB60EE0BBAB0EE4C0A03F077
:10522000D5FB48EE00BAB0EE4C0A03F0CFFB2BEEF4
:1052300080BAB0EE4C0A03F0C7FB08EE40BA002576
:1052400054E000BFDB0F4940B7EE00CAB0EE4C0A95
:105250005F4805EB450100EB011000F1AC0696ED4F
:10526000028AB5EE408AF1EE10FA0FD018EE100A5D
:1052700003F04EF941EC100B53EC102B23F00043DC
:1052800003F0A6FB03F03AFA00EE100ADFED51CA74
:1052900000EE2C8A96ED00DAB5EE40DAF1EE10FA67
:1052A0000FD01DEE100A03F033F941EC100B53EC54
:1052B000102B23F0004303F08BFB03F01FFA0CEEDE
:1052C000100A0CEE2CDA39EECD0A20EE2B0A7AEE1B
:1052D000480A00EEAA0AFFEE000A20EE200A80EE3D
:1052E0000B0A04EB850080ED000A6D1C062DABD384
:1052F0003A48C07B002853D001F03DFC054600F041
:1053000034FC9FED350A68EE800AFDEEE00A10EEEF
:10531000902A12B2069229EE000ABDEEC00A10EEE3
:10532000102A12B2059294ED050ABDEEC00A10EEE5
:10533000102A12B2049294ED040ABDEEC00A10EED7
:10534000102A12B2039294ED030ABDEEC00A10EEC9
:10535000102A12B2029294ED020ABDEEC00A10EEBB
:10536000102A12B2019294ED010ABDEEC00A10EEAD
:10537000102A12B2009294ED000ABDEEC00A10EE9F
:10538000103A1BB202460FF2D841284602F092FAB8
:10539000002008B0BDEC0C8BBDE8704001F0EDBB07
:1053A00008B0BDEC0C8B70BD6F12833ACDCCCCC075
:1053B000CECCCC40CDCCCC4000005743000057C3EE
:1053C00000002E4300002EC3000034430000000004
:1053D000881600200000D0420000C842780100205A
:1053E000D419002070B52DED0A8B0546002620E16A
:1053F00028EE08BA60EE00BA28EEA8CAF0EE00CA9D
:105400007CEE2B0A70EECB0A28EEAC1A21EE000AD5
:1054100080EE800A03F000FC20EE090ADFEDD90AD5
:1054200080EE200A79EEC09A3BEE0C0A30EE6B0A51
:1054300068EE2C0A60EEA80A80EE200A03F0ECFB6E
:105440006AEE890A9FEDCF1AC0EE810A79EEE00A72
:10545000C4ED060A20EE090ADFEDCA0A80EE200A32
:1054600030EE4A0A84ED090AB4F9140000EE100A7D
:10547000B8EEC00AD4ED030AF4EE400AF1EE10FAD9
:1054800018D501F078FBB4F9143094ED030ABDEEA1
:10549000C00A10EE102A0FF2244102F00BFA00208D
:1054A00001F06BFBB4F9140000EE100AB8EEC00A6C
:1054B00084ED030AB4F9160000EE100AB8EEC00A33
:1054C000D4ED030AB4EE600AF1EE10FA18D501F03B
:1054D00052FBB4F9163094ED030ABDEEC00A10EE8B
:1054E000102A0FF2D83102F0E5F9002001F045FB57
:1054F000B4F9160000EE100AB8EEC00A84ED030AF3
:10550000B4F9200000EE100AB8EEC00AD4ED060A85
:10551000F4EE400AF1EE10FA18D501F02CFBB4F9C4
:10552000203094ED060ABDEEC00A10EE102A0FF2EC
:10553000BC3102F0BFF9002001F01FFBB4F92000DC
:1055400000EE100AB8EEC00A84ED060AB4F9220093
:1055500000EE100AB8EEC00AD4ED060AB4EE600AF6
:10556000F1EE10FA18D501F006FBB4F9223094EDF3
:10557000060ABDEEC00A10EE102A0FF2703102F0DA
:1055800099F9002001F0F9FAB4F9220000EE100AAE
:10559000B8EEC00A84ED060AB4F92C0000EE100A39
:1055A000B8EEC00AD4ED090AF4EE400AF1EE10FAA2
:1055B00018D501F0E0FAB4F92C3094ED090ABDEEEB
:1055C000C00A10EE102A0FF2543102F073F90020D5
:1055D00001F0D3FAB4F92C0000EE100AB8EEC00ABC
:1055E00084ED090AB4F92E0000EE100AB8EEC00AE4
:1055F000D4ED090AB4EE600AF1EE10FA18D501F004
:10560000BAFAB4F92E3094ED090ABDEEC00A10EED4
:10561000102A0FF2083102F04DF9002001F0ADFA26
:10562000B4F92E0000EE100AB8EEC00A84ED090AA3
:10563000761C062E80F0A280564806EB460100EB51
:10564000011000F1AC04B4F91E0000EE100AF8EEEF
:10565000C09AB4F92A0000EE100AB8EEC0AA208A57
:1056600000EE100AF8EE40AAA08B00EE100AF8EE49
:10567000408A208D00EE100AB8EE408A94ED009A20
:1056800094ED010A05EB8600D0ED000A30EE20BA59
:1056900094ED02CAB4F9120000EE100AB8EEC00A86
:1056A000DFED380A20EE200ADFED370AC0EE20CA0F
:1056B000B0EE6C0A03F088F969EE00BAB0EE6C0A3D
:1056C00003F084F94CEE00BAB0EE6C0A03F07EF9F8
:1056D00029EE009AB0EE6C0A03F076F92CEE000A7F
:1056E00030EE49CAF0EE6B0AB0EE4C0A03F04AF80D
:1056F000F0EE40CA9FED249A2CEE890ADFED210AD4
:1057000080EE200A84ED030AB0EE6C0A03F05CF927
:105710006BEE80BAB0EE6C0A03F058F94CEE00BAAA
:105720007BEEEABAF0EE6B0AB0EE4B0A03F02AF811
:10573000F0EE40AA2BEEAB0A0BEE0B0A10EE100AAD
:1057400002F0E6FE41EC100B03F098FA51EC100B5E
:1057500002F0D4FF00EE100A78EE880AF4EE400A58
:10576000F1EE10FA7FF544AE01F005FA49A102F01E
:10577000A1F8002001F001FA002000E00120BDECBA
:105780000A8B70BDDB0F494000003443D016002067
:1057900031F8FFFF881600205B4D4F54494F4E20D3
:1057A000434F52455D3A20256C752025642C2564B5
:1057B0002C25642C25642C25642C25642C25642C34
:1057C00025642C25642C25642C25642C25642C252B
:1057D000642C25642C25642C25642C25642C2564DC
:1057E0002C25642C25642C25642C25642C25642C04
:1057F00025642C25642C25640D0A00006C6F6767F6
:10580000696E6700676C2D6C6F6767696E67000073
:10581000676C2D656E61626C65000000676C2D64BD
:10582000697361626C6500003E201B5B33316D550E
:105830006E6B6E6F776E20636F6D6D616E64206F3F
:105840007220666F726D617420666F72207365726C
:10585000766F206472697665720D0A1B5B306D008D
:105860005B4D4F54494F4E20434F52455D3A2025E2
:105870006C75205B25642C25642C25645D205B25DC
:10588000642C25642C25645D205B25642C25645DD7
:105890000D0A00005B4D4F54494F4E20434F524577
:1058A0005D3A20506F696E74206E6F74206174745D
:1058B00061696E61626C650D0A0000005B4D4F54BA
:1058C000494F4E20434F52455D3A20434F584120A7
:1058D00070726F74656374696F6E2066726F6D208D
:1058E000256420746F2025640D0A00005B4D4F5421
:1058F000494F4E20434F52455D3A2046454D555243
:105900002070726F74656374696F6E2066726F6D5C
:1059100020256420746F2025640D0A005B4D4F54D0
:10592000494F4E20434F52455D3A20544942494128
:105930002070726F74656374696F6E2066726F6D2C
:1059400020256420746F2025640D0A0010B503F033
:1059500056FA744CA11C102002F091F8002801D1D5
:10596000002060800120207010BD000010B56D4C3B
:10597000102000F078F8012803D100206070A0808A
:1059800010BD2078401E042845D8DFE800F0030849
:105990000F25360003F084FA0220207010BD03F0BA
:1059A00088FA01283ED10320207010BD03F084FA4C
:1059B0002169081820616069401C6061642804D373
:1059C000002060610420207010BD00F0CEF8C4E912
:1059D00002010520207010BD00F050F8607800280A
:1059E00002D1082000F01FF80020206100F0BDF86F
:1059F000C4E902010520207010BD00F0B6F8D4E91A
:105A00000223801A994100290CD301D8062809D312
:105A10000120207010BD012000F005F81020BDE825
:105A200010400BE010BD40490A78104308707047E1
:105A30003D490A7822EA0000087070473B490A781D
:105A400010430870704739490A7822EA000008704C
:105A5000704701463448007801400846401E8041A6
:105A6000C043C00F704701463048007801400846E7
:105A7000401E8041C043C00F7047000029480169A3
:105A80006422B1FBF2F100EE101AB8EE400ADFED2D
:105A90001D0A20EE200ADFED1C0A20EE200ABCEED3
:105AA000C00A10EE101AB0F90220891882889142BB
:105AB00000DA8180818800EE101AB8EE400ADFED2E
:105AC000130A30EE200ADFED120A80EE200ADFED25
:105AD000110A20EE200AB5EE400AF1EE10FA01D5C7
:105AE0009FED0D0ADFED0D0AB4EE600AF1EE10FA3B
:105AF00001DB9FED0B0ABDEEC00A10EE101A4170DB
:105B0000704700003333533AD9E47B4500A00CC6FC
:105B1000000061450000C842000000000100C642CC
:105B20000000C64260010020AB1A0020AC1A002021
:105B3000010007D4012200F01F018A4019494009E1
:105B400041F82020704700200146174AC2E90001B1
:105B5000164881601649416007210160016841F0E3
:105B6000010101604FF0FF30E2E70F48D0E900018A
:105B70007047F0B40C4AD2E900450021D2E9006731
:105B8000361BAF418F42F9D301D88642F6D3F0BC21
:105B900070470548D0E90023521C63F1FF33C0E988
:105BA0000023704700E100E0901A002010E000E0C0
:105BB00040190100002203F0A3B9F0B402461068B6
:105BC00095681318506803EB5004C0071DD54D4469
:105BD0001BE013F8017B05F8017B491EF9D1A0B148
:105BE000B60813F8011B06F00306032E08BF13F8CE
:105BF000016B01EB06214942801C294405D011F8B4
:105C0000016B05F8016B401EF9D1A3420ED013F8C9
:105C1000016B16F0030104BF13F8011BC91C300906
:105C20000F28DAD113F8010B0F30D6E7F0BC02F1E0
:105C30000C00704710B44900036803248C40A34350
:105C4000036003688A401A43026010BC704710B4B6
:105C5000436801248C40A3434360436802FA01F186
:105C60001943416010BC704710B449008368032495
:105C70008C40A343836083688A401A43826010BCCF
:105C8000704710B44900C36803248C40A343C36029
:105C9000C3688A401A43C26010BC704782690123FE
:105CA00003FA01F1114381617047826A012303FA0B
:105CB00001F111438162704710B5DFF85C460221A3
:105CC0002046FFF7F2FF012202212046FFF7B2FF34
:105CD000002202212046FFF7BAFF002202212046BF
:105CE000FFF7C2FF002202212046FFF7CAFF00F0A3
:105CF000E0FA002808D10320FFF795FE0220FFF705
:105D00009DFEBDE8104023E0C820BDE8104003F030
:105D100011B980B5122808D30120FFF784FE0220B4
:105D2000FFF78CFEBDE8014012E0DFF8F015C0EB94
:105D3000C00201EB820080ED000A01BD80B50221A6
:105D4000DFF8D405FFF7AAFFBDE8014003F077B9FB
:105D500080B50221DFF8C005FFF7A7FFBDE80140CD
:105D600003F07DB9642800D9642000EE100AB8EE73
:105D7000400ADFED9C0A80EE200ADFED9B0A9FEDD2
:105D80009B1A00EE201ABCEEC10A10EE100A03F0B6
:105D90006BB9F0B5A3B00220FFF765FE012803D16F
:105DA00023B0BDE8F040D3E7012003F068F90025F7
:105DB000DFF86845122D49D2C5EBC50004EB80041D
:105DC00094ED000AA07A012805D1B4F90C0000EE88
:105DD000100AB8EEC00A204600F0A4FA84ED010AC9
:105DE000A07A022805D1B4F90C0000EE100AB8EE32
:105DF000C00AA08A00EE900AF8EE600AE08AA18A42
:105E0000401A01EE100AB8EEC11A208B01EE900A7A
:105E1000F8EE611A81EE211A41EE000ABCEEE00AAA
:105E200010EE100A20812089A18A8842C0F0CF801C
:105E30000146E08A8842C0F0CA80A07A032800D1D7
:105E4000A189284603F01FF96D1CB1E7002003F07B
:105E500016F9DFF8CC040078002800F0B68000F0D6
:105E60008AFE0546FFF781FE04F15C0204F1B003EF
:105E700004F5827604F5AC7704F5D67CBCF838E0FE
:105E8000CDF888E09CED0C0ABDEEC00A8DED210A2C
:105E9000BCF81CE0CDF880E09CED050ABDEEC00A20
:105EA0008DED1F0ABCF800C0CDF878C097ED130A3D
:105EB000BDEEC00A8DED1D0AB7F838C0CDF870C030
:105EC00097ED0C0ABDEEC00A8DED1B0AB7F81CC099
:105ED000CDF868C097ED050ABDEEC00A8DED190A30
:105EE0003F88189796ED130ABDEEC00A8DED170A8C
:105EF000378F169796ED0C0ABDEEC00A8DED150A88
:105F0000B78B149796ED050ABDEEC00A8DED130A06
:105F10003688129693ED130ABDEEC00A8DED110A74
:105F20001E8F109693ED0C0ABDEEC00A8DED0F0A80
:105F30009E8B0E9693ED050ABDEEC00A8DED0D0AFF
:105F40001B880C9392ED130ABDEEC00A8DED0B0A6F
:105F5000138F0A9392ED0C0ABDEEC00A8DED090A6B
:105F6000938B089392ED050ABDEEC00A8DED070AEA
:105F70001288069294ED150ABDEEC00A8DED050A51
:105F8000B4F84020049294ED0E0ABDEEC00A8DEDE7
:105F9000030AA28C029294ED070ABDEEC00A8DEDB1
:105FA000010A2289009294ED000ABDEEC00A10EEAB
:105FB000103A02460FF2DC31284601F07BFC00204B
:105FC00023B0BDE8F04000F0D8BD23B0F0BD2020E4
:105FD000FFF729FD0220FFF731FD23B0BDE8F040B7
:105FE000B6E600000000C8420000024300008C42F8
:105FF0002DE9FF4180460E4614461D460FF214411E
:1060000001F078FC002805D1002C03D1FFF7A0FE99
:1060100001201CE00FF20841404601F06BFC002813
:1060200005D1002C03D1FFF789FE01200FE00FF20C
:10603000FC31404601F05EFC00280ED1012C0CD151
:10604000B7483178312905D101210170012004B010
:10605000BDE8F08100210170F8E70FF2D831404629
:1060600001F048FC002816D100200BE0C0EBC00175
:106070008A00AA49012301F10A04A35400230C3128
:106080008B52401C1228F1D30FF2B431284601F094
:1060900011FC0120DBE7002C07D126220FF2C831CA
:1060A000284600F027FB0020D1E7304603F02BF90B
:1060B0000746122F07D929220FF2D431284600F0C3
:1060C00019FB0020C3E70FF2F431404601F012FC47
:1060D000002820D1012C1ED19048C7EBC70100EB4E
:1060E0008100B0F9101003910189029190ED010A2D
:1060F000BDEEC00A8DED010A90ED000ABDEEC00AAA
:106100008DED000AB0F90C30827A0FF2B8312846D2
:1061100001F0D0FB9AE70FF2A441404601F0EAFB00
:10612000002814D1022C12D17C48C7EBC70110EB18
:10613000810406F1400003F0E6F82082B4F9103043
:106140003A460FF28841284601F0B4FB7EE70FF291
:10615000A841404601F0CEFB002815D1022C13D1F6
:106160006E48C7EBC70110EB81040120A07206F155
:10617000400003F0C8F8A081A37A3A460FF28441A8
:10618000284601F097FB61E70FF2A841404601F075
:10619000B1FB002815D1022C13D16048C7EBC70111
:1061A00010EB81040220A07206F1400003F0ABF86E
:1061B000A081A37A3A460FF24C41284601F07AFBBF
:1061C00044E70FF27C41404601F094FB002815D1D2
:1061D000022C13D15148C7EBC70110EB81040320F7
:1061E000A07206F1400003F08EF8A081A37A3A462F
:1061F0000FF21041284601F05DFB27E70FF24C41FA
:10620000404601F077FB002811D1012C0FD1434803
:10621000C7EBC70100EB8100012181720021818160
:106220003A460FF23441284601F044FB0EE70FF2E4
:106230005041404601F05EFB002819D1012C17D1D6
:106240003648C7EBC70110EB81040220A07220463C
:106250009FED300A00F066F8BCEEC00A10EE100A9E
:10626000A0813A460FF22441284601F023FBEDE6D7
:106270000FF24041404601F03DFB002811D1012CB6
:106280000FD12648C7EBC70100EB810000218172C6
:106290008181837A4FEA0702DAA1284601F00AFBDE
:1062A000D4E638220FF21441284600F023FA0020E9
:1062B000CDE670B50025122D28D2EC0004F500744F
:1062C0001648C5EBC50110EB810606F10E0120460C
:1062D00001F0D3FB00281BD0B07BFF2818D00009A9
:1062E00016D1872070824FF4FA70B08240F6C41045
:1062F000F0824FF48770308306F11001A41C204611
:1063000001F0BDFB002803D06D1CD4E7012070BD57
:10631000002070BD0000000000080048901400201C
:10632000AA1A002080B52DED028BB0F9101000EEF6
:10633000901AF8EEE00A30EE800A418A00EE901AD8
:10634000F8EE600A817BC90702D530EEC08A01E011
:1063500030EE808AB5EE408AF1EE10FA09D4008B57
:1063600000EE100AB8EE400AB4EE480AF1EE10FA58
:106370000AD52020FFF757FB0220FFF75FFBFFF74E
:10638000E7FCB0EE480A01E0B0EE480ABDEC028B33
:1063900001BD00005B534552564F204452565D3AB2
:1063A00020256C752025642C25642C25642C2564FF
:1063B0002C25642C25642C25642C25642C25642C28
:1063C00025642C25642C25642C25642C25642C251F
:1063D000642C25642C25642C25642C25642C2564D0
:1063E0002C25642C25642C25642C25642C25642CF8
:1063F00025642C25642C25642C25642C25642C25EF
:10640000642C25642C25642C25642C25642C25649F
:106410000D0A0000706F7765722D6F6666000000D0
:10642000706F7765722D6F6E000000006C6F67678C
:10643000696E670063616C6962726174696F6E0096
:106440003E201B5B33326D6D6F76656420616C6C32
:1064500020746F206C6F676963207A65726F0D0A14
:106460001B5B306D000000003E201B5B33316D5321
:106470006572766F20696E646578206973206E6F2F
:106480007420666F756E640D0A1B5B306D00000032
:106490003E201B5B33316D536572766F20696E64ED
:1064A0006578206973206F7574206F662072616E45
:1064B00067650D0A1B5B306D00000000737461742A
:1064C000757300003E201B5B33326D736572766F0F
:1064D00020737461747573207265706F72740D0A25
:1064E0001B5B306D3E201B5B33326D202020202D46
:1064F000206F76657272696465206C6576656C3AAA
:1065000020256C750D0A1B5B306D3E201B5B333202
:106510006D202020202D206F7665727269646520C1
:1065200076616C75653A20256C750D0A1B5B306DC4
:106530003E201B5B33326D202020202D206C6F67A6
:10654000696320616E676C653A20256C750D0A1BC6
:106550005B306D3E201B5B33326D202020202D20D0
:1065600070687973696320616E676C653A20256C89
:10657000750D0A1B5B306D3E201B5B33326D202096
:1065800020202D2070756C73652077696474683ADB
:1065900020256C750D0A1B5B306D3E201B5B333272
:1065A0006D202020202D207A65726F207472696D15
:1065B0003A20256C750D0A1B5B306D007365742DD8
:1065C0007A65726F2D7472696D0000003E201B5B4E
:1065D00033326D5B256C755D20686173206E657765
:1065E000207A65726F207472696D20256C750D0AB2
:1065F0001B5B306D000000007365742D6C6F676964
:10660000630000003E201B5B33326D5B256C755DC3
:1066100020686173206E6577206F76657272696499
:1066200065206C6576656C20256C750D0A1B5B30EA
:106630006D0000007365742D7068797369630000E4
:106640007365742D70756C73650000006C6F6769FD
:10665000632D7A65726F00003E201B5B33326D5BE9
:10666000256C755D206D6F76656420746F206C6F8E
:10667000676963207A65726F0D0A1B5B306D0000DD
:106680007068797369632D7A65726F003E201B5BB9
:1066900033326D5B256C755D206D6F76656420749B
:1066A0006F20706879736963207A65726F0D0A1BB9
:1066B0005B306D0072657365740000003E201B5BEB
:1066C00033316D556E6B6E6F776E20636F6D6D61DC
:1066D0006E64206F7220666F726D617420666F72D7
:1066E00020736572766F206472697665720D0A1B7D
:1066F0005B306D0062B38B0708D0521E11F8013B6E
:1067000000F8013B00F024808B07F6D1830740F0AE
:10671000208000BF103A07D330B4B1E83810103AE7
:10672000A0E83810F9D230BC530724BFB1E80810F4
:10673000A0E8081044BF51F8043B40F8043BD207DE
:1067400024BF31F8022B20F8022B44BF0B780370D2
:106750007047121F17D35B0009D151F8043B20F892
:10676000023B1B0C121F20F8023BF6D20BE051F843
:10677000043B00F8013B1B0A20F8023B1B0C121FD4
:1067800000F8013BF3D238BF121D521E24BF11F88E
:10679000013B00F8013BF8D8704730B4002513E006
:1067A00050F8042BD30744BFA9F101039A18091F1D
:1067B000042942F8045BFAD213468C0744BF1580C3
:1067C0009B1CC90748BF1D7050F8041B0029E7D166
:1067D00030BC7047E0B50FF2152000900FF2192081
:1067E00001906946874802F019FE02F06CFE012014
:1067F0008549087007BD0000F8B586B0824CD4E921
:1068000006014FF0FF321346994205D1904203D161
:10681000FFF7ABF9C4E906012078022840F07A803E
:1068200002F068FE0546206A16286FD12878AA284B
:106830006CD1687DAA2869D10126002708E00222D0
:10684000A919201D00EB4700FFF754FFB61C7F1C61
:10685000062FF4D3002709E00422A91904F110003F
:1068600000EB8700FFF746FF361D7F1C022FF3D396
:10687000607800281DD000F07EF9616905912169DA
:106880000491B4F90E100391B4F90C100291B4F90B
:106890000A100191B4F90810CDF80010B4F90630CF
:1068A000B4F9042059A101F005F8002000F065F9C1
:1068B00028E0A078002818D000F05DF9B4F90E1097
:1068C0000391B4F90C100291B4F90A100191B4F9D2
:1068D00008100091B4F90630B4F9042052A100F078
:1068E000E9FF002000F049F90CE0E078002809D029
:1068F00000F041F96369226950A100F0DBFF00203C
:1069000000F03BF9FFF731F9C4E9060102F0DBFDC5
:10691000012020704020FFF796F8FFF726F9D4E910
:106920000623801A9941002913D301D8332810D3A4
:1069300000220C21201D02F0DFFA0022082104F1C0
:10694000100002F0D9FA402007B0BDE8F040FFF790
:1069500075B807B0F0BD2C4A131D036002F110009A
:106960000860704770B50D4616461C4635A100F00C
:10697000C1FF002833D1244C012E0BD128783128B7
:1069800002D10120607001E0002060700020A07042
:10699000E07022E0022E20D1002060702BA128465A
:1069A00000F0A8FF002806D195F84000312802D158
:1069B0000120A07001E00020A07000BF25A12846A2
:1069C00000F098FF002806D195F84000312802D148
:1069D0000120E07001E00020E070012070BD38224D
:1069E0001EA12046FFF786FE002070BD0649086202
:1069F000022008707047000001200349087002F06F
:106A000062BD000020A107003801002025642C256C
:106A1000642C25642C25642C25642C256420256495
:106A20002C25640D0A00000025642C25642C2564A7
:106A30002C25642C25642C25640D0A0025642C2546
:106A4000640D0A006C6F6767696E6700666F6F742C
:106A500000000000616363656C0000003E201B5B6A
:106A600033316D556E6B6E6F776E20636F6D6D6138
:106A70006E64206F7220666F726D617420666F7233
:106A800020736572766F206472697665720D0A1BD9
:106A90005B306D00BFF34F8FBB490A6802F4E062C0
:106AA000BA4802430A60BFF34F8F00BFFDE7E0B56D
:106AB0000FF2BD2000900FF2C12001906946B4484A
:106AC00002F0D6FD0120B349087002F04CFE07BD6C
:106AD00038B5D2B0AF4C207802284AD142A8402124
:106AE000FFF768F832A84021FFF764F802A8C02138
:106AF000FFF760F800208DF8040002F052FE054612
:106B000002F051FE0021297001A9009102AB32AAC6
:106B100042A900F0F2F801281CD100959DF804303C
:106B200002AA32A942A800F039F80028287808D132
:106B3000002815D113220FF26C212846FFF7DAFD49
:106B40000EE000280CD110220FF26C212846FFF72E
:106B5000D1FD05E013220FF24C212846FFF7CAFDB4
:106B6000284602F083FE02F0DFFD02F0FCFD01206A
:106B7000207053B030BD02F014BE38B5044602F0A8
:106B800010FE0546002C02D0214602F08BFE28465E
:106B900002F06CFEBDE8324002F0C6BD2DE9FC41BA
:106BA00005460E4617469846089C0FF21C2100F039
:106BB000A1FE002805D073A1284600F09BFE002806
:106BC00005D100BF82A1204600F074FE92E00FF6CE
:106BD0007031284600F08EFE002835D10FF668315E
:106BE000304600F087FE002807D10FF688320FF6F6
:106BF0006031204600F05EFE7CE00FF68C313046BE
:106C000000F078FE00280CD16348008800906348AB
:106C10000378634802780FF67831204600F04AFE88
:106C200068E00FF60841304600F064FE002803D10A
:106C3000FFF78EF8FFF72EFF28220FF6F8312046D7
:106C4000FFF758FD002056E00FF61041284600F0EF
:106C500051FE002808D1234642463946304602B04C
:106C6000BDE8F041FFF7C4B90FF6F831284600F04F
:106C700041FE002808D1234642463946304602B03C
:106C8000BDE8F041FDF7F6BF0FF6E031284600F011
:106C900031FE002808D1234642463946304602B02C
:106CA000BDE8F041FFF75EBE0FF6C831284600F0A0
:106CB00021FE002808D1234642463946304602B01C
:106CC000BDE8F04100F0E0BE0FF6B031284600F01C
:106CD00011FE002808D1234642463946304602B00C
:106CE000BDE8F04102F0FCBE21220FF69C312046A7
:106CF000FFF700FD0120BDE8F6812DE9F0410C46CB
:106D000017461E460FF6A435294603F0CBF8002897
:106D100028D00146204602F0C5FD2946002003F098
:106D2000C1F8002820D00146384602F0BBFD4FF0E4
:106D30000008069F09E0214606EB881002F0B2FD2C
:106D40003878401C387008F10108B8F1030F0BD2F5
:106D50002946002003F0A6F8040005D002F086FDC5
:106D60004128E8D3002000E00120BDE8F0810000C8
:106D7000022008490870704701200649087002F097
:106D8000F2BC00003F0000000CED00E00400FA053A
:106D900040420F00A81A002064010020AC1A002015
:106DA000AB1A00203E201B5B33316D4552524F52CF
:106DB0000D0A1B5B306D00003E201B5B33326D4FB4
:106DC0004B0D0A1B5B306D0068656C7000000000A5
:106DD0003E201B5B33336D2B2D2D2D2D2D2D2D2D79
:106DE0002D2D2D2D2D2D2D2D2D2D2D2D2D2D2D2DD3
:106DF0002D2D2D2D2D2D2D2D2D2D2D2D2D2D2D2DC3
:106E00002D2D2D2D2D2D2D2D2D2D2D2D2D2D2D2DB2
:106E10002D2D2D2D2D2D2D2D2D2D2D2D2D2D2D2DA2
:106E20002B0D0A1B5B306D3E201B5B33336D7C20CA
:106E30004172746966696369616C20696E74656C1E
:106E40006C6967656E63652077616C6B696E67203E
:106E50006D616368696E65202D20434C492068652B
:106E60006C702073756273797374656D20202020B7
:106E7000202020202020207C0D0A1B5B306D3E202E
:106E80001B5B33336D2B2D2D2D2D2D2D2D2D2D2DCC
:106E90002D2D2D2D2D2D2D2D2D2D2D2D2D2D2D2D22
:106EA0002D2D2D2D2D2D2D2D2D2D2D2D2D2D2D2D12
:106EB0002D2D2D2D2D2D2D2D2D2D2D2D2D2D2D2D02
:106EC0002D2D2D2D2D2D2D2D2D2D2D2D2D2D2B0D14
:106ED0000A1B5B306D3E201B5B33336D0D0A1B5B61
:106EE000306D3E201B5B33336D48656C6C6F2E201C
:106EF00049207468696E6B20796F7520646F6E2706
:106F00007420756E6465727374616E6420686F7747
:106F100020776F726B2077697468206D653F0D0A6A
:106F20001B5B306D3E201B5B33336D446F6E2774EB
:106F300020776F7272792120492063616E20686525
:106F40006C7020796F750D0A1B5B306D3E201B5BEA
:106F500033336D596F752063616E2073656E6420E5
:106F60006D6520636F6D6D616E6420696E206E6566
:106F7000787420666F726D6174205B6D6F64756CE0
:106F8000655D205B636D645D205B61726720315DD0
:106F9000202E2E2E205B617267204E5D0D0A1B5B3A
:106FA000306D3E201B5B33336D416C736F20796F06
:106FB000752063616E2075736520616C6C20636F52
:106FC0006D6D616E64732066726F6D206C69737491
:106FD0003A0D0A1B5B306D3E201B5B33336D0D0A8F
:106FE0001B5B306D3E201B5B33336D6261736963E5
:106FF00020636F6D6D616E64732064657363726985
:107000007074696F6E0D0A1B5B306D3E201B5B3325
:10701000336D202020202D2068656C7020202020DA
:107020002020202020202020202020202020202060
:107030002020202020202020202020202D206469B6
:1070400073706C61792074686973206D6573736106
:10705000676520616761696E0D0A1B5B306D3E20BC
:107060001B5B33336D202020202D203F202020204B
:107070002020202020202020202020202020202010
:107080002020202020202020202020202020202DF3
:1070900020646973706C61792074686973206D6510
:1070A000737361676520616761696E0D0A1B5B30F0
:1070B0006D3E201B5B33336D2273797374656D22D3
:1070C00020636F6D6D616E647320646573637269B4
:1070D0007074696F6E0D0A1B5B306D3E201B5B3355
:1070E000336D202020202D2076657273696F6E200D
:1070F0002020202020202020202020202020202090
:107100002020202020202020202020202D207072D0
:10711000696E74206669726D77617265207665723A
:1071200073696F6E0D0A1B5B306D3E201B5B333342
:107130006D202020202D2073746174757320202011
:10714000202020202020202020202020202020203F
:1071500020202020202020202020202D2067657442
:107160002063757272656E742073797374656D2017
:107170007374617475730D0A1B5B306D3E201B5B6D
:1071800033336D202020202D2072657365742020FC
:1071900020202020202020202020202020202020EF
:1071A000202020202020202020202020202D207280
:1071B00065736574204D43550D0A1B5B306D3E2091
:1071C0001B5B33336D0D0A1B5B306D3E201B5B3345
:1071D000336D22736572766F2220647269766572F0
:1071E00020636F6D6D616E64732064657363726993
:1071F0007074696F6E0D0A1B5B306D3E201B5B3334
:10720000336D202020202D2063616C6962726174CF
:10721000696F6E203C70756C73655F776964746824
:107220003E20202020202020202020202D2073748C
:1072300061727420736572766F2063616C6962722B
:107240006174696F6E0D0A1B5B306D3E201B5B33F2
:10725000336D202020202D207365745F6F7665725A
:10726000726964655F6C6576656C203C73657276E7
:107270006F3E203C6C6576656C3E20202D2073654A
:1072800074206F76657272696465206C6576656CD2
:107290000D0A1B5B306D3E201B5B33336D202020BD
:1072A000202D207365745F6F766572726964655F07
:1072B00076616C7565203C736572766F3E203C7616
:1072C000616C75653E20202D20736574206F766596
:1072D00072726964652076616C75650D0A1B5B309E
:1072E0006D3E201B5B33336D0D0A1B5B306D3E2002
:1072F0001B5B33336D22636F6E66696722206D6F8F
:1073000064756C6520636F6D6D616E647320646578
:10731000736372697074696F6E0D0A1B5B306D3E2A
:10732000201B5B33336D202020202D20726561648B
:10733000203C706167653E202020202020202020F6
:10734000202020202020202020202020202020203D
:107350002D207265616420706167652028323536A2
:10736000206279746573290D0A1B5B306D3E201B0A
:107370005B33336D202020202D207265616431360F
:10738000203C616464726573733E203C737C753E7F
:1073900020202020202020202020202020202D20E0
:1073A000726561642031362D626974204445432042
:1073B00076616C75650D0A1B5B306D3E201B5B337F
:1073C000336D202020202D20726561643332203CF3
:1073D000616464726573733E203C737C753E20204B
:1073E0002020202020202020202020202D207265F9
:1073F00061642033322D62697420444543207661F4
:107400006C75650D0A1B5B306D3E201B5B33336D65
:10741000202020202D207772697465203C616464EF
:10742000726573733E203C48455820646174613E28
:10743000202020202020202020202D2077726974F9
:10744000652048455820646174610D0A1B5B306DEE
:107450003E201B5B33336D202020202D2077726966
:1074600074653136203C616464726573733E203C00
:107470004445432076616C75653E20202020202005
:10748000202D2077726974652031362D6269742051
:107490004445432076616C75650D0A1B5B306D3E7B
:1074A000201B5B33336D202020202D2077726974E0
:1074B000653332203C616464726573733E203C44E2
:1074C00045432076616C75653E20202020202020D9
:1074D0002D2077726974652033322D6269742044DF
:1074E00045432076616C75650D0A1B5B306D3E204F
:1074F0001B5B33336D202020202D20657261736566
:10750000202020202020202020202020202020207B
:107510002020202020202020202020202020202D5E
:10752000206D6173732065726173652073746F726F
:107530006167650D0A1B5B306D3E201B5B33336D4D
:10754000202020202D2063616C635F636865636B7E
:1075500073756D203C706167653E202020202020DF
:10756000202020202020202020202D2063616C63FB
:10757000756C617465207061676520636865636B15
:1075800073756D0D0A1B5B306D3E201B5B33336DD5
:10759000202020202D20636865636B203C7061678C
:1075A000653E202020202020202020202020202078
:1075B000202020202020202020202D2063686563AB
:1075C0006B207061676520636865636B73756D0D13
:1075D0000A1B5B306D3E201B5B33336D0D0A1B5B5A
:1075E000306D3E201B5B33336D22696E64696361CD
:1075F00074696F6E222064726976657220636F6DA4
:107600006D616E6473206465736372697074696F11
:107610006E0D0A1B5B306D3E201B5B33336D2020EB
:1076200020202D2065787465726E616C2D636F6EFD
:1076300074726F6C203C307C313E20202020202052
:1076400020202020202020202D20656E61626C6586
:1076500020696E6469636174696F6E20636F6E7414
:10766000726F6C0D0A1B5B306D3E201B5B33336DFC
:10767000202020202D207365742D73746174652083
:1076800052474242757A7A657220202020202020BD
:10769000202020202020202020202D2073657420F1
:1076A000737461746520666F72204C454473206169
:1076B0006E642042757A7A65720D0A1B5B306D3EEE
:1076C000201B5B33336D0D0A1B5B306D3E201B5B53
:1076D00033336D466F72206578616D706C6520790B
:1076E0006F752063616E2073656E64206D65206E1A
:1076F00065787420636F6D6D616E643A2073797381
:1077000074656D207374617475730D0A1B5B306D45
:107710003E201B5B33336D4920686F7065206E6FB0
:107720007720796F752063616E20776F726B207799
:10773000697468206D65203A290D0A1B5B306D0065
:1077400073797374656D000076657273696F6E008E
:107750003E201B5B33326D4669726D776172652026
:1077600076657273696F6E3A2025730D0A1B5B3064
:107770006D000000312E30312E3231303831392059
:107780003131323938000000737461747573000050
:107790003E201B5B33326D73797374656D20737497
:1077A00061747573207265706F72740D0A1B5B30A3
:1077B0006D3E201B5B33326D202020202D207379FD
:1077C0007374656D5F7374617475733A20307825D6
:1077D0003034580D0A1B5B306D3E201B5B33326D1D
:1077E000202020202D206D6F64756C655F7374619F
:1077F0007475733A203078253034580D0A1B5B308D
:107800006D3E201B5B33326D202020202D206261D5
:10781000747465727920766F6C746167653A20259F
:1078200064206D560D0A1B5B306D00007265736538
:10783000740000003E201B5B33316D556E6B6E6F24
:10784000776E20636F6D6D616E6420666F7220735A
:10785000797374656D0D0A1B5B306D00736572760C
:107860006F0000006D6F74696F6E0000736D63755B
:1078700000000000636F6E6669670000696E6469EE
:10788000636174696F6E00003E201B5B33316D5580
:107890006E6B6E6F776E206D6F64756C65206E61B8
:1078A0006D650D0A1B5B306D00000000200D0A00A5
:1078B000000000000CB430B583B00A4606A902915E
:1078C000044600250194009502AB01A908487844BC
:1078D0001E3002F00DFB019A157000284EBF0446C1
:1078E0000198041B204603B030BC5DF80CFB00BFC0
:1078F0004F00000081EA00039B0717D1820707D0E1
:1079000010F8012B11F8013BBAB19A42F6D014E0FD
:1079100002680B689A42A2F1013301BF934313F04E
:10792000803F50F8042F51F8043FF3D010F8012B9A
:1079300011F8013B0AB19A42F8D0D01A7047026898
:10794000531C036011707047DFF8E40503F043BA7D
:107950001CB5002405E0204600F01DFB00280ED0D9
:10796000641C032CF7D30020ADF80000694600F03A
:1079700086F8002803D0BDF80000012807D00520B4
:10798000FEF751F80120FEF759F8002016BD01203E
:1079900016BDF8B505460E461446FF222146304670
:1079A00003F06AFB0120FEF75EF8012801D10020F8
:1079B000F2BD601940F2013188420AD30120FEF77E
:1079C00032F80120FEF73AF80020F2BDE41B6519F9
:1079D0002644002C16D08027802C00D82746384615
:1079E000C0B20090334602222946A02003F04CFA90
:1079F0000028EBD14520FEF716F80120FEF71EF80F
:107A00000020F2BD0120F2BDF8B505460E46144631
:107A10000120FEF728F8012801D10020F2BD6019ED
:107A200040F2013188420DD30120FDF7FCFF012017
:107A3000FEF704F80020F2BD0A20FEF79AF8E41BD6
:107A400065192644002C16D02027202C00D8274664
:107A50003846C0B20090334602222946A02003F0E7
:107A60005FFA0028E8D14520FDF7DDFF0120FDF792
:107A7000E5FF0020F2BD0120F2BD012289E70222CC
:107A800087E7042285E700002DE9F8418FB007461B
:107A90000E4614461D460FF2A851FFF72BFF002893
:107AA00006D10120FDF7CFFF012010B0BDE8F08125
:107AB0000FF294513846FFF71DFF002855D1012CD5
:107AC00053D1304601F01FFC0646022E07D9292269
:107AD0000FF27C512846FEF70DFE0020E5E7360246
:107AE000DFF850444FF4807221463046FFF751FFD3
