:020000040800F2
:10000000B8040020A92F00089B1300087F160008E1
:1000100000000000000000000000000000000000E0
:10002000000000000000000000000000131800089D
:100030000000000000000000831B00083D130008C2
:10004000EB21000800000000DB2E000883300008D0
:100050008F3000088B2B00088B2B00088B2B00089F
:1000600000000000BD300008112E0008BF3000085D
:10007000C1300008C3300008C5300008000000008F
:10008000C73000080000000000000000C930000870
:10009000CB300008CD300008CF300008D130000848
:1000A000D3300008D5300008D7300008352E0008BE
:1000B000D9300008FB00003E000B003600010002B2
:1000C0000003000000650054FFEF0000FA80000B01
:1000D0001282000100020000000000000000000089
:1000E0000000000000280000FFFF4581FFFFFA72BA
:1000F00000000000000003E80000000100017FFF95
:10010000FFFE8001001B0000000000000000000056
:1001100000000000003E03304000000002CAE30976
:100120003E800000200000000000000040000000B1
:100130006000000041FF000000000B2A000016557F
:1001400000002182FD872650FD800000001F000076
:100150000005800000000000000100000002000017
:1001600000030000400000000000046F0002653240
:1001700000005EC040000000000000000000000021
:1001800000000000FB8C6F5DFD5D08D9007C733BB7
:10019000006C12CC3200139D3200D0D63200080021
:1001A000400001F4FFE68079020000000000D0D694
:1001B00000002710FB0000004000000000000000CD
:1001C000000000000000000100000000000001002D
:1001D000010000000000FA36FFBC308E0005FBF085
:1001E000FFD95BC8FFD09ABE000010A9FFF41EB271
:1001F00000CEBBF700000001000000040002000276
:100200000200000CFFC280000001800000CF8000CF
:100210004000000000000001000000000000060097
:1002200000000014000000000000000000000000BA
:1002300000000000000000000000000000000000BE
:1002400000000000000000000000000000000000AE
:100250000000000000000000033F68B6793528BCAC
:10026000C67ED16C80000000400000000000B26A31
:1002700000000000000000000000000000003FF04F
:10028000000000300000000000000000000000003E
:10029000000000000000000000000000000000005E
:1002A000000000000000254D002F706D000005AE1D
:1002B000000C02D00000000000650054FFEF0000B9
:1002C00000000000000001000044000000000C00DD
:1002D0000000010000000000006500000054000064
:1002E000FFEF000000000000000000000000000020
:1002F00000000000400000000000000000000000BE
:1003000000000000400000000000000000000000AD
:1003100000000000000000010000000200000000DA
:1003200000000000000000000000000000000000CD
:1003300000000000000000000000000000000000BD
:1003400000000000001B0000000000000000000092
:10035000000000000000000000000000000000009D
:10036000000000000000000000000000000000008D
:1003700040000000001B0000000000000000000022
:10038000000000000000000000000000000000006D
:10039000000000000000000000000000000000005D
:1003A000000000000000000000000000000000004D
:1003B00000000000D8DCBAA2F1DEB2B8B4A8819186
:1003C000F74A907F916AF3F9DBA8F9B0BAA080F2FE
:1003D000CE81F3C2F1C1F2C3F3CCA2B280F1C6D890
:1003E00080BAA7DFDFDFF2A7C3CBC5B6F087A29440
:1003F0002448703C95406834589B78A2F183922D34
:10040000557DD8B1B4B8A1D09180F270F370F27C70
:1004100080A8F101B09887D943D886C988BAA1F2DB
:100420000EB89780F1A9DFDFDFAADFDFDFF2AAC510
:10043000CDC7A90CC92C97979797F1A9892646662D
:10044000B0B4BA80ACDEF2CAF1B28C02A9B69800A0
:10045000890E161EB8A9B4992C547CB08AA8963679
:100460005676F1B9AFB4B083C0B8A89711B18F98E0
:10047000B9AFF0240844106418F1A329557DAF8367
:10048000B593AFF0002850F1A3869F61A6DADEDFB6
:10049000D9FAA38696DB31A6D9F8DFBAA68FC2C5F2
:1004A000C7B28CC1B8A2DFDFDFA3DFDFDFD8D8F1AE
:1004B000B8A8B286B4980D355DB8AA98B0872D3526
:1004C0003DB2B6BAAF8C96198F9FA70E161EB49A7E
:1004D000B8AA872C547CB9A3DEDFDFA3B180F2C4B5
:1004E000CDC9F1B8A9B499830D355D89B9A32D554E
:1004F0007DB593A30E161EA92C547CB8B4B0F19709
:1005000083A81184A50998A383F0DA240844106411
:1005100018D8F1A529557DA58595021A2E3A565A67
:100520004048F9F3A3D9F8F09883240844106418DC
:100530009782A8F111F098A2240844106418DAF305
:10054000DED883A59401D9A302F1A2C3C5C7D8F10F
:100550008492A24DDA2AD84869D92AD86855DA3265
:10056000D85071D932D8705DDA3AD85879D93AD89A
:100570007893A34DDA2AD84869D92AD86855DA324F
:10058000D85071D932D8705DDA3AD85879D93AD87A
:1005900078A88A9AF02850789EF38818F19F1D98C1
:1005A000A8D908D8C89F129EF315A8DA1210D8F15E
:1005B000AFC8978734B5B994A421F3D922D8F22DC6
:1005C000F3D92AD8F235F3D932D881A4606061D941
:1005D00061D86C6869D969D8747071D971D8B1A3C0
:1005E00084193D5DA3831A3E5E931030811011B8CB
:1005F000B0AF8F94F2DA3ED8B49AA88729DAF8D847
:10060000879A35DAF8D8879A3DDAF8D8B1B9A4983C
:1006100085022E56A581000C14A397B08AF12DD91E
:1006200028D84DD948D86DD968D8B1840DDA0ED8FC
:10063000A32983DA2C0ED8A3844983DA2C4C0ED854
:10064000B8B0A88A9AF520AADADFD8A840AAD0DAEA
:10065000DED8A860AADAD0DFD8F19786A8319B0649
:100660009907AB9728889BF00C201440B8B0B4A829
:100670008C9CF0042851791D301438B282ABD0988C
:100680002C505078789BF11AB0F08A9CA8295179A7
:100690008B2951798A2470598B2058718A44693882
:1006A0008B3940688A6448318B304960A5882009BD
:1006B00071584468113964493019F1AC002C547CEC
:1006C000F08CA804285078F1889726A85998AC8C0B
:1006D00002264666F0899CA82951792470594469FC
:1006E00038644831A98809205970AB11384069A88D
:1006F000193148608CA83C415C207C00F187981936
:1007000086A86E767EA999882D557D9EB9A38A22EA
:100710008A6E8A568A5E9FB183062646660E2E4EE4
:100720006E9DB8AD002C547CF2B18CB499B9A32D58
:10073000557D8191AC38AD3AB58391AC2DD928D88F
:100740004DD948D86DD968D88C9DAE29D904AED87A
:1007500051D904AED879D904D881F39DAD008DAEBE
:100760001981ADD901D8F2AEDA26D88E912983A7A6
:10077000D9ADADADADF32AD8D8F1B0AC89913E5E1C
:1007800076F3AC2E2EF1B18C5A9CAC2C2828289CE8
:10079000AC3018A8988128343C9724A728343C9C76
:1007A00024F2B089AC912C4C6C8A9B2DD9D8D851AD
:1007B000D9D8D879D9D8D8F19E88A331DAD8D891A8
:1007C0002DD928D84DD948D86DD968D8B18393355B
:1007D0003D8025DAD8D88569DAD8D8B49381A328A2
:1007E000343CF3AB8BF8A391B609B4D9ABDEFAB0C5
:1007F000879CB9A3DDF1A3A3A3A395F1A3A3A39D14
:10080000F1A3A3A3A3F2A3B49080F2A3A3A3A3A3F1
:10081000A3A3A3A3A3B2A3A3A3A3A3A3B087B599A0
:10082000F1A3A3A398F1A3A3A3A397A3A3A3A3F3C3
:100830009BA3A3DCB9A7F1262626D8D8FF00000089
:100840007CB500263000694608710120009001AB9C
:1008500001227521D02000F02EFC002801D10020BB
:100860002FE168460079C0B24008C0B2342801D0F8
:10087000002026E10120009001AB01226B21D02055
:1008800000F019FC002801D100201AE16846007927
:100890004006400E69460871684600798021014390
:1008A000684601710120009001AB01226B21D0202C
:1008B00000F052FC002801D1002002E11E2000F0CF
:1008C0002DFD0120009001AB01226B21D02000F012
:1008D000F2FB002801D10020F3E068460079BF2137
:1008E0000140684601710120009001AB01226B219B
:1008F000D02000F031FC002801D10020E1E0A64B1F
:1009000000220021A54800F063FA002801D1002050
:10091000D7E000F0F6FA002801D10020D1E0012054
:10092000009001AB01226B21D02000F0C4FB002815
:1009300001D10020C5E0F8246846007920406946CE
:100940000871684600790121014368460171012060
:10095000009001AB01226B21D02000F0FDFB0028AC
:1009600001D10020ADE00120009001AB01221A214D
:10097000D02000F0A0FB002801D10020A1E06846B3
:1009800000790440684604710325684600792843CD
:10099000694608710120009001AB01221A21D02084
:1009A00000F0DAFB002801D100208AE0042069462B
:1009B00008710120009001AB01221921D02000F024
:1009C000CBFB002801D100207BE00120009001AB8F
:1009D00001221C21D02000F06EFB002801D1002054
:1009E0006FE0E724684600792040694608710120DD
:1009F000009001AB01221C21D02000F0ADFB0028AB
:100A000001D100205DE00120009001AB01221B21FB
:100A1000D02000F050FB002801D1002051E06846B2
:100A20000079044068460471684600791821014342
:100A3000684601710120009001AB01221B21D020EA
:100A400000F08AFB002801D100203AE068460571D9
:100A50000120009001AB01227021D02000F07CFB2E
:100A6000002801D100202CE03000694608710120E7
:100A7000009001AB01227121D02000F06DFB002815
:100A800001D100201DE0300069460871012000906E
:100A900001AB01226A21D02000F05EFB002801D1C9
:100AA00000200EE0684606710120009001AB012293
:100AB0003821D02000F050FB002801D1002000E0B8
:100AC000012076BDE0B5C0B200281FD00C206946D9
:100AD00048710120009001AB5B1C01226A21D020EB
:100AE00000F03AFB002801D100202EE0C02069462A
:100AF00048710120009001AB5B1C01226A21D020CB
:100B000000F02AFB00281FD100201EE000206946CB
:100B100008710120009001AB01226A21D02000F071
:100B20001BFB002801D100200FE00C206946087152
:100B30000120009001AB01226A21D02000F00CFBC3
:100B4000002801D1002000E001200EBD3EB500F0DC
:100B5000E2FB04000D0002E0012000F0DFFB00F0EA
:100B6000DAFB001BA941724A0023994212D801D333
:100B700090420FD200206946087001A8002100228F
:100B800006C00838694601A800F00AF80028E3D139
:100B9000002000E001203EBD89070000B4000008ED
:100BA00078B589B005000C00200000F0C5F80028D9
:100BB00001D10020B6E02078002801D10120B1E069
:100BC0005C4C1E200090230001227421D02000F0F4
:100BD00072FA002800D1A7E000206946087202A836
:100BE00000F0AAF8002800D1A0E06846007A0028AA
:100BF000E6D12E0007A80021002206C0083807AD64
:100C00002078000261780843288020790002617909
:100C100008436880207A0002617A0843A880207B1C
:100C20000002617B0843E88003A8102100F09CFBD0
:100C30008D24E4050020285E00F0C0FB210000F0B8
:100C4000C8FB03900220285E00F0B8FB210000F0F2
:100C5000C0FB04900420285E00F0B0FB210000F0EF
:100C6000B8FB05900620285E00F0A8FB210000F0EC
:100C7000B0FB06908024E4050499049800F0FEFB84
:100C800001000D000599059800F0F8FB290000F01F
:100C90004DFC210000F0F2FB0100FE20800500F079
:100CA0007DFC00F0D3FC02000B000092019303993D
:100CB000049800F0E3FB05000599069800F0DEFBC0
:100CC000290000F033FC210000F0D8FB00F0BEFC4E
:100CD000009A019B00F0D4FC00F06AFD306003999B
:100CE000059800F0CBFB05000699049800F0C6FBC0
:100CF0000100280000F052FC210000F0BFFB00F0D2
:100D0000A5FC00F087FD00F053FD70608A4C306850
:100D1000210000F0B3FB30607068210000F0AEFBF2
:100D2000706001200AB070BD0020FBE70020F9E7E9
:100D3000A86100004C0000203EB505000024200002
:100D4000287001A8801C002101800220009001ABC6
:100D50009B1C01227221D02000F0ADF9002801D1A6
:100D6000002034E001A8801C017809024078084383
:100D7000002801D101202AE01E2100F018FE0029E0
:100D800022D0684604710120009001AB01226A2143
:100D9000D02000F090F9002801D1002017E068462B
:100DA0000079FB2101406846017168460079042101
:100DB0000143684601710120009001AB01226A21C4
:100DC000D02000F0C9F902E00120287001203EBDCA
:100DD000F9B5A3B00C001700002651E020006946C9
:100DE00008710120009001AB01226E21D02000F09B
:100DF000B3F9002876D02800C0B2009012AB0122CF
:100E00006F21D02000F0A8F900286DD03800C0066E
:100E1000C00E694608710120009001AB01226D21CE
:100E2000D02000F099F9002860D0200069460871B0
:100E30000120009001AB01226E21D02000F08CF93E
:100E4000002855D002A8402100F08EFA2800C0B238
:100E5000009002AB01226F21D02000F02CF9002875
:100E600048D02A0002A912A800F0F8FD002843D1BA
:100E7000403480204000844201D17F1C0024403651
:100E8000249886423AD2402524987119884201D28A
:100E90002498851B80204000001BA84202D280209D
:100EA0004000051B12A8402100F05EFA002005E07A
:100EB00023998919095C12AA1154401CA842F7D33E
:100EC0003800C006C00E694608710120009001ABD1
:100ED00001226D21D02000F03FF9002800D07DE7ED
:100EE00000200CE000200AE0002008E0002006E0DE
:100EF000002004E0002002E0002000E0012025B0F6
:100F0000F0BD70B50D4D002401E0F6B2A419702CAF
:100F100010D22A5D641C295D641C2E5D641C3300A4
:100F2000DBB2D2B2C9B22819FFF752FF0028ECD1C8
:100F3000002000E0012070BDE02E6542382F00083F
:100F400070B4036803240D0002267543AC40A3432C
:100F500003600368022461438A401A43026070BC44
:100F6000704710B4838801248C40A3438380838816
:100F70008A401A43828010BC704770B4836803248F
:100F80000D0002267543AC40A343836083680224AE
:100F900061438A401A43826070BC704770B4C36872
:100FA00003240D0002267543AC40A343C360C3680D
:100FB000022461438A401A43C26070BC704770B516
:100FC00008290ED2036A0F240D0004267543AC4095
:100FD000A3430362036A042461438A401A43026202
:100FE0000EE0436A0F2404254D43203DAC40A3434B
:100FF0004362436A0424614320398A401A434262AF
:1010000070BDF8B507009024E40502220A212000F3
:10101000FFF796FF01220A212000FFF7A2FF01221D
:101020000A212000FFF7A9FF00220A212000FFF774
:10103000B5FF04220A212000FFF7C1FF0122092188
:101040002000FFF77DFF012209212000FFF789FF23
:10105000012209212000FFF790FF00220921200032
:10106000FFF79CFF00250DE08026B60030008F4979
:101070000880012000F052F98D480660012000F040
:101080004DF96D1C0A2DEFD3022209212000FFF734
:1010900057FF042209212000FFF791FF85480168CE
:1010A000802292030A4302600168834A0A40026078
:1010B00082480760F1BDF8B50B0001210C00804D9E
:1010C0002D6829437E4D29607E4FC0B23860386854
:1010D0001100C9B209048025AD010D4305433D60EF
:1010E0001100C9B2180000F07EF8002801D10024D8
:1010F0001FE0386874490140396038686946097EE4
:101100000904902292010A4302433A600026009D9E
:1011100004E06E48006828706D1C761C6846007EEE
:10112000864206D204216A4800F082F80028F0D1F5
:1011300000248021C901386808433860380000F075
:1011400096F8002800D100245D48016801229143EF
:1011500001602000C0B2F2BDF8B50B0001210C0007
:10116000574D2D682943564D2960564FC0B23860FF
:1011700038681100C9B26D462D7E491909048025D1
:10118000AD010D4305433D601100C9B2180000F0E8
:101190002AF8002801D1002412E00026009D00E07A
:1011A000761C6846007E86420AD228784949086043
:1011B0006D1C0121464800F03BF80028F0D10024C6
:1011C0008021C901386808433860380000F04FF8C2
:1011D000002800D100243A480168012291430160AF
:1011E0002000C0B2F2BD71B581B00E0001A831007F
:1011F000C9B24418641E002504E02078354908600F
:10120000641E6D1C3000C0B2854207D201213048F7
:1012100000F00EF80028F0D1002008E001212C4851
:1012200000F006F8002801D1002000E0012076BD82
:10123000F8B506000F0000F06EF804000D0000F095
:101240006AF8001BA94100290FD801D303280CD24A
:101250001F480068E221C9000140002905D130681B
:1012600038400028EBD00120F2BD0020FCE7F8B5A3
:1012700006000F0000F04FF804000D0000F04BF8DE
:10128000001BA94100290FD801D303280CD2104814
:101290000068E221C9000140002905D130683840CA
:1012A0000028EBD10120F2BD0020FCE72800004817
:1012B0001800004810100240FFFFDFFF10540040EC
:1012C0000054004004540040FFFF00FF245400403D
:1012D00018540040285400400121C006C00E81402F
:1012E0001B480160704780B500200021194A03C2E5
:1012F000083A002018490860184819490860194838
:1013000007210160016801220A4302600020C043F6
:10131000FFF7E2FF01BD0F4803C8704770B5040036
:101320000C4E0CCE083E03CE083E801A9941002593
:10133000A942F8D301D8A042F5D370BD054A03CA2B
:10134000083A0023401C594103C2083A7047000084
:1013500000E100E0A000002018E000E080BB0000F9
:1013600014E000E010E000E00022FFE71300103975
:1013700006D330B41400150010393CC0FCD230BC88
:10138000490700D30CC000D504C0890002D30280F5
:10139000801C002900D502707047FEE79D210200E5
:1013A0000AD002D4491E9218FCD5C905100A1206AB
:1013B000524100D3012A4841704700009D2102009C
:1013C000EED55242F446FFF7EBFF0122D20710435D
:1013D000604730B405004D400122D20715404B183C
:1013E0000418240E28D01B0E2FD0FF2C34D0FF2B36
:1013F00037D0E41A00020902104311434308480899
:10140000D10D1B1A02D2641EDB181B18DB18834295
:1014100000D31B1A4941F9D37F3426DDFE2C08DAAC
:10142000E4054808C907194391416041284330BC8D
:101430007047FF20C005F9E728001B0E03D0FF2BE3
:10144000F5D14902F3D0D043F1E7FF2C01D140029E
:10145000F9D1FF20C005E9E74002F4D1FF2BF8D114
:10146000F1E728004902E2D0EDE70B020020244218
:10147000DCD15B129B1CD9D9D805D7E730B4050065
:101480004D400122D20715404B180418240E2ED0CF
:101490001B0E32D0FF2C34D0FF2B3AD0E4180002C0
:1014A000090210431143000A090A9446C2B24A4392
:1014B000000AC3B24B43000A4843110A5B181A439F
:1014C000D2B2190A091801D44918641E080A7F3CCF
:1014D00023DBFE2C08DAE405090611436346994133
:1014E0006041284330BC7047FF20C005F9E7280061
:1014F0001B0EFF2BF6D1D043F4E72800FF2CF1D1CF
:10150000F9E74002F7D1FF2B01D14902F3D1E00501
:10151000E7E7D8054902E4D0EDE743020020641C68
:10152000DFD15B129B1CDCD9D805DAE70122D20798
:1015300003004B402ED4431A01D2C01AC91830B44C
:101540004B180418240E1B0E22D0FF2C20D0E31AB7
:10155000182B1DDC09021143C40D641E0002104348
:1015600094461925ED1A0A00AA40D940451801D31E
:101570006D08A41CE405D209280A2D062A436546F5
:10158000AA41604103181B0EFF2B01D3C00DC005FB
:1015900030BC7047514006E05140CCE70122D207F1
:1015A00003004B40F8D4431A03D2C01AC918504064
:1015B000514030B44B18090211430418240E1B0E7D
:1015C00040D0FF2C3AD025009D410BD31ED8C50D2D
:1015D0004002401A0BD3ED050100400AC9059141B4
:1015E0006841D5E7C50D40024918401AD0D0012105
:1015F0004008491C0018FCD58C4204D36D1A000A1F
:10160000ED054019C4E7E8051040C1E7182DBFDC1F
:10161000AC1C0D00E140E5414D40012D4941C40D98
:1016200000021043451A01D46D199543641EE40568
:10163000280A2D069541604130BC7047FF2BA7D189
:10164000D843A5E72442A3D10020A1E70122120636
:101650000118CA420AD28A420DD838221206090954
:101660008918C20FD20711434007704700D04908BC
:101670000909014301E0C10FC90700207047FEE7D7
:10168000FBB582B058004015401C48D048004015BA
:10169000401C44D0C80F08D002A84C00640803C8FE
:1016A000210002AC03C4082400E00024D80F04D0B9
:1016B0005B005B082000062444401000190000294C
:1016C0006D4606DA002680273F06361A8F41C0C5D0
:1016D00000E003C502A803C8002906DA0026802717
:1016E0003F06361A8F41300039006D46C0CD8F421B
:1016F00009DC01DB864206D21000190002AA0CCADE
:1017000000F0C0F945E028A003C81040194001D1FD
:10171000002841D002A803C800F0B4F93CE008005A
:1017200041004915491C04D1000302D002A803C896
:1017300035E059004915491C04D1180302D01000A6
:1017400019002CE059004915491C0DD118030BD183
:1017500002A803C8080041004915491C04D1000330
:1017600002D100200F4901E00020002102AC30CC62
:10177000EC0F00D00824DA0F02D0220006245440D7
:1017800002AA0CCA1A0053005B155B1C04D1120399
:1017900002D1220002245440220000F0F5F905B0E5
:1017A000F0BD00BF0000F03FFFFFFFFFFFFFFF7F26
:1017B000012252054B18DA4201D9581570475B0DCA
:1017C0000722D2019B1A10D9FF2B1DD2DB05012263
:1017D000D2070A4013430903020D1143490AC2000C
:1017E000524100D9491CC81870470AD1800A0A031F
:1017F00002435212921C04D9D3070B40D005184360
:101800007047C80FC0077047C80F0002FF30C005FF
:101810007047FEE7F8B584B004000D006900491573
:10182000491C01D1280351D14FA003C820402940B1
:1018300001D100284AD0E80F0CD100262000290051
:1018400000290BDA6F46002280231B06121A8B41F7
:101850000CC705E06D006D080826EFE76A4603C275
:101860000022F9239B05002B04DA80210906901A37
:1018700099410B00684603C8994202DA002E22D132
:1018800024E000203C4922002B0000F014FB0090D3
:1018900001910020384922002B0000F0A9FA009A9B
:1018A000019B00F07FFB00F03FFC02AA03C230A0C6
:1018B00003C800290DDA6F46002280231B06121A86
:1018C0008B410CC707E0802000064540200029001E
:1018D00047E06A4603C222002B00002B06DA0020F4
:1018E00080210906801A994102000B00684603C84E
:1018F000994207DB01DC904204D32000290002AAB0
:101900000CCA24E000201C49002906DA6F46802317
:101910001B06021A8B410CC701E06A4603C2220073
:101920002B00002B05DA80210906801A994102005C
:101930000B00684603C899420FDB01DC90420CD3D0
:1019400002227240160002A803C822002B0000F0F9
:1019500099F8320000F018F903E000BF00BF02A0C0
:1019600003C805B0F0BD00BFFFFFFFFFFFFFFF7F13
:10197000CD3B7F669EA0E63F0000F03FF446002886
:1019800004D4494200F013F8404260474042002925
:1019900005D45FD000F00BF840424942604749420D
:1019A00000F005F84942604703460B43E6D40022A5
:1019B000030A8B420BD203098B4219D243088B4294
:1019C0002ED2411A00D20146524110467047FF22E2
:1019D00009023FD012068B4205D3121209028B4234
:1019E00001D31212090203098B4219D300E0090A3C
:1019F000C3098B4201D3CB01C01A524183098B42E8
:101A000001D38B01C01A524143098B4201D34B01D0
:101A1000C01A524103098B4201D30B01C01A524133
:101A2000C3088B4201D3CB00C01A524183088B42BA
:101A300001D38B00C01A524143088B4201D34B00A3
:101A4000C01A5241884200D3401A5241CFD20146B7
:101A50001046704708B500F0C7FB08BD10B402E09F
:101A6000401C491C521E002A09D00B7804789C4265
:101A7000F6D002D20020C04302E0012000E00020A6
:101A800010BC7047F0B40E005E400125ED072E40FB
:101A9000B446AE0ADF184C18F4423BD2F74241D2AA
:101AA000640D43D07F0D38D0E41BC902DB0229430B
:101AB0002B43CF0ADB0A0600B61A9F4104D2641EEC
:101AC000B6197F41B6185F416812800D24180018BE
:101AD000844222DAE80C0021B6197F41B61A9F41F0
:101AE00002D2B6185F413F1C40414941F4D3241C47
:101AF00021DD2405B6197F41B61A9F4105D337432E
:101B0000C60737430026012F7041614166463143C5
:101B1000F0BC7047FCD1F74205D20020C143490513
:101B20004908F3E704D00020C143F1E77F0DFAD064
:101B300000206146ECE72442FAD1401C61410F03CA
:101B4000F6D30020E2E770B40123002413E001681B
:101B5000001D194202D04D466D1E49190C60091D29
:101B6000121F042AFAD20D00960701D50C80AD1C75
:101B70001A4000D02C700268001D002AE7D170BC0A
:101B80007047FEE700000000F7B504000D000029D3
:101B900005DA002280231B06121A8B4101E00200A5
:101BA0000B0000208049002904DA80273F06061A2E
:101BB0008F4139008B4204D1824202D165A430CCDE
:101BC000ABE066A003C8002905DA002280231B06CB
:101BD000121A8B4101E002000B00200029000029AD
:101BE00006DA002680273F06361A8F41300039007A
:101BF0008B4220DC01DB82421DD25BA003C82200A5
:101C00002B0000F0CFF90022564B00F0F1F806004F
:101C10000F0055A003C822002B0000F0E9F80200D5
:101C20000B0030003900FFF72DFF04000D00029873
:101C30000121014302916B005B0822000020F92181
:101C400089050029064604DA80273F06061A8F41D7
:101C500000E00F00002B05DA80210906801A994167
:101C600002000B009F4258DC01DB964255D2220055
:101C70002B002000290000F095F906000F0032002B
:101C80003B002000290000F08DF90090019138A060
:101C900003C832003B0000F085F937A20CCA00F0FF
:101CA000A7F832003B0000F07DF935A20CCA00F025
:101CB0009FF8009A019B00F075F922002B0000F0BC
:101CC00097F804000D0030A003C832003B0000F07C
:101CD00069F92FA20CCA00F08BF832003B0000F02B
:101CE00061F92DA20CCA00F083F832003B0000F02D
:101CF00059F92BA20CCA00F07BF832003B0000F02F
:101D000051F90022284B00F073F802000B0020006C
:101D10002900FFF7B7FE04000D000298800702D5E6
:101D20008020000645400298400709D020A1800E7F
:101D3000081803C822002B0000F05AF804000D0018
:101D40000298000702D580200006454020002900A7
:101D500003B0F0BD182D4454FB21E93F56CD9E5EE3
:101D60001426D13F0000F0BFAA4C58E87AB6FB3FDA
:101D7000845D57134B57B03FB2934C19ED5EE43F6F
:101D8000BEDE02B90240F83FDE39028FC7C0743FA1
:101D90008AAB1283000CC83F24D7E508B6D8F03FC1
:101DA0000F34580E5895FD3F0000F03F0000000032
:101DB000000000000000000066732D3852C1E03FB3
:101DC000182D4454FB21F93F66732D3852C1F03F62
:101DD000182D4454FB21F93F66732D3852C1004041
:101DE000182D4454FB2109403FD038C6A6F10440C9
:101DF000F0B40125ED070F005F404FD48B4200D1B6
:101E0000824205D98446100062468C46190063461A
:101E1000DF184C18640D7F0D3AD0661C760537D05C
:101E2000E61B352E34DCDB022B43DB0A0C0DC9022A
:101E30002943C912202E0DDB1700203E06D01F00BB
:101E4000F741F3405F400026012A7741C0187141F5
:101E50000DD217E01700F741F2405740F3415A40C6
:101E6000B340F3405A400026801859410AD3A21CBF
:101E700052050FD0C207012F724117004008CB074F
:101E800018434908641C24054208AF417041614170
:101E9000F0BC7047641C21050020F9E76B4010E09E
:101EA0006B40ABE7F742F3D1E943F1E72442EFD1CE
:101EB00000200021ECE7F0B40125ED070F005F40A2
:101EC000EED40C00871A9C4105D2C01BA141D21947
:101ED000634169406B40AE0ADF184C18F442E1D20E
:101EE000640D7F0DE2D0E61B362ED1DCDB022B43E6
:101EF000DB0AA4460C0DC9022943C90A012E28DCBD
:101F000004D1D6075208DF073A435B08EF0A76424E
:101F10009041994114D039423BD1B61940414941D1
:101F2000761C394204D1761C001849413942FAD056
:101F3000B9436746B74208D9A41B24052143A7E744
:101F40000042EAD13642E8D1A2E7E40AE1070020E4
:101F50009EE7202E0BDD203E1F00F340F7415F403F
:101F6000012A002257417E42984191410BE017001F
:101F7000F741F2405740F3415A40B340F3405A40D2
:101F80007E42904199410A0303D2641EB619404132
:101F900049410027641E24054208AE417841614151
:101FA000F0BC7047F0B50E005E400125ED072E40F5
:101FB000B446AE0ADF184C18F44208D2F7420ED2EB
:101FC000640D01D07F0D12D100206146F0BD05D116
:101FD000F74201D87F0D05D10020C143F0BDFBD1F0
:101FE000640DF9D00020C143490549088FE0E41988
:101FF000C902DB0229432B43DB0A460DC0023143F1
:102000008E4630B487B295B27D432E0CADB2140C1F
:102010007C43A419260C240425439CB27C43A419B8
:10202000190C7943270CC919A4B20F043C43090CBD
:10203000000C97B247432E0CBE193543ADB2170CB6
:102040004743360CBF19A6B2BF193E043543240CD2
:102050003E0C36199FB24743BF19BCB23E0C8919DA
:102060001F0C47437F183E043443390C704680B23E
:1020700097B247432E0CBE193543ADB2170C4743F8
:10208000360CBF19A6B2BF193E043543240C3E0CD2
:1020900036199FB24743BF19BCB23E0C89191F0CB9
:1020A00047437F183E043443390C77463F0C90B2C7
:1020B00078432E0C80190604ADB22E43050CA0B255
:1020C0002D18120C7A435019020C80B2240CA4185B
:1020D0009AB27A43121914042043120C89181B0C6B
:1020E0007B43C91830BCEF0A394203D1B6194041CD
:1020F0004941641E6F12BF0DE41B0BDBFF19BC428C
:1021000011DA240500274208AE4178416141664654
:102110003143F0BD641C05D1401C6141CF0201D3A5
:102120004908F4E750E75DE7012252054B1850D209
:10213000D3424DD25B0D4BD030B41C05A1435508A2
:102140002943D40AE41E1B195B0801D30018494136
:102150001B059C466C19091B001849410018494190
:10216000641900239202491B07D46D081DD2091B74
:10217000641900184941491BF7D56D080AD209199D
:10218000641B00184941491BEFD56D08F7D301E0E6
:10219000520817D0C01861419B1AAC410018494140
:1021A000801AA941F4D452080AD0C01AA1419B1840
:1021B0006C4100184941801AA941E9D45208F4D170
:1021C0005B1C6C415808E20710436108614430BC55
:1021D0007047C90FC907580DFAD0C943D342F7D881
:1021E00000B500BF00BF00BD7047FEE70121C0067B
:1021F000C00E8140D0480160704770B4036803246A
:102200000D0002267543AC40A3430360036802241B
:1022100061438A401A43026070BC704710B48388DF
:1022200001248C40A343838083888A401A438280A0
:1022300010BC704770B4836803240D0002267543F8
:10224000AC40A34383608368022461438A401A43FD
:10225000826070BC704770B4C36803240D0002260E
:102260007543AC40A343C360C368022461438A4002
:102270001A43C26070BC704770B508290ED2036A59
:102280000F240D0004267543AC40A3430362036A88
:10229000042461438A401A4302620EE0436A0F2419
:1022A00004254D43203DAC40A3434362436A0424CC
:1022B000614320398A401A43426270BD826901231A
:1022C0008B40134383617047028D01238B4013437E
:1022D0000385704700B502000120128A03008B407D
:1022E0001A4200D10020C0B200BD38B59024E405E8
:1022F00000212000FFF7E2FF012200212000FFF76C
:102300007CFF002200212000FFF788FF002200212F
:102310002000FFF78FFF002200212000FFF79BFF26
:10232000864D002201212800FFF767FF01220121CD
:102330002800FFF790FF824D002201212800FFF7BF
:102340005CFF012201212800FFF785FF0022002108
:102350002800FFF752FF012200212800FFF77BFF32
:10236000002207212000FFF748FF0122072120005B
:10237000FFF771FF002206212000FFF73EFF012238
:1023800006212000FFF767FF002205212000FFF74C
:1023900034FF012205212000FFF75DFF00F061F806
:1023A0006848016805220A430260502102680A4316
:1023B000026065480268114301600168A022D200F2
:1023C0000A4302600168A022D2010A430260E320AE
:1023D0005E490A6802430A605D490A681043086062
:1023E0000520FFF703FF0620FFF700FF0720FFF798
:1023F000FDFE04212000FFF767FF022204212000D8
:10240000FFF7FBFE012204212000FFF713FF042247
:1024100004212000FFF730FF00204E4908804E497C
:1024200001200860096802225143491C4B4A11608F
:102430004B490A88642313430B804A490A880300E6
:1024400013430B8048490A881043088031BD80B58A
:1024500000219020C005FFF737FF0120FEF75EFF47
:1024600001BD80B500219020C005FFF727FF0120A6
:10247000FEF754FF01BD38B58CB000252C0007E0F5
:1024800068460C21FEF770FF684600F0A1F9641C55
:10249000322C09D200F08EF90028F1D100F066F854
:1024A0000028F7D1002044E0280004E0C7490422B6
:1024B00042438D50401C0628F8D306A81821FEF789
:1024C00053FF2C0010E006A904224243895803AAB6
:1024D00002234343D25E891806AA04234343D15002
:1024E000401C0628EFD3641C642C12D200F062F961
:1024F000002805D100F03AF80028F7D1002018E0B4
:1025000003A80C21FEF730FF03A800F061F92800B2
:10251000E7E70BE006A80421694340586421FFF770
:1025200043FAAA4904226A4388506D1C062DF1D350
:1025300001200DB030BD000000E100E000040048C3
:1025400000140048080001400C0001400004014054
:102550000C04014028200040342000402C20004082
:10256000182000402020004000200040F8B584B032
:10257000A94803C8A1A20CCA994206D1904204D12D
:10258000FEF7C9FEA44A03C2083AA54800680A2813
:1025900003D3FFF766FF00200AE100249A48007881
:1025A000002859D0FEF7B7FE02AA03C2083A01215B
:1025B0009448FFF78FFE002801D1012600E0002695
:1025C000924C01212000FFF785FE002803D1012055
:1025D0006946087002E0002069460870002120006A
:1025E000FFF778FE002801D1012400E00024072134
:1025F0009020C005FFF76EFE002801D1012500E004
:10260000002506219020C005FFF764FE002801D1B7
:10261000012700E0002705219020C005FFF75AFEA2
:10262000002801D1012000E00020694609783140EE
:102630000C4025402F4004003C402000C0B2002840
:102640000AD1FEF768FE02AA0CCA801A9941002935
:10265000ADD301D83228AAD3002738006A490870C0
:10266000E4B2002C00D18FE0380004E06849042275
:1026700042438F50401C0628F8D3380001E000BFC9
:10268000401C0F28FBD317243FE000BF401C0F283D
:10269000FBD300213000FFF717FE01215948FFF757
:1026A00019FE5B4D2968C0B2A04008432860012193
:1026B0005648FFF70FFE6968C0B2A0400843686043
:1026C00000215248FFF706FEA968C0B2A0400843A7
:1026D000A86007213000FFF7FDFDE968C0B2A04007
:1026E0000843E86006213000FFF7F4FD2969C0B215
:1026F000A0400843286105213000FFF7EBFD696920
:10270000C0B2A04008436861641E002C07D4902624
:10271000F60500213000FFF7D1FD3800B7E790241F
:10272000E40500212000FFF7C9FD380016E0384914
:10273000042242438A58120208D5042242438A588E
:10274000FF231B061343042242438B5004224243BF
:102750008A58121204234343CA50401C0628E6D369
:1027600000212000FFF7B0FD380001E000BF401C51
:102770000F28FBD301202749087029480760FEF77E
:10278000CAFD254A03C2083AFEF7C5FD224A0CCA13
:10279000801A994100290AD301D8C92807D32048B3
:1027A0000168491C0160FFF75CFEFFF750FE012045
:1027B00005B0F0BD17480078704700B5732101409F
:1027C000002902D001201049087000BD84000020BB
:1027D00030B500210A000CE00D4B042454431B5972
:1027E0000E4C0425554364591B1B022454430353C8
:1027F000521C062AF0D30748017030BDFFFFFFFFCF
:10280000FFFFFFFF00040048B5000020001400484F
:102810006C000020B4000020000000208400002094
:10282000B00000200120994908707047F8B596B0B3
:1028300000F034F9FEF757FD9548FEF7E2FB9548A6
:102840000990089008A9944800F063FA002000203D
:10285000FFF74BFDFFF7FBFDFFF70DFE69464871E3
:10286000FDF7EEFF6946087168460079002804D03C
:102870000120FEF727F969460871684600790028AB
:1028800003D0FEF763F969460871FEF744FD0EAA0E
:1028900003C2083A10A81821FEF766FD03A800211C
:1028A000002206C0083822E003A8042171434058E2
:1028B000BA49FEF7E3FD00F0F3FA059068460079A7
:1028C000002800D10595042205A9009807193800B1
:1028D00000F004FB241D761C022EE5D3AA200099EB
:1028E0000855641C200069490D7000F066FA6846BE
:1028F0004079002847D0FFF739FE6946487168469D
:10290000407900283FD0FFF755FF00283BD00AA8A8
:102910000C21FEF729FD0AA8FFF75AFF00252E001B
:102920002DE09F4F0AA802217143405EFEF746FD4D
:102930003900FEF7A3FD01000C00FE2080053900E0
:10294000FEF72CFE10A9042272438958FEF796FD6B
:102950002100FEF7EBFD10A90422724388500DE020
:10296000904800780028DCD00AA802217143405E1C
:10297000FEF724FD10A9042272438850761C062E0F
:10298000EED38848057068460079002845D00024B9
:1029900020006946887106A80021002206C0083878
:1029A00001A9891C06A8FEF7FBF86946087168466C
:1029B0000079002831D06846807900282DD07A4DE2
:1029C0002878002804D0069803900798049023E004
:1029D000764EFE27BF0506983100FEF74FFD0090AA
:1029E00038003100FEF7DAFD0399FEF747FD009944
:1029F000FEF79CFD039007983100FEF73FFD009025
:102A000038003100FEF7CAFD0499FEF737FD0100DA
:102A10000098FEF78BFD04902C70FEF77CFC0EAA4C
:102A20000CCA801A9941002900D260E702D80E280A
:102A300000D25CE715480078002800D157E700F085
:102A4000D2F9009000252C00AA2000990855641C9A
:102A50002E0017E003A804217143405800F020FA2B
:102A60006946088168464079002802D128006946F5
:102A70000881022202A900980719380000F02EFAF6
:102A8000A41C761C062EE5D32E0025E708000020A6
:102A9000090331002528000820A1070010B544498A
:102AA00010200860434A1068A0239B03034313606F
:102AB00041480368802464041C43046003689B014C
:102AC000FCD501200B6803430B60116802230B4304
:102AD000136011680907FCD538490A6802430A6087
:102AE0000A680240002AFBD08022920234490B6817
:102AF00013430B600B681340002BFBD08022D202E3
:102B00000B6813430B600B681340002BFBD0802233
:102B100012030B6813430B600B681340002BFBD0B0
:102B20008022D2030B6813430B600B681340002B09
:102B3000FBD00A6802430A600A680240002AFBD000
:102B4000802252001F490B6813430B600B6813402F
:102B5000002BFBD01C4A1368034313601368034027
:102B6000002BFBD0802080030B6803430B600B68B5
:102B70000340002BFBD08020C0011168014311608D
:102B8000116801400029FBD010BD80B50F490868CD
:102B90000022D2430A60FFF710FE01BD00401C4630
:102BA0009A99993E090000200A000020CDCCCC3D26
:102BB0000020024004100240001002403010024089
:102BC000141002401C10024018100240140401406E
:102BD0000121C006C00E81409D4801607047F0B5DC
:102BE000020052B2002A23D503220F24994B05007C
:102BF0006DB22540083DAD0804267543060076B247
:102C00003440083CA408042674431E59FF27BC46E0
:102C10001400044008277C436746A740BE4389014F
:102C2000C9B20240082042439140314359511AE051
:102C3000894A0323040064B2A40804256C43145990
:102C4000FF251E00064008277E43B540AC4389019E
:102C5000C9B2034008256B439940214340B2800824
:102C6000042358431150F0BD70B4036803240D00D1
:102C700002267543AC40A34303600368022461430A
:102C80008A401A43026070BC704770B483680324A2
:102C90000D0002267543AC40A34383608368022481
:102CA00061438A401A43826070BC704770B4C36845
:102CB00003240D0002267543AC40A343C360C368E0
:102CC000022461438A401A43C26070BC704770B5E9
:102CD00008290ED2036A0F240D0004267543AC4068
:102CE000A3430362036A042461438A401A430262D5
:102CF0000EE0436A0F2404254D43203DAC40A3431E
:102D00004362436A0424614320398A401A43426281
:102D100070BD38B5050003C9504A03C2083A902473
:102D2000E405022202212000FFF79EFF012202217A
:102D30002000FFF7AAFF002202212000FFF7B6FFC4
:102D4000012202212000FFF7C2FF454801688022CE
:102D5000D2010A4302600168424A0A4002608120AF
:102D60004149086041482900FEF721FE404908809A
:102D70001B20FFF72DFF07211B20FFF730FF3D48E9
:102D800001680122914301609A2101603A483B4960
:102D9000086000203A4908603A4908600A20FFF7B5
:102DA00017FF07210A20FFF71AFF374801680122A1
:102DB0000A43026000F019F831BD10B50400002C80
:102DC00010D000F012F831482D4908602D480460F9
:102DD0002848016801220A4302602B480168082242
:102DE0000A43026010BD294870472748016808223D
:102DF000914301602648016842220A4302601D484F
:102E00000168012291430160102022490860704747
:102E100010B521480468A00604D5FFF7E6FF0F4867
:102E200000688047200604D5FFF7DFFF0B484068A5
:102E3000804710BD80B5194800680007000F0028C2
:102E400005D0FFF7D2FF054840688047FFE701BD86
:102E500000E100E01CED00E000E400E0A80000203C
:102E60000C100240FFBFFFFF08380140006CDC027D
:102E70000C3801401C000240283801402400024068
:102E80002800024020000240003801400C000020D1
:102E90002038014004000240000002401C3801407C
:102EA0000122D2070118090E7F3910D449421F317F
:102EB0000FD4001805D2C0011043C84000D5D0433C
:102EC0007047C0011043C84005D4404270470020FD
:102ED00070470042F3D510007047FEE7124207D05A
:102EE0008B0706D00B78491C0370401C521EF7D884
:102EF0007047830706D00B78491C0370401C521E94
:102F0000F9D1704770B4103A03D378C9103A78C039
:102F1000FBD2530701D318C918C001D508C908C08E
:102F2000D20704D30B880380891C801C002A01D59A
:102F30000B78037070BC7047037B034CCD6C03AB04
:102F40000336567600680402CB47A2021804000537
:102F50008BC1010C0400000000037F060CC92C97F4
:102F60009797038903264666006C02200001EC0453
:102F700000004000037F060CC92C979797040904B2
:102F8000872D353D00A30100078601FE074105F1AD
:102F900020283038077E01300746019A074704F1A0
:102FA0002830380216020000084880F30888042000
:102FB0000168090E1F22914205D1054801210160D7
:102FC000044800210160044800470000B8040020C4
:102FD0001810024000000140A530000830B4012262
:102FE0000168001D00290FD00368C3184468083029
:102FF000144202D04D466D1E64191D6825601B1DCC
:10300000241D091FECD0F8E730BC704710B5074904
:1030100079441831064C7C44163404E0081D0A68D3
:10302000891888470100A142F8D110BD08000000AE
:103030002800000013EBFFFFAC0000000C00002094
:103040000000000099FFFFFF0C000000640000007A
:10305000000000200000000000F00DF8002801D062
:10306000FFF7D4FF00BF00BF002000BF00BFFFF785
:10307000DDFB00F002F80120704780B500F002F897
:1030800001BDFEE70746384600F002F8FBE7FEE721
:1030900080B500BF00BF024A11001820ABBEFBE79D
:1030A0002600020000BF00BF00BF00BFFFF7D4FF33
:1030B000FFFFFFFFFFFFFFFF01010100FEE7FEE74B
:1030C000FEE7FEE7FEE7FEE7FEE7FEE7FEE7FEE7D8
:0A30D000FEE7FEE7FEE7FEE7FEE77D
:04000005080030A51A
:00000001FF
